:020000040800F2
:1000000008050020AD010008191B0008C1190008EF
:10001000151B0008C1040008E11F000800000000D3
:100020000000000000000000000000001D1B000890
:10003000DF050008000000001B1B00081F1B000854
:10004000C7010008C7010008C7010008C701000870
:10005000C7010008C7010008C7010008C701000860
:10006000C7010008C7010008C7010008C701000850
:10007000C7010008C7010008C7010008C701000840
:10008000C7010008C7010008C70100080000000000
:10009000000000000000000000000000C701000890
:1000A000C7010008C7010008C7010008C701000810
:1000B000C7010008C7010008C7010008C701000800
:1000C000C7010008C7010008C7010008C7010008F0
:1000D000C7010008C7010008C701000800000000B0
:1000E000C7010008C7010008C701000800000000A0
:1000F000000000000000000000000000C701000830
:1001000000000000C7010008C7010008C70100087F
:1001100000000000000000000000000000000000DF
:10012000C5040008C7010008C7010008C70100088E
:10013000C7010008000000000000000000000000EF
:10014000000000000000000000000000C7010008DF
:10015000C7010008C7010008C7010008C70100085F
:10016000C7010008C70100080000000000000000EF
:10017000000000000000000000000000000000007F
:1001800000000000C701000800000000000000009F
:10019000C7010008C7010008DFF80CD000F07AF8AA
:1001A000004800473D200008080500200648804719
:1001B00006480047FEE7FEE7FEE7FEE7FEE7FEE74C
:1001C000FEE7FEE7FEE7FEE7DD1B000899010008F9
:1001D0002DE9F05F0546002092469B46884606467C
:1001E000814640241BE0284641464746224600F00F
:1001F00041F853465A46C01A914110D31146184649
:10020000224600F028F82D1A67EB01084F462246D7
:100210000120002100F01FF817EB00094E41201EBD
:10022000A4F10104DFDC484631462A464346BDE8D6
:10023000F09FD2B201E000F8012B491EFBD27047BB
:100240000022F6E710B513460A4604461946FFF7A2
:10025000F0FF204610BD202A04DB203A00FA02F10C
:10026000002070479140C2F1200320FA03F31943A4
:1002700090407047202A04DB203A21FA02F0002146
:10028000704721FA02F3D040C2F1200291400843A6
:1002900019467047064C074D06E0E06840F0010340
:1002A00094E8070098471034AC42F6D3FFF778FF84
:1002B0008C200008AC20000870B50546AC6B206CA3
:1002C00000F0500050BB206C40F4007020642068A7
:1002D000806800F04050E8B9207ED8B92068C06A34
:1002E00000F4700020B12068806800F4806088B954
:1002F0002068406820F0200021684860206C20F4CD
:1003000080702064206C00F4805018B9206C40F09C
:1003100001002064204600F037FA0BE0206C00F06A
:10032000100018B1204600F043FA03E0A06BC16C46
:100330002846884770BD70B50546AC6B40202064E8
:10034000606C40F004006064204600F031FA70BD3B
:1003500070B50446A56B284600F020FA70BD000079
:1003600055494A6822F440324A604A6843681A4351
:100370004A600268526822F4807203685A60026818
:100380005368026943EA022203685A6002685268AD
:1003900022F0407203685A600268526883681A4308
:1003A00003685A600268926822F4006203689A60E7
:1003B00002689268C3681A4303689A603F4B826A76
:1003C0009A4218D00268926822F0706203689A60BC
:1003D00002689268836A1A4303689A6002689268A6
:1003E00022F0405203689A6002689268C36A1A4316
:1003F00003689A600BE00268926822F070620368FA
:100400009A600268926822F0405203689A6002681B
:10041000926822F0020203689A6002689368027E82
:1004200043EA420203689A602022125CA2B1026889
:10043000526842F4006203685A600268526822F40B
:10044000604203685A6002685368426A521E43EA77
:10045000423203685A6005E00268526822F4006282
:1004600003685A600268D26A22F470020368DA6292
:100470000268D36A828B521E43EA02520368DA6230
:100480000268926822F4007203689A6002689368B6
:1004900090F8302043EA422203689A60026892682A
:1004A00022F4806203689A6002689368426943EAB2
:1004B000822203689A607047002301400100000F08
:1004C00000BFFEE710B5024800F0AEFA10BD000014
:1004D000680000200146087810381823B0FBF3F2BA
:1004E0000848805CC865032A05D908686FF30900CD
:1004F000001D886503E008686FF309008865886D52
:10050000704700006C200008014600208A6A8B6951
:10051000CBB932B1012A0DD0022A03D0032A10D15F
:100520000EE000BFCB6A03F08073B3F1807F00D18F
:10053000012007E0CB6AB3F1C07F00D1012001E0C8
:1005400000E000BF34E08B69B3F5005F1AD132B12F
:10055000012A07D0022A03D0032A11D10AE000BFE2
:1005600001200EE0CB6A03F08073B3F1807F00D1ED
:10057000012006E0CB6AB3F1C07F00D1012000E08A
:1005800000BF15E032B1012A05D0022A04D0032AA7
:100590000CD103E000BF00BF012008E0CB6A03F0EC
:1005A0008073B3F1807F00D1012000E000BF00BF65
:1005B000704730B50468246824F4802405682C60F2
:1005C000046863608468402C04D10468A2600468F5
:1005D000E16003E00468A1600468E26030BD704738
:1005E0007047000038B502460020009000BF92F826
:1005F0003C00012801D1022038BD012082F83C00D6
:1006000000BF0868092816D91068C0680C780A3C31
:1006100004EB44050724AC40A0431468E0600C7868
:100620000A3C04EB44048868A0401468E468204352
:100630001468E06013E0106800690C7804EB44056E
:100640000724AC40A043146820610C7804EB4404F8
:100650008868A040146824692043146820614868B1
:10066000072817D21068406B0C79641E04EB8405D0
:100670001F24AC40A04314686063088880B20C79E2
:10068000641E04EB8404A0401468646B2043146867
:10069000606331E048680D2817D21068006B0C7950
:1006A000E41F04EB84051F24AC40A04314682063BE
:1006B000088880B20C79E41F04EB8404A04014681D
:1006C000246B20431468206316E01068C06A0C791C
:1006D0000D3C04EB84051F24AC40A0431468E06289
:1006E000088880B20C790D3C04EB8404A0401468A7
:1006F000E46A20431468E0621E4B1F4C1068A0425D
:100700000AD10868122807D1586820F40000586000
:10071000586840F480005860174C1068A04222D1FD
:10072000164C0868A04202D0086811281BD15868EE
:1007300020F480005860586840F4000058600F4C66
:100740000868A0420FD10E4800680E4CB0FBF4F0D0
:1007500000EB80004000009002E00098401E0090F6
:1007600000980028F9D100BF002082F83C0000BFAB
:1007700000BF41E7002301400020014012000010AB
:100780000C00002040420F0010B50446002220213A
:10079000014800F013FC10BD0000024010B50446F3
:1007A00001222021014800F009FC10BD0000024098
:1007B0007047000070B5044600250CB9012070BDDB
:1007C0001549A06A884200D000BF206C30B920468D
:1007D00000F024F80020606484F83C00206C00F0F5
:1007E000100088B9206C20F4885040F0020020648A
:1007F0002046FFF7B5FD00206064206C20F0020069
:1008000040F00100206400E0012500BF002084F8D2
:100810003C0000BF2846D2E70100000F10B586B0AB
:100820000446142101A8FFF70BFD274920688842E0
:1008300048D100BF002000902448006840F4807038
:10084000224908600846006800F48070009000BFEC
:1008500000BF00BF002000901C481438006840F022
:1008600001001A49143908600846006800F00100C8
:10087000009000BF00BF0320019002900020039071
:1008800001A9134800F0B0FA12481349086000208B
:100890004860002110488160C1604FF480610161AF
:1008A00049004161890081610021C16101624162A9
:1008B00000F0DAF908B1FFF793FE00BF0648A06325
:1008C000846300BF06B010BD0020014044380240E0
:1008D000000002401064024068000020F8B50446A1
:1008E0000D4616460020009000BF94F83C000128F9
:1008F00001D10220F8BD012084F83C0000BF20682F
:10090000806800F00100A0B92068806840F0010014
:10091000216888603D4800683D49B0FBF1F000EB7C
:100920004000009002E00098401E009000980028CF
:10093000F9D12068806800F00100002864D0206CA4
:1009400040F20161884340F4807020642068406870
:1009500000F4806028B1206C20F4005040F48050F6
:100960002064206C00F48050B0F5805F04D1606C8E
:1009700020F00600606401E00020606400BF0020F9
:1009800084F83C0000BF234F2348A16BC863234871
:10099000A16B08642248A16BC8646FF02200216833
:1009A00008602068406840F08060216848602068E6
:1009B000806840F4807021688860226802F14C01F0
:1009C00033462A46A06B00F0C5F9786800F01F0096
:1009D00058B92068806800F0405028B920688068C5
:1009E00040F08040216888600EE00E49206888420F
:1009F0000AD12068806800F0405028B920688068DB
:100A000040F0804021688860002073E70C000020DF
:100A100040420F0000230140B902000851030008C2
:100A20003703000800200140F8B50446002000907C
:100A30008C4800684FF41651B0FBF1F7A56D2E6895
:100A400094F85C1008208840304098B12068006815
:100A500000F0040070B12068006820F004002168F4
:100A6000086094F85C1008208840A860606D40F031
:100A70000100606594F85C1001208840304068B146
:100A80002068406900F0800040B194F85C100120BB
:100A90008840A860606D40F00200606594F85C10CA
:100AA00004208840304068B12068006800F00200EF
:100AB00040B194F85C1004208840A860606D40F05C
:100AC0000400606594F85C1010208840304078B3D2
:100AD0002068006800F0080050B394F85C10102003
:100AE0008840A8602068006800F4802080B12068F9
:100AF000006800F4002028B9206CC8B12046216CA1
:100B0000884715E0A06C98B12046A16C88470FE09B
:100B10002068006800F4807028B92068006820F020
:100B2000080021680860206C10B12046216C8847BD
:100B300094F85C10202088403040002865D0206860
:100B4000006800F0100000285FD094F85C102020AE
:100B50008840A86094F83500052828D120680068EE
:100B600020F01600216808602068406920F08000AD
:100B700021684861206C08B9A06C28B12068006821
:100B800020F008002168086094F85C103F2088403D
:100B9000A86000BF002084F8340000BF012084F862
:100BA0003500206D10B12046216D8847F8BD2068C2
:100BB000006800F4802080B12068006800F4002004
:100BC00028B9606C10B12046616C88471DE0E06B6D
:100BD000D8B12046E16B884717E02068006800F430
:100BE000807068B92068006820F0100021680860F3
:100BF00000BF002084F8340000BF012084F83500D5
:100C0000E06B10B12046E16B8847606D38B3606DD2
:100C100000F00100F0B1052084F83500206800687C
:100C200020F001002168086000BF0098401C00907F
:100C3000B84200D905E02068006800F001000028F3
:100C4000F3D100BF00BF002084F8340000BF0120B2
:100C500084F83500E06C10B12046E16C884700BF95
:100C6000A4E700000C0000202DE9F0410446002517
:100C700000F0AAF9074614B90120BDE8F081606AC6
:100C800000B100BF00BF002084F8340000BF022084
:100C900084F835002068006820F0010021680860B1
:100CA0000AE000F091F9C01B052805D920206065F5
:100CB000032084F83500E0E72068006800F00100B8
:100CC0000028EED12068056821480540D4E90101DB
:100CD0000843E16808432169084361690843A16941
:100CE0000843E1690843216A08430543606A042810
:100CF00003D1D4E90B01084305432068056020684F
:100D0000456925F00705606A0543606A04280DD12E
:100D1000A06A0543E06A48B12046FFF7F5FB28B119
:100D200040206065012084F83500A6E72068456111
:100D30002046FFF7CFFB064694F85C103F20884022
:100D4000B06000206065012084F83500002094E741
:100D50003F8010F02DE9F04704460D4616461F4629
:100D60004FF00008D4F8589000BF94F834000128E0
:100D700002D10220BDE8F087012084F8340000BFD2
:100D800094F83500012825D1022084F83500002090
:100D900060653B46324629462046FFF70AFC94F838
:100DA0005C103F208840C9F808002068006840F0C7
:100DB000160021680860206C28B12068006840F0A7
:100DC0000800216808602068006840F00100216880
:100DD000086006E000BF002084F8340000BF4FF038
:100DE00002084046C6E70000F8B503460A4600255B
:100DF000002400200021CDE0012606FA01F5166846
:100E000006EA0504AC4273D15668012E08D0566834
:100E1000022E05D05668112E02D05668122E13D11C
:100E200098684F000326BE40B0434F00D668BE40CE
:100E300030439860586801268E40B0431679C6F357
:100E400000168E4030435860D8684F000326BE40DD
:100E5000B0434F009668BE403043D8605668022EBB
:100E600002D05668122E13D1CF0803F1200656F88F
:100E700027004E07F70E0F26BE40B0434F07FF0E68
:100E80001669BE403043CF0803F1200646F827001C
:100E900018684F000326BE40B043167906F00306DB
:100EA0004F00BE4030431860566806F08056B6F1D9
:100EB000805F6ED100BF00260096384E366846F43B
:100EC0008046364F3E603E46366806F480460096C1
:100ED00000BF00BF324E8F0856F827008E07370F2D
:100EE0000F26BE40B0432F4EB34202D1002615E07C
:100EF0004FE02D4EB34201D101260FE02B4EB342FD
:100F000001D102260AE02A4EB34201D1032605E0B0
:100F1000284EB34201D1042600E007268F073F0F79
:100F2000BE4030431E4E8F0846F82700224E3068E0
:100F3000A043566806F48036B6F5803F00D12043C2
:100F40001D4E3060361D3068A043566806F40036EA
:100F5000B6F5003F00D12043174E361D3060361DD8
:100F60003068A043566806F48016B6F5801F00D19D
:100F70002043114E08363060361D3068A043566855
:100F800006F40016B6F5001F00D120430A4E0C36B9
:100F90003060491C1029FFF42FAFF8BD44380240DF
:100FA00008380140000002400004024000080240EE
:100FB000000C024000100240003C01400AB1816177
:100FC00001E00B048361704701480068704700002E
:100FD00000000020034800680349097808440149DB
:100FE00008607047000000200800002010B50D4880
:100FF000006840F400700B4908600846006840F43F
:10100000806008600846006840F480700860032033
:1010100000F0A6F8002000F007F800F02BF8002000
:1010200010BD0000003C024070B504460E48007838
:101030004FF47A71B1FBF0F00C490968B1FBF0F59F
:10104000284600F025FC08B1012070BD102C07D205
:1010500000222146501E00F045F80548046001E0DA
:101060000120F2E70020F0E7080000200C0000203B
:101070000400002008B500BF002000901048006860
:1010800040F480400E4908600846006800F4804043
:10109000009000BF00BF00BF00200090081F006844
:1010A00040F08050091F08600846006800F080503A
:1010B000009000BF00BF072000F052F808BD0000FC
:1010C0004438024001460846002809DB00F01F03AF
:1010D00001229A4043099B0003F1E023C3F8002159
:1010E00000BF70472DE9F05F80460D461646002789
:1010F00000F078FF074639462A46334601F00700DC
:10110000C0F1070ABAF1040F02D94FF0040A01E056
:10111000C0F1070AD14600F1040ABAF1070F02D262
:101120004FF0000A01E0A0F1030AD4464FF0010A93
:101130000AFA09FAAAF1010A0AEA020A0AFA0CFAF8
:101140004FF0010B0BFA0CFBABF1010B0BEA030B9D
:101150004AEA0B042146404600F04CFFBDE8F09FF0
:1011600000BF00F00702064B19684FF6FF03194055
:10117000044B0B4343EA0221014B196000BF704747
:101180000CED00E00000FA0570B504460D460CB900
:10119000012070BD5848006800F00F00A84209D235
:1011A00055490D700846006800F00F00A84201D0B4
:1011B0000120EEE7207800F0020002281DD12078FF
:1011C00000F00400042805D14C48006840F4E050C9
:1011D0004A490860207800F00800082805D14748EF
:1011E000006840F46040454908604448006820F0C9
:1011F000F000A168084341490860207800F0010030
:10120000A8B36068012807D13C4808380068C0F3DB
:101210004040B8B90120BCE76068022802D060688D
:10122000032807D1354808380068C0F3406048B942
:101230000120AEE7314808380068C0F3400008B923
:101240000120A6E72D48006820F0030061680843EC
:101250002A490860FFF7B8FE064609E0FFF7B4FE2A
:10126000801B41F28831884202D9032091E707E0D0
:101270002248006800F00C006168B0EB810FEDD1EE
:101280001D48006800F00F00A84209D91A490D70E6
:101290000846006800F00F00A84201D0012078E75E
:1012A000207800F00400042807D11448006820F4D6
:1012B000E050E168084311490860207800F0080018
:1012C000082808D10D48006820F46040216940EAF0
:1012D000C1000A49086000F03FF808490968C1F3F5
:1012E0000311074A515CC840064908600648006877
:1012F000FFF79AFE00204CE7003C0240083802400D
:10130000742000080C000020040000200148006840
:10131000704700000C00002000B5FFF7F7FF0449FC
:101320000968C1F38221034A515CC84000BD000036
:10133000083802408420000800B5FFF7E7FF0449A1
:101340000968C1F34231034A515CC84000BD000046
:1013500008380240842000082DE9F04700240025C9
:101360000026A1462548006800F00C0020B10428A2
:1013700005D008283AD105E0DFF8849039E0DFF89D
:10138000849036E01D48001F006800F03F041B48B1
:10139000001F006800F4800078B11A481749091F3F
:1013A0000968C1F38811A0FB0170014622460023A1
:1013B0003846FEF70DFF05460EE011480F49091F9C
:1013C0000968C1F38811A0FB017001462246002381
:1013D0003846FEF7FDFE05460848001F0068C0F3CA
:1013E0000140401C4600B5FBF6F902E0DFF8109022
:1013F00000BF00BF4846BDE8F08700000838024043
:101400000024F40000127A00F8B504460CB901205B
:10141000F8BD207800F00100002874D0F948006879
:1014200000F00C0004280DD0F648006800F00C0015
:10143000082813D1F348001F006800F48000B0F5BD
:10144000800F0BD1EF4808380068C0F340400028F7
:1014500059D06068002856D10120D9E700BF6068E4
:10146000B0F5803F08D1E7480838006840F4803084
:10147000E449083908601EE06068B0F5A02F0DD17E
:10148000E0480838006840F48020DE4908390860E8
:101490000846006840F4803008600CE0D9480838FD
:1014A000006820F48030D749083908600846006891
:1014B00020F48020086000BF606890B1FFF784FDD1
:1014C000054606E0FFF780FD401B642801D9032094
:1014D0009EE7CC4808380068C0F340400028F1D0AF
:1014E00011E0FFF771FD054606E0FFF76DFD401BBB
:1014F000642801D903208BE7C24808380068C0F38C
:1015000040400028F1D1207800F0020002285FD18D
:10151000BC48006800F00C0058B1BA48006800F000
:101520000C0008281CD1B748001F006800F4800098
:10153000B0B9B44808380068C0F3400020B1E06892
:10154000012801D0012063E7AE480838006820F088
:10155000F800216940EAC100AA490839086037E06B
:10156000E06800B30120A8490860FFF72DFD05469B
:1015700006E0FFF729FD401B022801D9032047E7B9
:10158000A04808380068C0F340000028F1D09D480A
:101590000838006820F0F800216940EAC100994944
:1015A0000839086014E0002097490860FFF70CFD37
:1015B000054606E0FFF708FD401B022801D903207D
:1015C00026E7904808380068C0F340000028F1D1B1
:1015D000207800F0080008282CD16069A8B101200B
:1015E0008A490860FFF7F0FC054606E0FFF7ECFCCF
:1015F000401B022801D903200AE782486C300068AA
:10160000C0F340000028F1D014E000207F490860BA
:10161000FFF7DAFC054606E0FFF7D6FC401B022880
:1016200001D90320F4E677486C300068C0F340002D
:101630000028F1D1207800F00400042870D10027A0
:1016400070483830006800F0805090B900BF00202A
:1016500000906C483830006840F08050694938315B
:1016600008600846006800F08050009000BF00BF8E
:1016700001276748006800F48070B0B964480068CA
:1016800040F4807062490860FFF79EFC054606E062
:10169000FFF79AFC401B022801D90320B8E65C48FA
:1016A000006800F480700028F2D000BFA068012814
:1016B00008D154486830006840F001005149683151
:1016C00008601DE0A06805280DD14E48683000680C
:1016D00040F004004B49683108600846006840F05B
:1016E000010008600CE047486830006820F0010005
:1016F0004449683108600846006820F0040008602A
:1017000000BFA068A8B1FFF75FFC054609E0FFF73E
:101710005BFC401B41F28831884202D9032077E606
:1017200026E0384868300068C0F340000028EED05A
:1017300013E0FFF749FC054608E0FFF745FC401BB6
:1017400041F28831884201D9032061E62D48683092
:101750000068C0F340000028EFD1012F07D12948CD
:101760003830006820F0805026493831086000BFCA
:10177000A069002845D02348006800F00C00082824
:101780005DD0A069022845D100201F490866FFF7F7
:101790001BFC054606E0FFF717FC401B022801D999
:1017A000032035E6174808380068C0F34060002879
:1017B000F1D1D4E907010843616A40EA81110122AD
:1017C000A06AC2EB500041EA00412C20005D41EAD2
:1017D00000600C49091F086001200B490866FFF7EB
:1017E000F3FB054606E0FFF7EFFB401B022801D99B
:1017F00003200DE6034808380068C0F34060002865
:10180000F1D03FE00838024000004742800E4742D6
:101810000070004000201C490866FFF7D5FB054614
:1018200006E0FFF7D1FB401B022801D90320EFE5BA
:1018300016480068C0F340600028F2D122E0A06999
:10184000012800D1E4E511480830066806F480015B
:10185000E069814214D106F03F01206A81420FD134
:1018600047F6C0703040616A884209D106F44031C1
:10187000A06A814204D106F07061E06A814201D021
:101880000120C5E50020C3E50000474200380240C2
:1018900070B504462546681EB0F1807F01D3012053
:1018A0000FE0681E4FF0E02148610F214FF0FF303C
:1018B00000F0A0FB00204FF0E021886107200861C4
:1018C000002070BD10B504460CB9012010BDA06900
:1018D00000B100E000BF94F8390028B9002084F876
:1018E0003800204600F028F8242084F839002068C9
:1018F000C06820F400502168C860204600F07CF9E0
:101900002068006920F490402168086120684069DF
:1019100020F02A00216848612068C06840F4005027
:101920002168C8600020E063202084F8390084F832
:101930003A000020CAE7000010B586B00446142122
:1019400001A8FEF77DFC1B49206888422FD100BF0B
:10195000002000901848006840F4003016490860E4
:101960000846006800F40030009000BF00BF00BFD0
:101970000020009010481038006840F001000E4927
:10198000103908600846006800F00100009000BFB0
:1019900000BF0C2001900220029000200390032041
:1019A00004900720059001A90448FFF71DFA06B02E
:1019B00010BD0000004400404038024000000240DA
:1019C00000BFFEE71FB50020009001900290039039
:1019D0001B481C4908604FF48030486000211948BA
:1019E0008160012101610176002180F82010C1622F
:1019F000154981620021C1600221C161012180F885
:101A000030104161FEF7D6FE08B1FEF7E9FD002077
:101A10000090012001900020029069460948FEF7DD
:101A2000E1FD08B1FEF7DCFD0120009002200190ED
:101A300069460448FEF7D6FD08B1FEF7D1FD1FBD8B
:101A400000200140200000200100000F08B500BF69
:101A5000002000900A48006840F4800008490860AF
:101A60000846006800F48000009000BF00BF00221C
:101A700011463820FFF736FB3820FFF723FB08BD5F
:101A80003038024000B587B0142102A8FEF7D8FB19
:101A900000BF002001900F48006840F001000D4990
:101AA00008600846006800F00100019000BF00BF18
:101AB000002220210848FFF781FA2020029001200F
:101AC000039000200490059002A90348FFF78CF9C9
:101AD00007B000BD303802400000024010B50B488E
:101AE0000B4908604FF4E1304860002108488160EC
:101AF000C16001610C21416100218161C161FFF779
:101B0000E1FE08B1FEF76CFD10BD0000004400408E
:101B1000C800002000BFFEE770477047704710B54F
:101B2000FFF758FA10BD000000B593B0302107A8A8
:101B3000FEF786FB142102A8FEF782FB00BF0020FF
:101B400001902448006840F080502249086008460F
:101B5000006800F08050019000BF00BF00BF00206F
:101B600001901D48006840F440401B490860084649
:101B7000006800F44040019000BF00BF02200790C1
:101B800001200A9010200B9002200D9000210E9150
:101B900008210F91642110910221119104211291C9
:101BA00007A8FFF731FC08B1FEF71AFD0F200290DD
:101BB00002200390002004904FF4805005900020F4
:101BC0000690032102A8FFF7DFFA08B1FEF708FD2F
:101BD00013B000BD40380240007000400548006866
:101BE00040F47000034908604FF0006001498039FB
:101BF0000860704788ED00E02DE9F84F0446206842
:101C0000006920F44050E1680843216808612169B7
:101C1000A068084361690843E169084300902068AF
:101C2000C06849F20C618843009908432168C86084
:101C30002068406920F44070A16908432168486128
:101C4000E069B0F5004F75D1E3492068884203D0C0
:101C5000E249206888426FD1FFF76EFB814602207F
:101C60006168A0FB01510B461920A9FB00712A46AF
:101C70003846FEF7ADFA6421B0FBF1F04FEA001AE6
:101C800002206168A0FB01510B461920A9FB0071DD
:101C90002A463846FEF79CFA074602206168A0FBF8
:101CA00001510B461920A9FB00B12A465846FEF700
:101CB0008FFA6421B0FBF1F000EBC00101EB0010E2
:101CC000A7EB8000322101EBC0006421B0FBF1F0F2
:101CD00000F0F8000AEB400A02206168A0FB015105
:101CE0000B461920A9FB00712A463846FEF770FA08
:101CF000074602206168A0FB01510B461920A9FB91
:101D000000B12A465846FEF763FA6421B0FBF1F0B1
:101D100000EBC00101EB0010A7EB8000322101EBCA
:101D2000C0006421B0FBF1F000F0070050442168CE
:101D300088604FE16EE0FFE7FFF7EEFA8146022090
:101D40006168A0FB01510B461920A9FB00712A46CE
:101D50003846FEF73DFA6421B0FBF1F04FEA001A75
:101D600002206168A0FB01510B461920A9FB0071FC
:101D70002A463846FEF72CFA074602206168A0FB87
:101D800001510B461920A9FB00B12A465846FEF71F
:101D90001FFA6421B0FBF1F000EBC00101EB001071
:101DA000A7EB8000322101EBC0006421B0FBF1F011
:101DB00000F0F8000AEB400A02206168A0FB015124
:101DC0000B461920A9FB00712A463846FEF700FA97
:101DD000074602206168A0FB015003461920A9FBB9
:101DE00000B12A465846FEF7F3F96421B0FBF1F042
:101DF00000EBC00101EB0010A7EB8000322101EBEA
:101E0000C0006421B0FBF1F000F0070050442168ED
:101E10008860DFE070492068884203D06F492068FD
:101E200088426BD1FFF788FA814604206168A0FBE5
:101E300001510B461920A9FB00712A463846FEF7CE
:101E4000C7F9824604206168A0FB01510B461920A6
:101E5000A9FB00712A463846FEF7BAF96421B0FBA7
:101E6000F1F000EBC00101EB0010AAEB8000322181
:101E700001EB00106421B0FBF1F000F0F00A042047
:101E80006168A0FB015003461920A9FB00712A4696
:101E90003846FEF79DF96421B0FBF1F00AEB001A19
:101EA00004206168A0FB01510B461920A9FB0071B9
:101EB0002A463846FEF78CF9074604206168A0FBE5
:101EC000015003461920A9FB00B12A465846FEF7E7
:101ED0007FF96421B0FBF1F000EBC00101EB0010D1
:101EE000A7EB8000322101EB00106421B0FBF1F080
:101EF00000F00F005044216888606BE0FFF70CFA97
:101F0000814604206168A0FB015003461920A9FB0B
:101F100000712A463846FEF75BF982460420616864
:101F2000A0FB015003461920A9FB00712A46384640
:101F3000FEF74EF96421B0FBF1F000EBC00101EBBC
:101F40000010AAEB8000322101EB00106421B0FBED
:101F5000F1F000F0F00A04206168A0FB0150034694
:101F60001920A9FB00712A463846FEF731F9642191
:101F7000B0FBF1F00AEB001A04206168A0FB0170CD
:101F800003461920A9FB005001463A462846FEF7B1
:101F90001FF9074604206168A0FB01500346192081
:101FA000A9FB00B12A465846FEF712F96421B0FB9E
:101FB000F1F000EBC00101EB0010A7EB8000322133
:101FC00001EB00106421B0FBF1F000F00F00504471
:101FD00021688860BDE8F88F0010014000140140BE
:101FE00000BFFEE702480068C0F30220704700000F
:101FF0000CED00E010B5002804DB0A07130E054ABB
:10200000135406E00A07140E034A00F00F031B1FC7
:10201000D45410BD00E400E018ED00E002E008C870
:10202000121F08C1002AFAD170477047002001E052
:1020300001C1121F002AFBD170470000FEF7D6FF36
:10204000FFF772FDFFF71EFDFFF700FDFFF7BAFC7B
:10205000FFF744FD042203490348FEF73FFC00BF9D
:10206000FEE70000100000202000002000061016EF
:10207000000610160000000000000000010203042A
:10208000060708090000000001020304AC20000854
:1020900000000020100000001C200008BC200008E8
:1020A00010000020F80400002C20000800000000B0
:0C20B00010000000010000000024F400FB
:040000050800019955
:00000001FF
