:020000040800F2
:10000000F8040020AD010008431300083112000875
:1000100041130008E103000811150008000000006A
:10002000000000000000000000000000471300086E
:100030006D04000800000000451300084913000883
:10004000C7010008C7010008C7010008C701000870
:10005000C7010008C7010008C7010008C701000860
:10006000C7010008C7010008C7010008C701000850
:10007000C7010008C7010008C7010008C701000840
:10008000C7010008C7010008C70100080000000000
:10009000000000000000000000000000C701000890
:1000A000C7010008C7010008C7010008C701000810
:1000B000C7010008C7010008C7010008C701000800
:1000C000C7010008C7010008C7010008C7010008F0
:1000D000C7010008C7010008C701000800000000B0
:1000E000C7010008C7010008C701000800000000A0
:1000F000000000000000000000000000C701000830
:1001000000000000C7010008C7010008C70100087F
:1001100000000000000000000000000000000000DF
:10012000E5030008C7010008C7010008C70100086F
:10013000C7010008000000000000000000000000EF
:10014000000000000000000000000000C7010008DF
:10015000C7010008C7010008C7010008C70100085F
:10016000C7010008C70100080000000000000000EF
:10017000000000000000000000000000000000007F
:1001800000000000C701000800000000000000009F
:10019000C7010008C7010008DFF80CD000F07AF8AA
:1001A0000048004751150008F80400200648804721
:1001B00006480047FEE7FEE7FEE7FEE7FEE7FEE74C
:1001C000FEE7FEE7FEE7FEE7CD1300089901000811
:1001D0002DE9F05F0546002092469B46884606467C
:1001E000814640241BE0284641464746224600F00F
:1001F00041F853465A46C01A914110D31146184649
:10020000224600F028F82D1A67EB01084F462246D7
:100210000120002100F01FF817EB00094E41201EBD
:10022000A4F10104DFDC484631462A464346BDE8D6
:10023000F09FD2B201E000F8012B491EFBD27047BB
:100240000022F6E710B513460A4604461946FFF7A2
:10025000F0FF204610BD202A04DB203A00FA02F10C
:10026000002070479140C2F1200320FA03F31943A4
:1002700090407047202A04DB203A21FA02F0002146
:10028000704721FA02F3D040C2F1200291400843A6
:1002900019467047064C074D06E0E06840F0010340
:1002A00094E8070098471034AC42F6D3FFF778FF84
:1002B0008C150008AC150008464910B54A6822F4B0
:1002C00040324A604A6843681A434A6001684A6893
:1002D00022F480724A6001684A68036942EA032294
:1002E0004A6001684A6822F040724A6001684A68C0
:1002F00083681A434A6001688A6822F400628A604F
:1003000001688A68C3681A438A60816A6FF0706204
:10031000D14201688A6822F070628A6001688A6846
:100320000CD0836A1A438A6001688A6822F04052BE
:100330008A6001688A68C36A1A4301E022F0405269
:100340008A6001688A6822F002028A6001688A680D
:10035000037E42EA43028A6090F820100029016877
:100360004A680FD042F400624A6001684A6822F489
:1003700060424A6001684A68174C436A04EB4333A1
:100380001A4301E022F400624A600168CA6A22F45A
:100390007002CA620168CA6A838B104C04EB035373
:1003A0001A43CA6201688A6822F400728A6001688E
:1003B0008A6890F8303042EA43228A6001688A688D
:1003C00022F480628A6001688A68406942EA80207B
:1003D000886010BD0023014000E0FFFF0000F0FF37
:1003E000FEE70000014800F06BB900005800002053
:1003F00001681823CAB2103AB2FBF3F2054B6FF34F
:100400000901032A9B5CC36500D9091D8165084663
:10041000704700006A15000810B5014600208B697E
:100420008A6A4FF0C07453B1B3F5005F15D072B152
:10043000012A0CD0022A0AD0032A09D104E01AB1F9
:10044000012A06D0022A03D1C96AC90100D50120B8
:1004500010BDC96AA142FAD010BD002AF7D0012A06
:10046000F2D0022AF3D0032AF3D010BD70477047B0
:1004700078B50024009490F83C20012A19D001227C
:1004800080F83C200A6807230568092A13D9EE681A
:100490000A3A02EB420293409E43EE600B788A6870
:1004A0000A3B03EB43039A400368DD682A43DA60A2
:1004B00010E0022078BD2E6902EB420293409E4379
:1004C0002E610B788A6803EB43039A4003681D6929
:1004D0002A431A614A681F23072A13D205686E6BE4
:1004E000521E02EB820293409E436E630A8893B2CF
:1004F0000A79521E02EB820293400268556B2B432D
:10050000536327E005680D2A12D22E6BD21F02EB2F
:10051000820293409E432E630B790A88DB1F92B2BE
:1005200003EB83039A4003681D6B2A431A6311E0AF
:10053000EE6A0D3A02EB820293409E43EE620B7923
:100540000A880D3B92B203EB83039A400368DD6A8D
:100550002A43DA621B4B0568194A9D420AD10D688D
:10056000122D07D1556825F400055560556845F4EE
:100570008005556005689D421DD1134D0B68AB4247
:1005800001D0112B17D1536823F4800353605368B3
:1005900043F4000353600968A9420CD10B490C4A8B
:1005A0000968B1FBF2F101EB8101490000E0491E4D
:1005B00000910029FBD180F83C40002078BD00006C
:1005C0000023014000200140120000100C00002018
:1005D00040420F0070B504004FF0000503D0206CBE
:1005E000002610B107E0012070BD204600F01CF885
:1005F000666484F83C60206CC00610D4206C20F443
:10060000885040F0020020642046FFF755FE6664E3
:10061000206C20F0020040F00100206400E0012581
:1006200084F83C60284670BD70B586B0064614213B
:100630006846FFF705FE1D493068884233D11C48E3
:100640000025016841F480710160006800F4807049
:10065000059017481438016841F0020101600068F4
:10066000694600F00200059003200090CDE90105E5
:10067000104800F05FF9114C0F48C4E9000500155F
:10068000A560C4E90350800060618000A061801112
:10069000C4E907052046656200F0E2F808B1FFF7FB
:1006A000E6FEB463A66306B070BD00000020014002
:1006B0004438024000040240106402405800002008
:1006C0002DE9F84304464FF00009CDF80090634847
:1006D0004FF41651A56D0068B0FBF1F72E6894F841
:1006E0005C10082000FA01F131420FD021680A683D
:1006F00052070BD50A6822F004020A6094F85C10D5
:100700008840A860606D40F00100606594F85C105E
:100710004FF0010808FA01F0304208D02168496919
:10072000090604D5A860606D40F00200606594F889
:100730005C1004208840304208D02168096889078D
:1007400004D5A860606D40F00400606594F85C100A
:1007500010208840304218D021680968090714D554
:10076000A86020680168490304D50068000308D523
:10077000A16C07E00168C90503D4016821F00801F4
:100780000160216C09B12046884794F85C10202054
:100790008840304231D021680968C9062DD5A8604B
:1007A00094F8350005282068016806D0490347D52C
:1007B000006800031DD4616C1CE021F0160101608B
:1007C0002068416921F080014161206C08B9A06C6A
:1007D00020B12068016821F00801016094F85C10E4
:1007E0003F208840A86084F8349084F83580216DDB
:1007F0001FE0E16B09B120468847606D00282BD0CF
:10080000606DC00714D0052084F8350020680168A9
:1008100021F0010101600098401C0090B84203D80B
:1008200020680068C007F6D184F8349084F83580D9
:10083000E16C002910D001B02046BDE8F043084724
:100840000168C905D5D4016821F01001016084F860
:10085000349084F83580CCE7BDE8F8830C000020A4
:100860002DE9F041044600F02FF906465CB1002561
:1008700084F83450022084F835002068016821F0A3
:10088000010101600DE00120BDE8F08100F01CF9DC
:10089000801B052805D920206065032084F83500D9
:1008A000F2E720680068C007F0D12268116820488C
:1008B0000140D4E901031843D4E903363343184314
:1008C00063691843A3691843E3691843236A18430B
:1008D0000843616A042903D1D4E90B13194308437F
:1008E000106020684069666A20F0070130460E43B8
:1008F000012704280CD1A06A0643E06A40B12046D3
:10090000FFF78AFD20B14020606584F83570BAE7B2
:10091000206846612046FFF76BFD94F85C203F217C
:1009200091408160656584F835700020ACE7000077
:100930003F8010F02DE9F84F00224FF00108032509
:100940004FF00F0E0B6808FA02F42340A34271D156
:100950004E68012E05D0022E03D0112E01D0122E8A
:1009600015D18668570005FA07FC26EA0C06D1F86F
:100970000CC00CFA07FC4CEA060CC0F808C046682C
:10098000A6430C79C4F30014944034434460C66811
:10099000570005FA07FC8C6826EA0C06BC40344375
:1009A000C4604C68022C01D0122C13D1D40800EB87
:1009B0008404A346D4F8209054074FEAD46A0EFA70
:1009C0000AF629EA06090E6906FA0AF646EA09064F
:1009D000CBF8206004680E7924EA0C0406F00306C4
:1009E000BE40264306604C68E40056D52E4C26686F
:1009F00046F480462660246822F0030604F480440E
:100A000000942A4C3444A446D4F808489607370F7B
:100A10000EFA07F6B443264EB04201D1002615E087
:100A2000244EB04201D1012610E0234EB04202D143
:100A300002260BE031E0214EB04201D1032605E051
:100A40001F4EB04201D1042600E00726BE402643D7
:100A5000CCF808681B4E34684F689C43FF0300D5F0
:100A60001C433460174E361D34684F689C43BF03E7
:100A700000D51C433460134E083634684F689C43DD
:100A8000FF0200D51C4334600E4E0C3634684F68AC
:100A90009C43BF0200D51C433460521C102AFFF453
:100AA00051AFBDE8F88F00004438024000300140EB
:100AB000000002400004024000080240000C024016
:100AC00000100240003C014001488068704700006F
:100AD000000000200248816802781144816070475C
:100AE000000000200B4810B5016841F4007101605E
:100AF000016841F480610160016841F48071016026
:100B0000032000F071F8002000F006F800F024F84F
:100B1000002010BD003C024070B50D4D04464FF45E
:100B20007A712878B1FBF0F00A490968B1FBF0F05E
:100B300000F004FB48B9102C07D200222146501EB9
:100B400000F032F800206C6070BD012070BD000024
:100B5000000000200C0000200B4882B0016841F426
:100B600080410160006800F4804000900648001F4A
:100B7000016841F080510160006800F080500090F1
:100B8000052002B000F030B844380240002809DBEC
:100B900000F01F02012191404009800000F1E02097
:100BA000C0F8001170470000F0B40E4B1B680C46F3
:100BB000C3F30223C3F10705042D00D90425191D31
:100BC000072901D2002300E0DB1E012606FA05F109
:100BD000491E214099409E40761E16403143F0BC8C
:100BE00000F097BC0CED00E0064900F00702086831
:100BF0004FF6FF03184040EA0220034A1043086002
:100C0000704700000CED00E00000FA052DE9F04708
:100C10000E46050065D0DFF81481D8F80000F7B261
:100C200000F00F00B04207D288F80070D8F800003A
:100C300000F00F00B04254D128683D4C810712D516
:100C4000400703D5206840F4E05020602878000772
:100C500003D5206840F4604020602068A96820F037
:100C6000F000084320602878C0072DD0304968681C
:100C70000839012812D0022813D0032811D009689E
:100C8000890700292DDA216821F003010143216041
:100C9000FFF71AFF814641F2883A0EE0096889039E
:100CA000EFE709688901ECE7FFF70EFFA0EB090108
:100CB000514502D90320BDE8F0872068696800F03B
:100CC0000C00B0EB810FEFD1D8F80010404601F0D6
:100CD0000F01B14207D90770006800F00F00B04261
:100CE00001D00120E7E72878400705D52068E968AA
:100CF00020F4E050084320602878000706D52068DB
:100D0000296920F4604040EAC100206000F038F812
:100D10002168084AC1F30311515CC84006490860C4
:100D200006480068FFF7F8FE0020C4E7003C0240D8
:100D300008380240721500080C0000200400002052
:100D40000448054900680968044AC1F38221515CDE
:100D5000C84070470C000020083802408215000887
:100D60000448054900680968044AC1F34231515CEE
:100D7000C84070470C000020083802408215000867
:100D8000154810B5006810F00C02144813D041103B
:100D9000042A0FD0082A0ED10F4C241F2268236882
:100DA00002F03F025B0207D52068C0F38810A0FB69
:100DB000010106E0084610BD2168C1F38811A1FBBE
:100DC00000010023FFF704FA2168C1F30141491C27
:100DD0004900B0FBF1F010BD083802400024F400D7
:100DE0002DE9F84F040076D02078DFF838A3CE4DF7
:100DF000C00749D0DAF800105046C1F3810101293B
:100E000008D00068C0F3810002280AD1281D0068BC
:100E1000400206D52868800336D560680028E2D0F5
:100E200032E06068B0F5803F10D0B0F5A02F2868A0
:100E300010D020F480302860286820F480202860BA
:100E40006068A0B1FFF740FE06460CE0286840F459
:100E50008030F4E740F480202860F7E7FFF734FEA5
:100E6000801B642873D828688003F7D50CE0FFF74F
:100E70002BFE064605E000BFFFF726FE801B642818
:100E8000F0D828688003F7D42078DFF8A0828007A4
:100E90004FF000093ED5DAF80010504611F00C0F63
:100EA00009D00068C0F3810002280BD19D48001FC3
:100EB0000068400206D42868800715D5E06801283C
:100EC00009D111E0E068B8B10120C8F80000FFF7CF
:100ED000FBFD064605E020E1FFF7F6FD801B02283A
:100EE000C0D828688007F7D52868216920F0F80065
:100EF00040EAC10028600DE0C8F80090FFF7E4FD6B
:100F0000064604E0FFF7E0FD801B02281FD8286892
:100F10008007F7D42078000722D5824E8448616983
:100F20006C3671B101210160FFF7CEFD074604E088
:100F3000FFF7CAFDC01B022809D830688007F7D523
:100F40000EE0C0F80090FFF7BFFD074605E082E025
:100F5000FFF7BAFDC01B02287DD830688007F7D4A0
:100F60002078400768D5DFF8BCB100270BF1380BBB
:100F7000DBF80000C0000BD4DBF8001041F080511A
:100F8000CBF80010DBF80000012700F08050009043
:100F9000684E3068C00510D4306840F4807030600E
:100FA000FFF792FD009005E0FFF78EFD0099401AD3
:100FB000022850D83068C005F6D55A4EA068683669
:100FC00001280FD00528306810D020F001003060D3
:100FD000306820F004003060A068B8B1FFF774FDFD
:100FE00000900FE0306840F00100F4E740F00400AA
:100FF0003060F7E7FFF768FD0099411A41F2883049
:10100000814266D830688007F4D50EE0FFF75CFDBA
:10101000009007E0FFF758FD0099411A41F288302F
:10102000814256D830688007F4D42FB1DBF8001025
:1010300021F08051CBF80010A069D0B3DAF800207D
:101040005146C2F38102022A4AD00228484607D0FC
:10105000C8F8600000E03CE0FFF736FD04463BE0E6
:101060004746C8F86000FFF72FFD064605E000BFC1
:10107000FFF72AFD801B02282BD828688001F7D4AF
:10108000D4E907010843A16A2B4A490802EB014150
:10109000626A41EA8211084394F82C1040EA016127
:1010A0002048001F016001203866FFF70DFD04464F
:1010B00005E034E0FFF708FD001B022809D8286886
:1010C0008001F7D52BE000BFFFF7FEFC001B0228D4
:1010D00002D90320BDE8F88F28688001F4D41EE00F
:1010E0000128F7D00868E26900F48001914214D128
:1010F000226A00F03F0191420FD147F6C071626A47
:101100000140914209D1A26A00F44031914204D1D8
:10111000E16A00F07060884201D00120DAE7002027
:10112000D8E700000838024000380240000047427B
:10113000800E4742007000400000FFFF10B5401EC7
:10114000B0F1807F01D3012010BD4FF0E024606139
:101150000F21601700F0DDF90020A0610720206159
:10116000002010BD70B5040004D094F839000025AB
:1011700010B106E0012070BD84F83850204600F020
:1011800023F8242084F839002068C16821F4005134
:10119000C160204600F028F92068016921F49041DF
:1011A00001612068416921F02A0141612068C1681C
:1011B00041F40051C160E563202084F8390084F8CF
:1011C0003A00002070BD000010B586B0044614211E
:1011D0006846FFF735F813492068884220D1124845
:1011E0000021026842F400320260006800F400301E
:1011F00005900D481038026842F001020260006854
:1012000000F0010005900C2000900220CDE90101C2
:10121000032003900720049069460448FFF78AFBE7
:1012200006B010BD004400404038024000000240BB
:10123000FEE700007FB500211B480091019102915B
:10124000184A0391026001244FF480320461C0E91E
:101250000121017680F82010144AC0E90A210225F4
:10126000C561C16080F830104461FFF7B3F908B17F
:10127000FFF7FDF80820CDE9000469460A4802940A
:10128000FFF7F6F808B1FFF7F2F80920CDE90005FD
:1012900069460548FFF7ECF8002801D0FFF7E7F8AA
:1012A0007FBD000000200140100000200100000F61
:1012B000094808B5016841F4800101600068002216
:1012C00000F48000009001213820FFF76DFCBDE89C
:1012D00008403820FFF75ABC30380240094808B5AA
:1012E000016841F001010160016801F00101009114
:1012F000016841F002010160006800F00200009006
:1013000008BD0000303802400C4810B50A490160A1
:101310004FF4E1314160002181600C22C160C0E9DD
:1013200004128161C161FFF71DFF002803D0BDE8F1
:101330001040FFF79CB810BD00440040B8000020EA
:10134000FEE7704770477047FFF7C4BB30B593B0F6
:1013500030216846FEF774FF14210CA8FEF770FFD9
:1013600018480025016841F080510160006800F0D4
:10137000805011901448016841F4404101600068B8
:10138000022400F4404011900120039010200490AA
:10139000009406940820CDE907506420CDE90904A3
:1013A00004200B906846FFF71BFD0CA90F2081E875
:1013B0003100E002CDE90F0503210CA8FFF726FC60
:1013C00013B030BD4038024000700040054801684D
:1013D00041F47001016003494FF0006080390860FA
:1013E0007047000088ED00E02DE9F04104460068F8
:1013F0000169E26821F44051114301612169A0684B
:10140000E26908436169114308432168CA6849F2E7
:101410000C639A430243CA6020684169A26921F4BF
:10142000407111434161E069192764253226B0F506
:10143000004F354A354920684FF0000806D08842F1
:1014400001D0904236D1FFF78BFC35E0884201D0C5
:10145000904202D1FFF784FC01E0FFF771FC616864
:101460004A18A0FB070148EB0803FEF7B1FE01464E
:10147000B0FBF5F00201B1FBF5F06FF01803584333
:1014800001EB800006EBC000B0FBF5F000F0F800C7
:1014900002EB4002B1FBF5F0584301EB800006EB94
:1014A000C000B0FBF5F000F0070021681044886030
:1014B000BDE8F081FFF744FC61688B0F8A00A0FB58
:1014C0000701FEF785FE0146B0FBF5F06FF018024C
:1014D000504301EB800006EB0010B0FBF5F000F08C
:1014E000F002B1FBF5F002EB0012B1FBF5F06FF08A
:1014F0001803584301EB800006EB0010B0FBF5F039
:1015000000F00F00D1E7000000140140001001407E
:10151000FEE70907090E002804DB00F1E02080F84F
:101520000014704700F00F0000F1E02080F8141D57
:10153000704702E008C8121F08C1002AFAD170479C
:101540007047002001E001C1121F002AFBD1704743
:10155000FFF7C8FAFFF7FAFEFFF7C0FEFFF7A8FE95
:10156000FFF768FEFFF7D0FEFEE700061016000644
:10157000101600000000000000000102030406072E
:10158000080900000000010203040000AC15000877
:10159000000000201000000032150008BC150008F3
:1015A00010000020E80400004215000801000000BF
:0C15B00010000000000000000024F40007
:040000050800019955
:00000001FF
