:020000040800F2
:1000000060050020AD01000831220008B920000879
:100010002D220008310A00086527000800000000B2
:100020000000000000000000000000003522000871
:100030004F0B0008000000003322000837220008A0
:10004000C7010008C7010008C7010008C701000870
:10005000C7010008C7010008C7010008C701000860
:10006000C7010008C7010008C7010008C701000850
:10007000C7010008C7010008C7010008C701000840
:10008000C7010008C7010008C70100080000000000
:10009000000000000000000000000000C701000890
:1000A000C7010008C7010008C7010008C701000810
:1000B000C7010008C7010008C7010008C701000800
:1000C000C7010008C7010008C7010008C7010008F0
:1000D000C7010008C7010008C701000800000000B0
:1000E000C7010008C7010008C701000800000000A0
:1000F000000000000000000000000000C701000830
:1001000000000000C7010008C7010008C70100087F
:1001100000000000000000000000000000000000DF
:10012000350A0008C7010008C7010008C701000818
:10013000C7010008000000000000000000000000EF
:10014000000000000000000000000000C7010008DF
:10015000C7010008C7010008C7010008C70100085F
:10016000C7010008C70100080000000000000000EF
:10017000000000000000000000000000000000007F
:1001800000000000C701000800000000000000009F
:10019000C7010008C7010008DFF80CD000F020FB01
:1001A00000480047D9310008600500200648804714
:1001B00006480047FEE7FEE7FEE7FEE7FEE7FEE74C
:1001C000FEE7FEE7FEE7FEE7F522000899010008DA
:1001D0002DE9F05F0546002092469B46884606467C
:1001E000814640241BE0284641464746224600F00F
:1001F0007BF953465A46C01A914110D3114618460E
:10020000224600F062F92D1A67EB01084F4622469C
:100210000120002100F059F917EB00094E41201E82
:10022000A4F10104DFDC484631462A464346BDE8D6
:10023000F09FD2B201E000F8012B491EFBD27047BB
:100240000022F6E710B513460A4604461946FFF7A2
:10025000F0FF204610BD421C10F8011B0029FBD105
:10026000801A70472DE9FE4F81EA030404F0004430
:1002700021F0004100944FF0000B23F0004350EABE
:1002800001045ED052EA03045BD0C3F30A54C1F305
:100290000A552C44A4F2F3340194A0FB0254C1F398
:1002A000130141F48011C3F3130343F4801301FBE2
:1002B000024400FB034E840A970A44EA815447EA49
:1002C0008357A4FB076802958D0A05FB07854FEA53
:1002D000932C04FB0C542705029D4FEA065847EA6D
:1002E0001637B5EB08056EEB070C870E920E47EA42
:1002F000811742EA8312A7FB0201B6EB0B0164EB04
:1003000000042B0D43EA0C335E1844EB1C50DA4614
:100310005146E7FB0201C5F313044FEA0B3343EAEE
:1003200014534FEA0432019C43EA0603A4F10C047F
:100330000294009CCDE900B400F02CF903B0BDE8B4
:10034000F08F00200146F9E72DE9F04D81EA030422
:1003500004F0004B21F0004514464FF0000A23F052
:10036000004150EA050220D054EA01021DD0C5F335
:100370000A570246C5F31303C1F31300C1F30A562B
:1003800040F4801543F48013A7EB0608101BD646F3
:1003900008F2FD3873EB050002D308F1010801E013
:1003A00092185B41B8F1000F03DA00200146BDE866
:1003B000F08D00204FF48011064684460EE0171B96
:1003C00073EB050705D3121B63EB050306434CEAE9
:1003D000010C49084FEA300092185B4150EA0107CE
:1003E000EDD152EA030012D082EA040083EA05014B
:1003F000084305D0101BAB4106D20122002306E0C2
:1004000000224FF0004302E06FF0010253101AEB9C
:1004100006004CEB085110EB0A0041EB0B01BDE864
:10042000F04D00F0A8B80EB540F233410291002122
:10043000CDE900110A460B4600F0ACF803B000BD50
:1004400000F0004230F000400AD0C10D01F56071AB
:10045000C0F3160042EA0151C20840071143704739
:1004600000200146704701F0004330B421F0004104
:1004700050EA010206D00A0DA2F56072C1F3130121
:10048000002A02DC30BC00207047440F44EAC1045B
:10049000C100E01830BC00EBC25000F035B830B5F8
:1004A0000B46014600202022012409E021FA02F532
:1004B0009D4205D303FA02F5491B04FA02F52844CC
:1004C000151EA2F10102F1DC30BD202A04DB203A26
:1004D00000FA02F1002070479140C2F1200320FA97
:1004E00003F3194390407047202A04DB203A21FA95
:1004F00002F00021704721FA02F3D040C2F120023D
:1005000091400843194670470029A8BF7047401C16
:10051000490008BF20F00100704710B4B0FA80FC19
:1005200000FA0CF050EA010404BF10BC704749B156
:10053000CCF1200421FA04F411FA0CF118BF0121C6
:1005400021430843A3EB0C01CB1D4FEA00614FEAA6
:10055000102042BF002010BC704700EBC350104475
:100560000029A4BF10BC7047401C490008BF20F000
:10057000010010BC704710B5141E73F1000408DAB6
:10058000401C41F1000192185B411A4301D120F057
:10059000010010BD2DE9F04D92469B4611B1B1FA14
:1005A00081F202E0B0FA80F220329046FFF78DFF30
:1005B00004460F4640EA0A0041EA0B0153465A46F8
:1005C000084313D0114653EA010019D0C8F1400284
:1005D0005046FFF789FF05460E46504659464246AB
:1005E000FFF773FF084305D0012004E02046394699
:1005F000BDE8F08D0020054346EAE0762C43374302
:100600000A986305E40AA0EB08000022FD0A44EA08
:1006100047540A3002D500200146E9E701051019C8
:100620006941DDE9084500196941BDE8F04DA2E7DF
:100630002DE9FE4F804681EA0300C00F0C46009072
:1006400021F0004123F00045B8EB0200A94105D29A
:100650004046214690461C460B46024623F0004089
:10066000104347D0270DC7F30A00C3F30A51029085
:10067000401A019040286BDAC3F3130040F4801B4A
:100680000098924620B10023D2EB030A63EB0B0BD8
:1006900001985946C0F140025046FFF716FF064642
:1006A0000D4650465946019A00F0ACF810EB080090
:1006B0006141002487EA115284EAE7731A4340D06B
:1006C000009A62B3019A012A4FEA075215DC001B17
:1006D00061EB02014FF0004202EA0752CDE900420D
:1006E000001C41F5801132462B46FFF753FF03B043
:1006F000BDE8F08F40462146F9E7001B61EB02019F
:10070000001C41F5801300185B412018A2F500176A
:1007100047EB030140EAD570B6196D4111E06D0851
:100720004FEA360645EAC0754FEA0752001B61EBF7
:100730000201001C41F5801149084FEA3000001900
:10074000514132462B4603B0BDE8F04FFFF713BFCF
:100750000098012240000023D0EB020263EBE0731B
:10076000009821464FEAE074B8EB000061EB040109
:10077000E9E783F000435BE781F0004158E7C1F30C
:100780000A52C1F3130140F2FF3341F480119A423F
:1007900002DA00200146704740F233439A42A2F247
:1007A000334202DC5242FFF79FBEFFF78EBE0000CD
:1007B00030B5041E71F1000404DB4FF000444042E8
:1007C00064EB0101141E73F1000405DB1C464FF0BD
:1007D0000043524263EB0403994208BF904230BD8C
:1007E000064C074D06E0E06840F0010394E807007E
:1007F00098471034AC42F6D3FFF7D2FC4C320008D5
:100800006C320008202A06DBCB17203A41FA02F0AE
:1008100043EAE07306E041FA02F3D040C2F120025D
:10082000914008431946704770B50546AC6B206C83
:1008300000F0500050BB206C40F400702064206831
:10084000806800F04050E8B9207ED8B92068C06ABE
:1008500000F4700020B12068806800F4806088B9DE
:100860002068406820F0200021684860206C20F457
:1008700080702064206C00F4805018B9206C40F027
:1008800001002064204600F037FA0BE0206C00F0F5
:10089000100018B1204600F05BFA03E0A06BC16CB9
:1008A0002846884770BD70B50546AC6B4020206473
:1008B000606C40F004006064204600F049FA70BDAE
:1008C00070B50446A56B284600F02CFA70BD0000F8
:1008D00055494A6822F440324A604A6843681A43DC
:1008E0004A600268526822F4807203685A600268A3
:1008F0005368026943EA022203685A600268526838
:1009000022F0407203685A600268526883681A4392
:1009100003685A600268926822F4006203689A6071
:1009200002689268C3681A4303689A603F4B826A00
:100930009A4218D00268926822F0706203689A6046
:1009400002689268836A1A4303689A600268926830
:1009500022F0405203689A6002689268C36A1A43A0
:1009600003689A600BE00268926822F07062036884
:100970009A600268926822F0405203689A600268A6
:10098000926822F0020203689A6002689368027E0D
:1009900043EA420203689A602022125CA2B1026814
:1009A000526842F4006203685A600268526822F496
:1009B000604203685A6002685368426A521E43EA02
:1009C000423203685A6005E00268526822F400620D
:1009D00003685A600268D26A22F470020368DA621D
:1009E0000268D36A828B521E43EA02520368DA62BB
:1009F0000268926822F4007203689A600268936841
:100A000090F8302043EA422203689A6002689268B4
:100A100022F4806203689A6002689368426943EA3C
:100A2000822203689A607047002301400100000F92
:100A300000BFFEE710B5024800F0EAFA10BD000062
:100A4000C00000200146087810381823B0FBF3F2EC
:100A50000848805CC865032A05D908686FF3090057
:100A6000001D886503E008686FF309008865886DDC
:100A7000704700002C320008014600208A6A8B690A
:100A8000CBB932B1012A0DD0022A03D0032A10D1EA
:100A90000EE000BFCB6A03F08073B3F1807F00D11A
:100AA000012007E0CB6AB3F1C07F00D1012001E053
:100AB00000E000BF34E08B69B3F5005F1AD132B1BA
:100AC000012A07D0022A03D0032A11D10AE000BF6D
:100AD00001200EE0CB6A03F08073B3F1807F00D178
:100AE000012006E0CB6AB3F1C07F00D1012000E015
:100AF00000BF15E032B1012A05D0022A04D0032A32
:100B00000CD103E000BF00BF012008E0CB6A03F076
:100B10008073B3F1807F00D1012000E000BF00BFEF
:100B2000704730B50468246824F4802405682C607C
:100B3000046863608468402C04D10468A26004687F
:100B4000E16003E00468A1600468E26030BD7047C2
:100B50007047000038B502460020009000BF92F8B0
:100B60003C00012801D1022038BD012082F83C0060
:100B700000BF0868092816D91068C0680C780A3CBC
:100B800004EB44050724AC40A0431468E0600C78F3
:100B90000A3C04EB44048868A0401468E4682043DD
:100BA0001468E06013E0106800690C7804EB4405F9
:100BB0000724AC40A043146820610C7804EB440483
:100BC0008868A0401468246920431468206148683C
:100BD000072817D21068406B0C79641E04EB84055B
:100BE0001F24AC40A04314686063088880B20C796D
:100BF000641E04EB8404A0401468646B20431468F2
:100C0000606331E048680D2817D21068006B0C79DA
:100C1000E41F04EB84051F24AC40A0431468206348
:100C2000088880B20C79E41F04EB8404A0401468A7
:100C3000246B20431468206316E01068C06A0C79A6
:100C40000D3C04EB84051F24AC40A0431468E06213
:100C5000088880B20C790D3C04EB8404A040146831
:100C6000E46A20431468E0621E4B1F4C1068A042E7
:100C70000AD10868122807D1586820F4000058608B
:100C8000586840F480005860174C1068A04222D188
:100C9000164C0868A04202D0086811281BD1586879
:100CA00020F480005860586840F4000058600F4CF1
:100CB0000868A0420FD10E4800680E4CB0FBF4F05B
:100CC00000EB80004000009002E00098401E009081
:100CD00000980028F9D100BF002082F83C0000BF36
:100CE00000BF41E700230140002001401200001036
:100CF0001000002040420F0010B5044600222021C1
:100D0000064800F06BFC2021044800F05FFC08B1AD
:100D1000012000E000200249087010BD00000240E0
:100D20000000002010B5044601222021064800F0F2
:100D300055FC2021044800F049FC08B1012000E0E6
:100D400000200249087010BD000002400000002091
:100D50007047000070B5044600250CB9012070BD35
:100D60001549A06A884200D000BF206C30B92046E7
:100D700000F024F80020606484F83C00206C00F04F
:100D8000100088B9206C20F4885040F002002064E4
:100D90002046FFF79DFD00206064206C20F00200DB
:100DA00040F00100206400E0012500BF002084F82D
:100DB0003C0000BF2846D2E70100000F10B586B006
:100DC0000446142101A8FFF73BFA384920688842FD
:100DD00069D100BF002000903548006840F4807061
:100DE000334908600846006800F48070009000BF36
:100DF00000BF00BF002000902D481438006840F06C
:100E000001002B49143908600846006800F0010011
:100E1000009000BF00BF00BF00200090084600689F
:100E200040F0020008600846006800F002000090F0
:100E300000BF00BF1020019003200290002003900B
:100E400001A91C4800F0D8FA01200190032002906B
:100E50000020039001A9184800F0CEFA174818495D
:100E6000086000204860002115488160C1604FF48F
:100E70008061016189004161890081618911C161DD
:100E80000021016204214162032181620021C162CB
:100E9000016300F0DDF908B1FFF75AFE00BF084812
:100EA000A063846300BF06B010BD000000200140B5
:100EB0004438024000000240000402401064024036
:100EC000C0000020F8B504460D46164600200090EC
:100ED00000BF94F83C00012801D10220F8BD012098
:100EE00084F83C0000BF2068806800F00100A0B9D1
:100EF0002068806840F00100216888603D480068F3
:100F00003D49B0FBF1F000EB4000009002E000989A
:100F1000401E009000980028F9D12068806800F0F9
:100F20000100002864D0206C40F20161884340F445
:100F3000807020642068406800F4806028B1206CD4
:100F400020F4005040F480502064206C00F4805065
:100F5000B0F5805F04D1606C20F00600606401E0B1
:100F60000020606400BF002084F83C0000BF234FD5
:100F70002348A16BC8632348A16B08642248A16B76
:100F8000C8646FF02200216808602068406840F063
:100F90008060216848602068806840F48070216823
:100FA0008860226802F14C0133462A46A06B00F0AB
:100FB000C5F9786800F01F0058B92068806800F013
:100FC000405028B92068806840F0804021688860DF
:100FD0000EE00E49206888420AD12068806800F03F
:100FE000405028B92068806840F0804021688860BF
:100FF000002073E71000002040420F000023014052
:1010000029080008C1080008A708000800200140BE
:10101000F8B50446002000908C4800684FF4165143
:10102000B0FBF1F7A56D2E6894F85C10082088409D
:10103000304098B12068006800F0040070B120686A
:10104000006820F004002168086094F85C10082013
:101050008840A860606D40F00100606594F85C1005
:1010600001208840304068B12068406900F080006D
:1010700040B194F85C1001208840A860606D40F099
:101080000200606594F85C1004208840304068B12C
:101090002068006800F0020040B194F85C10042061
:1010A0008840A860606D40F00400606594F85C10B2
:1010B00010208840304078B32068006800F00800B5
:1010C00050B394F85C1010208840A8602068006835
:1010D00000F4802080B12068006800F4002028B966
:1010E000206CC8B12046216C884715E0A06C98B1EF
:1010F0002046A16C88470FE02068006800F48070EB
:1011000028B92068006820F0080021680860206C79
:1011100010B12046216C884794F85C10202088404C
:101120003040002865D02068006800F010000028DA
:101130005FD094F85C1020208840A86094F83500B7
:10114000052828D12068006820F016002168086072
:101150002068406920F0800021684861206C08B94F
:10116000A06C28B12068006820F0080021680860A1
:1011700094F85C103F208840A86000BF002084F8ED
:10118000340000BF012084F83500206D10B12046E6
:10119000216D8847F8BD2068006800F4802080B188
:1011A0002068006800F4002028B9606C10B1204667
:1011B000616C88471DE0E06BD8B12046E16B884741
:1011C00017E02068006800F4807068B92068006843
:1011D00020F010002168086000BF002084F834006F
:1011E00000BF012084F83500E06B10B12046E16BB0
:1011F0008847606D38B3606D00F00100F0B10520E4
:1012000084F835002068006820F00100216808603B
:1012100000BF0098401C0090B84200D905E020684B
:10122000006800F001000028F3D100BF00BF0020DB
:1012300084F8340000BF012084F83500E06C10B160
:101240002046E16C884700BFA4E7000010000020A2
:101250002DE9F0410446002500F0C6F9074614B90F
:101260000120BDE8F081606A00B100BF00BF00202E
:1012700084F8340000BF022084F83500206800683C
:1012800020F00100216808600AE000F0ADF9C01B01
:10129000052805D920206065032084F83500E0E7A3
:1012A0002068006800F001000028EED12068056881
:1012B00021480540D4E901010843E1680843216958
:1012C000084361690843A1690843E1690843216A49
:1012D00008430543606A042803D1D4E90B0108439D
:1012E0000543206805602068456925F00705606AA8
:1012F0000543606A04280DD1A06A0543E06A48B13D
:101300002046FFF7B9FB28B140206065012084F832
:101310003500A6E7206845612046FFF793FB0646A7
:1013200094F85C103F208840B06000206065012088
:1013300084F83500002094E73F8010F02DE9F04755
:1013400004460D4616461F464FF00008D4F8589044
:1013500000BF94F83400012802D10220BDE8F087D4
:10136000012084F8340000BF94F83500012825D10D
:10137000022084F83500002060653B46324629464D
:101380002046FFF7CEFB94F85C103F208840C9F858
:1013900008002068006840F0160021680860206C92
:1013A00028B12068006840F00800216808602068C3
:1013B000006840F001002168086006E000BF0020DE
:1013C00084F8340000BF4FF002084046C6E7000032
:1013D00070B5044600F008F906462546681C10B1B1
:1013E00004480078054400BF00F0FEF8801BA842C6
:1013F000FAD370BD0C000020F8B503460A4600255C
:10140000002400200021CDE0012606FA01F516682F
:1014100006EA0504AC4273D15668012E08D056681E
:10142000022E05D05668112E02D05668122E13D106
:1014300098684F000326BE40B0434F00D668BE40B8
:1014400030439860586801268E40B0431679C6F341
:1014500000168E4030435860D8684F000326BE40C7
:10146000B0434F009668BE403043D8605668022EA5
:1014700002D05668122E13D1CF0803F1200656F879
:1014800027004E07F70E0F26BE40B0434F07FF0E52
:101490001669BE403043CF0803F1200646F8270006
:1014A00018684F000326BE40B043167906F00306C5
:1014B0004F00BE4030431860566806F08056B6F1C3
:1014C000805F6ED100BF00260096384E366846F425
:1014D0008046364F3E603E46366806F480460096AB
:1014E00000BF00BF324E8F0856F827008E07370F17
:1014F0000F26BE40B0432F4EB34202D1002615E066
:101500004FE02D4EB34201D101260FE02B4EB342E6
:1015100001D102260AE02A4EB34201D1032605E09A
:10152000284EB34201D1042600E007268F073F0F63
:10153000BE4030431E4E8F0846F82700224E3068CA
:10154000A043566806F48036B6F5803F00D12043AC
:101550001D4E3060361D3068A043566806F40036D4
:10156000B6F5003F00D12043174E361D3060361DC2
:101570003068A043566806F48016B6F5801F00D187
:101580002043114E08363060361D3068A04356683F
:1015900006F40016B6F5001F00D120430A4E0C36A3
:1015A0003060491C1029FFF42FAFF8BD44380240C9
:1015B00008380140000002400004024000080240D8
:1015C000000C024000100240003C0140024613693A
:1015D0000B400BB1012000E0002070470AB181618F
:1015E00001E00B0483617047014800687047000008
:1015F00004000020034800680349097808440149B1
:1016000008607047040000200C00002010B50D4851
:10161000006840F400700B4908600846006840F418
:10162000806008600846006840F48070086003200D
:1016300000F0A6F8002000F007F800F02BF80020DA
:1016400010BD0000003C024070B504460E48007812
:101650004FF47A71B1FBF0F00C490968B1FBF0F579
:10166000284600F025FC08B1012070BD102C07D2DF
:1016700000222146501E00F045F80548046001E0B4
:101680000120F2E70020F0E70C000020100000200D
:101690000800002008B500BF002000901048006836
:1016A00040F480400E4908600846006800F480401D
:1016B000009000BF00BF00BF00200090081F00681E
:1016C00040F08050091F08600846006800F0805014
:1016D000009000BF00BF052000F052F808BD0000D8
:1016E0004438024001460846002809DB00F01F0389
:1016F00001229A4043099B0003F1E023C3F8002133
:1017000000BF70472DE9F05F80460D461646002762
:1017100001F03EF8074639462A46334601F00700F5
:10172000C0F1070ABAF1040F02D94FF0040A01E030
:10173000C0F1070AD14600F1040ABAF1070F02D23C
:101740004FF0000A01E0A0F1030AD4464FF0010A6D
:101750000AFA09FAAAF1010A0AEA020A0AFA0CFAD2
:101760004FF0010B0BFA0CFBABF1010B0BEA030B77
:101770004AEA0B042146404601F012F8BDE8F09F0A
:1017800000BF00F00702064B19684FF6FF0319402F
:10179000044B0B4343EA0221014B196000BF704721
:1017A0000CED00E00000FA0570B504460D460CB9DA
:1017B000012070BD5848006800F00F00A84209D20F
:1017C00055490D700846006800F00F00A84201D08E
:1017D0000120EEE7207800F0020002281DD12078D9
:1017E00000F00400042805D14C48006840F4E050A3
:1017F0004A490860207800F00800082805D14748C9
:10180000006840F46040454908604448006820F0A2
:10181000F000A168084341490860207800F0010009
:10182000A8B36068012807D13C4808380068C0F3B5
:101830004040B8B90120BCE76068022802D0606867
:10184000032807D1354808380068C0F3406048B91C
:101850000120AEE7314808380068C0F3400008B9FD
:101860000120A6E72D48006820F0030061680843C6
:101870002A490860FFF7B8FE064609E0FFF7B4FE04
:10188000801B41F28831884202D9032091E707E0AA
:101890002248006800F00C006168B0EB810FEDD1C8
:1018A0001D48006800F00F00A84209D91A490D70C0
:1018B0000846006800F00F00A84201D0012078E738
:1018C000207800F00400042807D11448006820F4B0
:1018D000E050E168084311490860207800F00800F2
:1018E000082808D10D48006820F46040216940EACA
:1018F000C1000A49086000F03FF808490968C1F3CF
:101900000311074A515CC840064908600648006850
:10191000FFF79AFE00204CE7003C024008380240E6
:101920003432000810000020080000200148006840
:10193000704700001000002000B5FFF7F7FF0449D2
:101940000968C1F38221034A515CC84000BD000010
:10195000083802404432000800B5FFF7E7FF0449A9
:101960000968C1F34231034A515CC84000BD000020
:1019700008380240443200082DE9F04700240025D1
:101980000026A1462548006800F00C0020B104287C
:1019900005D008283AD105E0DFF8849039E0DFF877
:1019A000849036E01D48001F006800F03F041B488B
:1019B000001F006800F4800078B11A481749091F19
:1019C0000968C1F38811A0FB01700146224600237B
:1019D0003846FEF7FDFB05460EE011480F49091F8A
:1019E0000968C1F38811A0FB01700146224600235B
:1019F0003846FEF7EDFB05460848001F0068C0F3B7
:101A00000140401C4600B5FBF6F902E0DFF81090FB
:101A100000BF00BF4846BDE8F0870000083802401C
:101A20000024F40000127A00F8B504460CB9012035
:101A3000F8BD207800F00100002874D0F948006853
:101A400000F00C0004280DD0F648006800F00C00EF
:101A5000082813D1F348001F006800F48000B0F597
:101A6000800F0BD1EF4808380068C0F340400028D1
:101A700059D06068002856D10120D9E700BF6068BE
:101A8000B0F5803F08D1E7480838006840F480305E
:101A9000E449083908601EE06068B0F5A02F0DD158
:101AA000E0480838006840F48020DE4908390860C2
:101AB0000846006840F4803008600CE0D9480838D7
:101AC000006820F48030D74908390860084600686B
:101AD00020F48020086000BF606890B1FFF784FDAB
:101AE000054606E0FFF780FD401B642801D903206E
:101AF0009EE7CC4808380068C0F340400028F1D089
:101B000011E0FFF771FD054606E0FFF76DFD401B94
:101B1000642801D903208BE7C24808380068C0F365
:101B200040400028F1D1207800F0020002285FD167
:101B3000BC48006800F00C0058B1BA48006800F0DA
:101B40000C0008281CD1B748001F006800F4800072
:101B5000B0B9B44808380068C0F3400020B1E0686C
:101B6000012801D0012063E7AE480838006820F062
:101B7000F800216940EAC100AA490839086037E045
:101B8000E06800B30120A8490860FFF72DFD054675
:101B900006E0FFF729FD401B022801D9032047E793
:101BA000A04808380068C0F340000028F1D09D48E4
:101BB0000838006820F0F800216940EAC10099491E
:101BC0000839086014E0002097490860FFF70CFD11
:101BD000054606E0FFF708FD401B022801D9032057
:101BE00026E7904808380068C0F340000028F1D18B
:101BF000207800F0080008282CD16069A8B10120E5
:101C00008A490860FFF7F0FC054606E0FFF7ECFCA8
:101C1000401B022801D903200AE782486C30006883
:101C2000C0F340000028F1D014E000207F49086094
:101C3000FFF7DAFC054606E0FFF7D6FC401B02285A
:101C400001D90320F4E677486C300068C0F3400007
:101C50000028F1D1207800F00400042870D100277A
:101C600070483830006800F0805090B900BF002004
:101C700000906C483830006840F080506949383135
:101C800008600846006800F08050009000BF00BF68
:101C900001276748006800F48070B0B964480068A4
:101CA00040F4807062490860FFF79EFC054606E03C
:101CB000FFF79AFC401B022801D90320B8E65C48D4
:101CC000006800F480700028F2D000BFA0680128EE
:101CD00008D154486830006840F00100514968312B
:101CE00008601DE0A06805280DD14E4868300068E6
:101CF00040F004004B49683108600846006840F035
:101D0000010008600CE047486830006820F00100DE
:101D10004449683108600846006820F00400086003
:101D200000BFA068A8B1FFF75FFC054609E0FFF718
:101D30005BFC401B41F28831884202D9032077E6E0
:101D400026E0384868300068C0F340000028EED034
:101D500013E0FFF749FC054608E0FFF745FC401B90
:101D600041F28831884201D9032061E62D4868306C
:101D70000068C0F340000028EFD1012F07D12948A7
:101D80003830006820F0805026493831086000BFA4
:101D9000A069002845D02348006800F00C000828FE
:101DA0005DD0A069022845D100201F490866FFF7D1
:101DB0001BFC054606E0FFF717FC401B022801D973
:101DC000032035E6174808380068C0F34060002853
:101DD000F1D1D4E907010843616A40EA8111012287
:101DE000A06AC2EB500041EA00412C20005D41EAAC
:101DF00000600C49091F086001200B490866FFF7C5
:101E0000F3FB054606E0FFF7EFFB401B022801D974
:101E100003200DE6034808380068C0F3406000283E
:101E2000F1D03FE00838024000004742800E4742B0
:101E30000070004000201C490866FFF7D5FB0546EE
:101E400006E0FFF7D1FB401B022801D90320EFE594
:101E500016480068C0F340600028F2D122E0A06973
:101E6000012800D1E4E511480830066806F4800135
:101E7000E069814214D106F03F01206A81420FD10E
:101E800047F6C0703040616A884209D106F440319B
:101E9000A06A814204D106F07061E06A814201D0FB
:101EA0000120C5E50020C3E500004742003802409C
:101EB00070B504462546681EB0F1807F01D301202D
:101EC0000FE0681E4FF0E02148610F214FF0FF3016
:101ED00000F066FC00204FF0E021886107200861D7
:101EE000002070BD10B504460CB9012010BDA069DA
:101EF00000B100E000BF94F8390028B9002084F850
:101F00003800204600F028F8242084F839002068A2
:101F1000C06820F400502168C860204600F0F8F93D
:101F20002068006920F490402168086120684069B9
:101F300020F02A00216848612068C06840F4005001
:101F40002168C8600020E063202084F8390084F80C
:101F50003A000020CAE7000010B586B004461421FC
:101F600001A8FEF76DF91B49206888422FD100BFF8
:101F7000002000901848006840F4003016490860BE
:101F80000846006800F40030009000BF00BF00BFAA
:101F90000020009010481038006840F001000E4901
:101FA000103908600846006800F00100009000BF8A
:101FB00000BF0C200190022002900020039003201B
:101FC00004900720059001A90448FFF715FA06B010
:101FD00010BD0000004400404038024000000240B4
:101FE0002DE9F84304460D4616461F464FF00009FA
:101FF00094F8390020285DD105B116B90120BDE85B
:10200000F88300BF94F83800012801D10220F6E7D8
:10201000012084F8380000BF0020E063212084F80C
:102020003900FFF7E1FA8146A684E68400BF00206C
:1020300084F8380000BF2BE0E08C401EE084A068EC
:10204000B0F5805F16D14B460022802120460097D4
:1020500000F052FB08B10320D1E7A846B8F8000011
:10206000C0F3080021684860206908B9AD1C0FE082
:102070006D1C0DE04B46002280212046009700F0A9
:102080003BFB08B10320BAE715F8010B2168486053
:10209000E08C0028D0D14B460022402120460097FA
:1020A00000F02AFB08B10320A9E7202084F83900BA
:1020B0000020A4E70220A2E700BFFEE71FB5002032
:1020C00000900190029003901B481C4908604FF457
:1020D000403048600021194881600121016101768A
:1020E000002180F82010C162154981620021C16081
:1020F0000221C161012180F830104161FEF72AFE02
:1021000008B1FEF725FD082000900120019007206E
:10211000029069460948FEF71DFD08B1FEF718FD5B
:10212000042000900220019069460448FEF712FD49
:1021300008B1FEF70DFD1FBD002001407800002012
:102140000100000F08B500BF002000900A48006899
:1021500040F48000084908600846006800F48000E8
:10216000009000BF00BF002211463820FFF7CAFAD6
:102170003820FFF7B7FA08BD3038024000B587B005
:10218000142102A8FEF75CF800BF00200190174858
:10219000006840F00100154908600846006800F03A
:1021A0000100019000BF00BF00BF00200190084661
:1021B000006840F0020008600846006800F0020075
:1021C000019000BF00BF002220210948FFF706FA56
:1021D000202002900120039000200490059002A985
:1021E0000348FFF709F907B000BD0000303802408E
:1021F0000000024010B50B480B4908604FF4165020
:102200004860002108488160C16001610C21416182
:1022100000218161C161FFF765FE08B1FEF798FCFE
:1022200010BD0000004400402001002000BFFEE778
:1022300070477047704710B5FFF7DCF910BD00001C
:1022400000B593B0302107A8FDF7FAFF142102A8CA
:10225000FDF7F6FF00BF002001902448006840F021
:102260008050224908600846006800F080500190C4
:1022700000BF00BF00BF002001901D48006840F46F
:1022800040401B4908600846006800F44040019047
:1022900000BF00BF0220079001200A9010200B9081
:1022A00002200D9000210E910A210F9160211091C2
:1022B000022111910421129107A8FFF7B5FB08B183
:1022C000FEF746FC0F20029002200390B0200490FD
:1022D0004FF48050059000200690002102A8FFF7DF
:1022E00063FA08B1FEF734FC13B000BD4038024079
:1022F000007000400548006840F470000349086021
:102300004FF00060014980390860704788ED00E0B7
:102310002DE9F84F04462068006920F44050E16838
:102320000843216808612169A0680843616908437E
:10233000E169084300902068C06849F20C61884355
:10234000009908432168C8602068406920F4407003
:10235000A169084321684861E069B0F5004F75D173
:10236000E3492068884203D0E249206888426FD15F
:10237000FFF7F2FA814602206168A0FB01510B468B
:102380001920A9FB00712A463846FDF721FF642178
:10239000B0FBF1F04FEA001A02206168A0FB015186
:1023A0000B461920A9FB00712A463846FDF710FF9D
:1023B000074602206168A0FB01510B461920A9FBCA
:1023C00000B12A465846FDF703FF6421B0FBF1F047
:1023D00000EBC00101EB0010A7EB8000322101EB04
:1023E000C0006421B0FBF1F000F0F8000AEB400AF5
:1023F00002206168A0FB01510B461920A9FB007166
:102400002A463846FDF7E4FE074602206168A0FB35
:1024100001510B461920A9FB00B12A465846FDF789
:10242000D7FE6421B0FBF1F000EBC00101EB00101E
:10243000A7EB8000322101EBC0006421B0FBF1F07A
:1024400000F007005044216888604FE16EE0FFE72C
:10245000FFF772FA814602206168A0FB01510B462A
:102460001920A9FB00712A463846FDF7B1FE642108
:10247000B0FBF1F04FEA001A02206168A0FB0151A5
:102480000B461920A9FB00712A463846FDF7A0FE2D
:10249000074602206168A0FB01510B461920A9FBE9
:1024A00000B12A465846FDF793FE6421B0FBF1F0D7
:1024B00000EBC00101EB0010A7EB8000322101EB23
:1024C000C0006421B0FBF1F000F0F8000AEB400A14
:1024D00002206168A0FB01510B461920A9FB007185
:1024E0002A463846FDF774FE074602206168A0FBC5
:1024F000015003461920A9FB00B12A465846FDF7B2
:1025000067FE6421B0FBF1F000EBC00101EB0010AD
:10251000A7EB8000322101EBC0006421B0FBF1F099
:1025200000F00700504421688860DFE070492068AF
:10253000884203D06F49206888426BD1FFF70CFABC
:10254000814604206168A0FB01510B461920A9FBBC
:1025500000712A463846FDF73BFE8246042061683A
:10256000A0FB01510B461920A9FB00712A463846F1
:10257000FDF72EFE6421B0FBF1F000EBC00101EB92
:102580000010AAEB8000322101EB00106421B0FBA7
:10259000F1F000F0F00A04206168A0FB015003464E
:1025A0001920A9FB00712A463846FDF711FE642167
:1025B000B0FBF1F00AEB001A04206168A0FB0151A6
:1025C0000B461920A9FB00712A463846FDF700FE8C
:1025D000074604206168A0FB015003461920A9FBAF
:1025E00000B12A465846FDF7F3FD6421B0FBF1F037
:1025F00000EBC00101EB0010A7EB8000322101EBE2
:1026000000106421B0FBF1F000F00F00504421688D
:1026100088606BE0FFF790F9814604206168A0FBB9
:10262000015003461920A9FB00712A463846FDF7E0
:10263000CFFD824604206168A0FB015003461920AB
:10264000A9FB00712A463846FDF7C2FD6421B0FBA4
:10265000F1F000EBC00101EB0010AAEB8000322189
:1026600001EB00106421B0FBF1F000F0F00A04204F
:102670006168A0FB015003461920A9FB00712A469E
:102680003846FDF7A5FD6421B0FBF1F00AEB001A16
:1026900004206168A0FB017003461920A9FB0050CB
:1026A00001463A462846FDF793FD07460420616837
:1026B000A0FB015003461920A9FB00B12A46584649
:1026C000FDF786FD6421B0FBF1F000EBC00101EBEA
:1026D0000010A7EB8000322101EB00106421B0FB59
:1026E000F1F000F00F00504421688860BDE8F88FD9
:1026F00000100140001401402DE9F04104460D4650
:1027000017469846069E21E0701CF8B12EB1FEF7E0
:102710006BFFA0EB0800B04218D92068C06820F415
:10272000D0702168C8602068406920F001002168ED
:102730004861202084F8390084F83A0000BF002066
:1027400084F8380000BF0320BDE8F08120680068ED
:102750002840A84201D1012000E00020B842D3D097
:102760000020F1E700BFFEE70FB4084B10B504A945
:1027700002AA039800F0FAF8044602A9002000F02B
:102780008CFC204610BC5DF814FB00009B30000858
:1027900002480068C0F30220704700000CED00E022
:1027A00010B5002804DB0A07130E054A135406E08F
:1027B0000A07140E034A00F00F031B1FD45410BD68
:1027C00000E400E018ED00E002E008C8121F08C1B4
:1027D000002AFAD170477047002001E001C1121FA2
:1027E000002AFBD1704700002DE9FF5F82B0002175
:1027F000DDE90430020DDDF840B0034318D044F6A3
:102800001050A2F2FF3242431514119801281FD034
:10281000A5EB0B00401C5FEA000A4FF000064E4F8C
:10282000DFF83891B046504615D5CAF1000413E0E0
:10283000119801244AA3012801D16FEA0B010298E3
:10284000119AC0E90031C0E9024206B0BDE8F09F2C
:10285000CBF10000DFE704460021404A491842EB73
:102860000450CDE9001012E0E00707D032463B46A5
:1028700040464946FDF7F6FC8046894632463B46CF
:1028800010461946FDF7EEFC06460F466410002C74
:10289000EAD1DDE90401DDE90023BAF1000F06DA2F
:1028A000FDF7E0FC42464B46FDF7DCFC05E0FDF79A
:1028B0004BFD42464B46FDF747FD04460E460022BF
:1028C000284BFDF775FF03D84FF0FF30014607E0B6
:1028D0000022254B20463146FDF7AAFEFDF74FFFAB
:1028E000102409E0002C0ADB0A220023FDF770FC0B
:1028F000039B30321A55641E50EA0102F2D1641C67
:10290000039AC4F111031444119A012A03D001223D
:1029100008430DD10AE0084304D000204FF0110B0A
:10292000119072E7A3EB0B056D1E0DE05B4504DD16
:102930004FF0000205F1010504E003DA4FF0000258
:10294000A5F10105002AECD002981199C0E90231E5
:10295000C0E9004579E70000000014400000F03FA6
:10296000300000000000F0430000E03F2DE9FF4F81
:1029700095B09B468946064600250FE2252877D16B
:1029800000242746F84A0121059400E0044316F884
:10299000013F203B01FA03F01042F7D130782A289A
:1029A00011D06FF02F033078A0F13002092A16D829
:1029B000059A44F0020402EB820203EB4202104447
:1029C000761C0590EFE759F8042B0592002A03DAEC
:1029D000504244F40054059044F00204761C3078D0
:1029E0002E2816D116F8010F44F004042A280DD021
:1029F0006FF02F023078A0F13003092B09D807EBD4
:102A0000870302EB4303C718761CF3E759F8047BEE
:102A1000761C30786C280FD006DC4C2817D068283C
:102A20000DD06A2814D104E0742810D07A280FD170
:102A30000DE044F400140AE044F4801401E044F48E
:102A400040147278824202D104F58014761C761C00
:102A5000307866280BD013DC582877D009DC0028A2
:102A600075D04528F6D04628F4D047281AD19DE1E4
:102A700018E0632835D0642879D0652812D195E113
:102A8000702873D008DC6728F1D069286FD06E28D1
:102A90000DD06F2806D1B5E073282CD0752875D0DD
:102AA000782874D05A46179990476D1C75E1C4F385
:102AB0000250022809D003280DD0D9F800100428AC
:102AC0000DD00D6009F1040967E1D9F80010EA178B
:102AD000C1E90052F6E7D9F800100D80F2E70D7059
:102AE000F0E719F8041B8DF8001000208DF80100A4
:102AF000EA46012003E059F804AB4FF0FF306107CC
:102B00004FF0000102D40DE008F101018846B942FE
:102B10000FDA8045F8DB1AF808100029F4D108E034
:102B200008F1010188468142FADB1AF808100029F1
:102B3000F6D105985B46A0EB080721463846179A60
:102B400000F094FA284400EB080507E04DE029E185
:102B50000DE01AF8010B5A4617999047B8F1010891
:102B6000F7D25B4621463846179A13E142E00A2223
:102B70000092C4F302524FF0000A022A08D059F81A
:102B800004CB032A4FEAEC710AD00DE029E02AE0D9
:102B900009F1070121F00702F2E802C1914609E0BC
:102BA0000FFA8CFC4FEAEC71042A03D14FFA8CFC2B
:102BB0004FEAEC71002907DA0A460021DCF1000C2B
:102BC00061EB02012D2202E0220504D52B228DF8B3
:102BD0000420012203E0E20701D02022F7E790461B
:102BE00059E00A2102E010220DE010214FF0000A06
:102BF00000910BE010224FF0000A44F00404082773
:102C0000009203E008224FF0000A0092C4F302523F
:102C1000022A05D059F804CB0021032A08D009E084
:102C200009F1070121F00702F2E802C1914605E02F
:102C30001FFA8CFC042A01D10CF0FF0C4FF00008A5
:102C4000220728D5702806D0009B83F0100353EA92
:102C50000A0305D00EE040228DF80420012208E08E
:102C60005CEA010206D030228DF804208DF80500C0
:102C700002229046009B83F0080353EA0A030AD11C
:102C80005CEA010201D1620705D530228DF80420EB
:102C90004FF001087F1E582804D034A003900EA8DE
:102CA00002900DE036A0F9E753466046009AFDF722
:102CB0008FFA84460398825C0298401E029002704C
:102CC0005CEA0100F0D1029806A9081A00F1200A76
:102CD000600702D524F4803400E00127574502DD67
:102CE000A7EB0A0000E0002000EB0A010090059825
:102CF0004144401A0590E00306D45B462146179AEA
:102D0000059800F0B3F90544002706E001A85A46EB
:102D1000C05D179990476D1C7F1C4745F6DBE003AB
:102D20000CD55B462146179A059800F09FF905449B
:102D300004E030205A46179990476D1C0099481EB0
:102D400000900029F5DC08E0029802995A460078C4
:102D5000491C0291179990476D1CBAF10001AAF124
:102D6000010AF1DC65E1000009280100303132334D
:102D700034353637383961626364656600000000B7
:102D800030313233343536373839414243444546A1
:102D90000000000000F058F90544761C3078002847
:102DA0007FF4ECAD19B02846BDE8F08F620700D47F
:102DB000062709F1070222F0070CFCE80223E1468E
:102DC00003F000485FEA080C02D00FF2702C0DE00F
:102DD0005FEA045C02D50FF2682C07E05FEAC47C6E
:102DE00002D00FF2602C01E0AFF2700C4FF0FF3810
:102DF00023F00043CDF850C065280CD006DC4528F0
:102E000009D046281DD047283DD13DE0662818D07E
:102E100067287ED138E00021112F01DB112000E06E
:102E2000781CCDE9000106A90EA8FFF7DDFCDDE95D
:102E30000F010E9A03910021009207F1010A0491FB
:102E40004DE04FF000400097CDE9011006A90EA813
:102E5000FFF7CAFCDDE90F0203920E9B11990022D5
:102E6000DDF80CA00093049211B9791C00EB010A63
:102E7000B7EB0A0004D4C0F1FF3007F1010A049057
:102E8000AAEB0700019044E0012F00DA012700219E
:102E9000112F01DD112000E03846CDE9000106A91F
:102EA0000EA8FFF7A1FCDDE90F010E9A03910021A6
:102EB00004910092BA4621070CD40399514500DAD7
:102EC0008A46BAF1010F05DD009AAAF10101515CB1
:102ED000302908D0B84202DA10F1040F06DA0121D5
:102EE000CDE9011015E0AAF10101E9E7002805DCB0
:102EF000049901440491AAEB000102E0411C5145F0
:102F000000DD8A460499401A401C01904FF00040B1
:102F10000290200704D40198504501DBCDF80480CD
:102F200000208DF84F0002980DF14F07B0F1004FCF
:102F300025D02B200E9002984FF0020800280CDAC2
:102F4000404202902D200E9007E00A210298FDF7E2
:102F5000A6FA3031029007F8011DB8F10001A8F17E
:102F60000108F2DC02980028EFD1791E0E98087053
:102F7000307800F0200040F0450007F8020D12A85C
:102F8000C01B00F107081498007800B1012000EB85
:102F90000A01019801EBE07105984144401A401E76
:102FA0000590E00306D45B462146179A059800F089
:102FB0005DF805441498007818B15A46179990475F
:102FC0006D1CE00324D55B462146179A059800F056
:102FD0004DF805441CE00498002807DBDDE90301F7
:102FE000884203DD0098405C179901E01799302072
:102FF0005A469047049805F10105401C0490019839
:10300000401E019004D12E205A46179990476D1CFE
:10301000BAF10001AAF1010ADDDC05E017F8010BA5
:103020005A46179990476D1CB8F10001A8F10108A4
:10303000F4DC5B462146179A0598ABE62D000000AC
:103040002B000000200000002DE9F041044600257F
:103050001E461746880404D405E039462020B047B0
:103060006D1C641EF9D52846BDE8F0812DE9F041BC
:10307000044600251E469046C80301D5302700E0CF
:103080002027880404D505E041463846B0476D1C2A
:10309000641EF9D52846BDE8F0810A68531C0B6010
:1030A00010707047F0B52DED068B85B004460D46C7
:1030B0002046FDF7B8F941EC1A0B9FED340B53ECA9
:1030C000102BFDF7CFF841EC190B9FED320B53ECB1
:1030D000102BFDF739F941EC180BFDF7C4F9064642
:1030E00022462EA12F48FFF73FFB3046FDF7A8F9F7
:1030F00041EC180B53EC182B2BA102A8FFF734FB63
:103100002A462BA101A8FFF72FFB4FF47A73072261
:1031100028A12A48FEF764FF01A8FDF79CF887B2B2
:103120004FF47A733A4601A92448FEF759FF4FF449
:103130007A73042222A12148FEF752FF1948FDF7B5
:103140008AF887B24FF47A733A4616491B48FEF75D
:1031500047FF4FF47A7308221BA11848FEF740FF7F
:1031600002A8FDF778F887B24FF47A733A4602A9BD
:103170001248FEF735FF4FF47A73042215A10F4869
:10318000FEF72EFF05B0BDEC068BF0BD66666666E9
:1031900066660A40000000000000B0404F7825300D
:1031A0003130580064000020252E326600000000F7
:1031B000256900006164635F76616C002001002076
:1031C000203D3E20000000002076696E203D3E201C
:1031D000000000000A0D0000FEF718FAFFF730F8B3
:1031E000FEF7CCFFFEF7AEFFFEF768FFFFF702F831
:1031F00014220C490C48FDF765FE11E009490868E6
:103200000021FFF74FFF4FF4FA70FEF7E1F8054990
:1032100048680421FFF746FF4FF4FA70FEF7D8F82C
:10322000ECE70000140000207800002000061016D3
:103230000006101600000000000000000102030458
:103240000607080900000000010203046C320008B0
:103250000000002014000000C82700088032000889
:10326000140000204C050000D827000800000000D2
:103270000000000010000000010000000024F40025
:040000050800019955
:00000001FF
