:020000040800F2
:1000000058040020AD010008890F0008790E00088F
:10001000850F0008B9020008511400080000000014
:100020000000000000000000000000008D0F00082C
:10003000BD020008000000008B0F00088F0F0008B1
:10004000C7010008C7010008C7010008C701000870
:10005000C7010008C7010008C7010008C701000860
:10006000C7010008C7010008C7010008C701000850
:10007000C7010008C7010008C7010008C701000840
:10008000C7010008C7010008C70100080000000000
:10009000000000000000000000000000C701000890
:1000A000C7010008C7010008C7010008C701000810
:1000B000C7010008C7010008C7010008C701000800
:1000C000C7010008C7010008C7010008C7010008F0
:1000D000C7010008C7010008C701000800000000B0
:1000E000C7010008C7010008C701000800000000A0
:1000F000000000000000000000000000C701000830
:1001000000000000C7010008C7010008C70100087F
:1001100000000000000000000000000000000000DF
:10012000C7010008C7010008C7010008C70100088F
:10013000C7010008000000000000000000000000EF
:10014000000000000000000000000000C7010008DF
:10015000C7010008C7010008C7010008C70100085F
:10016000C7010008C70100080000000000000000EF
:10017000000000000000000000000000000000007F
:1001800000000000C701000800000000000000009F
:10019000C7010008C7010008DFF80CD000F07AF8AA
:1001A00000480047D914000858040020064880473A
:1001B00006480047FEE7FEE7FEE7FEE7FEE7FEE74C
:1001C000FEE7FEE7FEE7FEE74D1000089901000894
:1001D0002DE9F05F0546002092469B46884606467C
:1001E000814640241BE0284641464746224600F00F
:1001F00041F853465A46C01A914110D31146184649
:10020000224600F028F82D1A67EB01084F462246D7
:100210000120002100F01FF817EB00094E41201EBD
:10022000A4F10104DFDC484631462A464346BDE8D6
:10023000F09FD2B201E000F8012B491EFBD27047BB
:100240000022F6E710B513460A4604461946FFF7A2
:10025000F0FF204610BD202A04DB203A00FA02F10C
:10026000002070479140C2F1200320FA03F31943A4
:1002700090407047202A04DB203A21FA02F0002146
:10028000704721FA02F3D040C2F1200291400843A6
:1002900019467047064C074D06E0E06840F0010340
:1002A00094E8070098471034AC42F6D3FFF778FF84
:1002B00094150008B415000800BFFEE770477047AA
:1002C000F8B503460A460025002400200021CDE0B1
:1002D000012606FA01F5166806EA0504AC4273D158
:1002E0005668012E08D05668022E05D05668112E89
:1002F00002D05668122E13D198684F000326BE40D4
:10030000B0434F00D668BE4030439860586801261D
:100310008E40B0431679C6F300168E4030435860C5
:10032000D8684F000326BE40B0434F009668BE40D9
:100330003043D8605668022E02D05668122E13D170
:10034000CF0803F1200656F827004E07F70E0F26B8
:10035000BE40B0434F07FF0E1669BE403043CF0882
:1003600003F1200646F8270018684F000326BE4018
:10037000B043167906F003064F00BE4030431860C4
:10038000566806F08056B6F1805F6ED100BF002639
:100390000096384E366846F48046364F3E603E46FC
:1003A000366806F48046009600BF00BF324E8F08C4
:1003B00056F827008E07370F0F26BE40B0432F4E4A
:1003C000B34202D1002615E04FE02D4EB34201D1D9
:1003D00001260FE02B4EB34201D102260AE02A4E3D
:1003E000B34201D1032605E0284EB34201D10426D1
:1003F00000E007268F073F0FBE4030431E4E8F0898
:1004000046F82700224E3068A043566806F480362E
:10041000B6F5803F00D120431D4E3060361D306858
:10042000A043566806F40036B6F5003F00D12043DD
:10043000174E361D3060361D3068A043566806F4EE
:100440008016B6F5801F00D12043114E083630606B
:10045000361D3068A043566806F40016B6F5001F36
:1004600000D120430A4E0C363060491C1029FFF49D
:100470002FAFF8BD44380240083801400000024068
:100480000004024000080240000C0240001002403C
:10049000003C01400AB1816101E00B0483617047B7
:1004A000014800687047000004000020034800680D
:1004B0000349097808440149086070470400002096
:1004C0000C00002010B50D48006840F400700B4986
:1004D00008600846006840F48060086008460068CC
:1004E00040F480700860032000F096F8002000F0CF
:1004F00007F800F02BF8002010BD0000003C02407F
:1005000070B504460E4800784FF47A71B1FBF0F0F4
:100510000C490968B1FBF0F5284600F015FC08B15C
:10052000012070BD102C07D200222146501E00F081
:1005300035F80548046001E00120F2E70020F0E70B
:100540000C000020100000200800002008B500BFAB
:10055000002000901048006840F480400E49086078
:100560000846006800F48040009000BF00BF00BF54
:1005700000200090081F006840F08050091F0860AC
:100580000846006800F08050009000BF00BF0720C0
:1005900000F042F808BD0000443802402DE9F05F49
:1005A00080460D461646002700F054FF07463946A0
:1005B0002A46334601F00700C0F1070ABAF1040FDA
:1005C00002D94FF0040A01E0C0F1070AD14600F158
:1005D000040ABAF1070F02D24FF0000A01E0A0F1BD
:1005E000030AD4464FF0010A0AFA09FAAAF1010AED
:1005F0000AEA020A0AFA0CFA4FF0010B0BFA0CFB9A
:10060000ABF1010B0BEA030B4AEA0B04214640460F
:1006100000F028FFBDE8F09F00BF00F00702064B86
:1006200019684FF6FF031940044B0B4343EA0221BC
:10063000014B196000BF70470CED00E00000FA05A7
:1006400070B504460D460CB9012070BD58480068CD
:1006500000F00F00A84209D255490D700846006805
:1006600000F00F00A84201D00120EEE7207800F052
:10067000020002281DD1207800F00400042805D1D2
:100680004C48006840F4E0504A490860207800F087
:100690000800082805D14748006840F460404549F3
:1006A00008604448006820F0F000A1680843414910
:1006B0000860207800F00100A8B36068012807D125
:1006C0003C4808380068C0F34040B8B90120BCE796
:1006D0006068022802D06068032807D135480838CE
:1006E0000068C0F3406048B90120AEE731480838DF
:1006F0000068C0F3400008B90120A6E72D48006853
:1007000020F00300616808432A490860FFF7C8FE2B
:10071000064609E0FFF7C4FE801B41F2883188429B
:1007200002D9032091E707E02248006800F00C009E
:100730006168B0EB810FEDD11D48006800F00F003B
:10074000A84209D91A490D700846006800F00F0048
:10075000A84201D0012078E7207800F004000428A6
:1007600007D11448006820F4E050E16808431149BB
:100770000860207800F00800082808D10D480068BB
:1007800020F46040216940EAC1000A49086000F095
:100790003FF808490968C1F30311074A515CC84092
:1007A0000649086006480068FFF7AAFE00204CE7EB
:1007B000003C0240083802407C1500081000002070
:1007C0000800002001480068704700001000002069
:1007D00000B5FFF7F7FF04490968C1F38221034A16
:1007E000515CC84000BD0000083802408C1500086C
:1007F00000B5FFF7E7FF04490968C1F34231034A36
:10080000515CC84000BD0000083802408C1500084B
:100810002DE9F047002400250026A1462548006860
:1008200000F00C0020B1042805D008283AD105E0DA
:10083000DFF8849039E0DFF8849036E01D48001F2F
:10084000006800F03F041B48001F006800F48000AF
:1008500078B11A481749091F0968C1F38811A0FB2C
:1008600001700146224600233846FFF7B1FC0546D9
:100870000EE011480F49091F0968C1F38811A0FB58
:1008800001700146224600233846FFF7A1FC0546C9
:100890000848001F0068C0F30140401C4600B5FB3B
:1008A000F6F902E0DFF8109000BF00BF4846BDE84F
:1008B000F0870000083802400024F40000127A009B
:1008C000F8B504460CB90120F8BD207800F001000D
:1008D000002874D0F948006800F00C0004280DD0FE
:1008E000F648006800F00C00082813D1F348001FF8
:1008F000006800F48000B0F5800F0BD1EF48083895
:100900000068C0F34040002859D06068002856D1E4
:100910000120D9E700BF6068B0F5803F08D1E74803
:100920000838006840F48030E449083908601EE067
:100930006068B0F5A02F0DD1E0480838006840F499
:100940008020DE49083908600846006840F480309D
:1009500008600CE0D9480838006820F48030D74996
:10096000083908600846006820F48020086000BF4D
:10097000606890B1FFF794FD054606E0FFF790FD33
:10098000401B642801D903209EE7CC480838006842
:10099000C0F340400028F1D011E0FFF781FD05468B
:1009A00006E0FFF77DFD401B642801D903208BE79B
:1009B000C24808380068C0F340400028F1D12078D0
:1009C00000F0020002285FD1BC48006800F00C0073
:1009D00058B1BA48006800F00C0008281CD1B7488C
:1009E000001F006800F48000B0B9B44808380068FF
:1009F000C0F3400020B1E068012801D0012063E786
:100A0000AE480838006820F0F800216940EAC100CB
:100A1000AA490839086037E0E06800B30120A84916
:100A20000860FFF73DFD054606E0FFF739FD401B76
:100A3000022801D9032047E7A04808380068C0F31E
:100A400040000028F1D09D480838006820F0F800E8
:100A5000216940EAC10099490839086014E0002082
:100A600097490860FFF71CFD054606E0FFF718FDF3
:100A7000401B022801D9032026E790480838006867
:100A8000C0F340000028F1D1207800F008000828C9
:100A90002CD16069A8B101208A490860FFF700FDE8
:100AA000054606E0FFF7FCFC401B022801D90320A5
:100AB0000AE782486C300068C0F340000028F1D09B
:100AC00014E000207F490860FFF7EAFC054606E0D5
:100AD000FFF7E6FC401B022801D90320F4E6774823
:100AE0006C300068C0F340000028F1D1207800F09D
:100AF0000400042870D1002770483830006800F0E6
:100B0000805090B900BF002000906C4838300068D9
:100B100040F080506949383108600846006800F0AC
:100B20008050009000BF00BF01276748006800F4B4
:100B30008070B0B96448006840F480706249086011
:100B4000FFF7AEFC054606E0FFF7AAFC401B0228B3
:100B500001D90320B8E65C48006800F480700028E2
:100B6000F2D000BFA068012808D15448683000685E
:100B700040F001005149683108601DE0A068052877
:100B80000DD14E486830006840F004004B49683190
:100B900008600846006840F0010008600CE0474823
:100BA0006830006820F00100444968310860084658
:100BB000006820F00400086000BFA068A8B1FFF73B
:100BC0006FFC054609E0FFF76BFC401B41F28831E2
:100BD000884202D9032077E626E03848683000686A
:100BE000C0F340000028EED013E0FFF759FC0546A3
:100BF00008E0FFF755FC401B41F28831884201D9DB
:100C0000032061E62D4868300068C0F340000028EA
:100C1000EFD1012F07D129483830006820F08050EB
:100C200026493831086000BFA069002845D0234814
:100C3000006800F00C0008285DD0A069022845D1AA
:100C400000201F490866FFF72BFC054606E0FFF76A
:100C500027FC401B022801D9032035E61748083835
:100C60000068C0F340600028F1D1D4E907010843CF
:100C7000616A40EA81110122A06AC2EB500041EA98
:100C800000412C20005D41EA00600C49091F08600A
:100C900001200B490866FFF703FC054606E0FFF755
:100CA000FFFB401B022801D903200DE6034808384A
:100CB0000068C0F340600028F1D03FE008380240EF
:100CC00000004742800E47420070004000201C494F
:100CD0000866FFF7E5FB054606E0FFF7E1FB401B72
:100CE000022801D90320EFE516480068C0F34060F0
:100CF0000028F2D122E0A069012800D1E4E51148E2
:100D00000830066806F48001E069814214D106F0DB
:100D10003F01206A81420FD147F6C0703040616ABE
:100D2000884209D106F44031A06A814204D106F01C
:100D30007061E06A814201D00120C5E50020C3E571
:100D4000000047420038024070B504462546681E40
:100D5000B0F1807F01D301200FE0681E4FF0E02149
:100D600048610F214FF0FF3000F07CFB00204FF076
:100D7000E021886107200861002070BD10B504469D
:100D80000CB9012010BDA06900B100E000BF94F8CB
:100D9000390028B9002084F83800204600F028F8EF
:100DA000242084F839002068C06820F400502168AD
:100DB000C860204600F058F92068006920F490408F
:100DC000216808612068406920F02A002168486194
:100DD0002068C06840F400502168C8600020E063CB
:100DE000202084F8390084F83A000020CAE7000087
:100DF00010B586B00446142101A8FFF721FA1B495B
:100E0000206888422FD100BF002000901848006859
:100E100040F40030164908600846006800F40030CD
:100E2000009000BF00BF00BF0020009010481038A5
:100E3000006840F001000E4910390860084600685B
:100E400000F00100009000BF00BF0C2001900220C4
:100E5000029001200390032004900720059001A92F
:100E60000448FFF72DFA06B010BD00000044004012
:100E7000403802400000024000BFFEE700B587B0E6
:100E8000142102A8FFF7DCF900BF002001902B48D5
:100E9000006840F00400294908600846006800F036
:100EA0000400019000BF00BF00BF00200190084671
:100EB000006840F0800008600846006800F080008C
:100EC000019000BF00BF00BF0020019008460068ED
:100ED00040F0010008600846006800F00100019041
:100EE00000BF00BF00BF002001900846006840F02E
:100EF000020008600846006800F00200019000BF90
:100F000000BF0022E0210E48FFF7C4FA4FF4005062
:100F100002900C4803900020049002A90A48FFF7B1
:100F2000CFF9E0200290012003900020049005906A
:100F300002A90348FFF7C4F907B000BD30380240EA
:100F400000000240000021100008024010B50B48CC
:100F50000B4908604FF4E130486000210848816087
:100F6000C16001610C21416100218161C161FFF714
:100F700005FF08B1FFF7A3F910BD000000440040D1
:100F80001400002000BFFEE770477047704710B59F
:100F9000FFF78CFA10BD000000B593B0302107A810
:100FA000FFF74EF9142102A8FFF74AF900BF00200D
:100FB00001902448006840F08050224908600846AB
:100FC000006800F08050019000BF00BF00BF00200B
:100FD00001901D48006840F440401B4908600846E5
:100FE000006800F44040019000BF00BF022007905D
:100FF00001200A9010200B9002200D9000210E91EC
:1010000008210F9164211091022111910421129164
:1010100007A8FFF755FC08B1FFF751F90F20029020
:1010200002200390002004904FF48050059000208F
:101030000690032102A8FFF703FB08B1FFF73FF971
:1010400013B000BD40380240007000400548006801
:1010500040F47000034908604FF000600149803996
:101060000860704788ED00E02DE9F84F04462068DD
:10107000006920F44050E168084321680861216953
:10108000A068084361690843E1690843009020684B
:10109000C06849F20C618843009908432168C86020
:1010A0002068406920F44070A169084321684861C4
:1010B000E069B0F5004F75D1E3492068884203D05C
:1010C000E249206888426FD1FFF792FB81460220F7
:1010D0006168A0FB01510B461920A9FB00712A464B
:1010E0003846FFF775F86421B0FBF1F04FEA001ABB
:1010F00002206168A0FB01510B461920A9FB007179
:101100002A463846FFF764F8074602206168A0FBCC
:1011100001510B461920A9FB00B12A465846FFF79A
:1011200057F86421B0FBF1F000EBC00101EB0010B7
:10113000A7EB8000322101EBC0006421B0FBF1F08D
:1011400000F0F8000AEB400A02206168A0FB0151A0
:101150000B461920A9FB00712A463846FFF738F8DC
:10116000074602206168A0FB01510B461920A9FB2C
:1011700000B12A465846FFF72BF86421B0FBF1F086
:1011800000EBC00101EB0010A7EB8000322101EB66
:10119000C0006421B0FBF1F000F00700504421686A
:1011A00088604FE16EE0FFE7FFF712FB8146022007
:1011B0006168A0FB01510B461920A9FB00712A466A
:1011C0003846FFF705F86421B0FBF1F04FEA001A4A
:1011D00002206168A0FB01510B461920A9FB007198
:1011E0002A463846FEF7F4FF074602206168A0FB56
:1011F00001510B461920A9FB00B12A465846FEF7BB
:10120000E7FF6421B0FBF1F000EBC00101EB00103F
:10121000A7EB8000322101EBC0006421B0FBF1F0AC
:1012200000F0F8000AEB400A02206168A0FB0151BF
:101230000B461920A9FB00712A463846FEF7C8FF65
:10124000074602206168A0FB015003461920A9FB54
:1012500000B12A465846FEF7BBFF6421B0FBF1F00F
:1012600000EBC00101EB0010A7EB8000322101EB85
:10127000C0006421B0FBF1F000F007005044216889
:101280008860DFE070492068884203D06F49206899
:1012900088426BD1FFF7ACFA814604206168A0FB5D
:1012A00001510B461920A9FB00712A463846FEF76A
:1012B0008FFF824604206168A0FB01510B46192074
:1012C000A9FB00712A463846FEF782FF6421B0FB75
:1012D000F1F000EBC00101EB0010AAEB800032211D
:1012E00001EB00106421B0FBF1F000F0F00A0420E3
:1012F0006168A0FB015003461920A9FB00712A4632
:101300003846FEF765FF6421B0FBF1F00AEB001AE6
:1013100004206168A0FB01510B461920A9FB007154
:101320002A463846FEF754FF074604206168A0FBB2
:10133000015003461920A9FB00B12A465846FEF782
:1013400047FF6421B0FBF1F000EBC00101EB00109E
:10135000A7EB8000322101EB00106421B0FBF1F01B
:1013600000F00F005044216888606BE0FFF730FA0E
:10137000814604206168A0FB015003461920A9FBA7
:1013800000712A463846FEF723FF82460420616832
:10139000A0FB015003461920A9FB00712A463846DC
:1013A000FEF716FF6421B0FBF1F000EBC00101EB8A
:1013B0000010AAEB8000322101EB00106421B0FB89
:1013C000F1F000F0F00A04206168A0FB0150034630
:1013D0001920A9FB00712A463846FEF7F9FE642160
:1013E000B0FBF1F00AEB001A04206168A0FB017069
:1013F00003461920A9FB005001463A462846FEF74D
:10140000E7FE074604206168A0FB0150034619204F
:10141000A9FB00B12A465846FEF7DAFE6421B0FB6C
:10142000F1F000EBC00101EB0010A7EB80003221CE
:1014300001EB00106421B0FBF1F000F00F0050440C
:1014400021688860BDE8F88F001001400014014059
:1014500000BFFEE702480068C0F3022070470000AA
:101460000CED00E010B5002804DB0A07130E054A56
:10147000135406E00A07140E034A00F00F031B1F63
:10148000D45410BD00E400E018ED00E002E008C80C
:10149000121F08C1002AFAD170477047002001E0EE
:1014A00001C1121F002AFBD170470CB50021019128
:1014B0000DE00021009102E00099491C009142F2E8
:1014C000AC6200999142F7D90199491C01910199A7
:1014D0008142EED90CBD0000FEF7F4FFFFF75CFD82
:1014E000FFF7CCFCFFF732FD43E0224800780728E5
:1014F00005DA20480078401C1E49087002E00020F0
:101500001C4908701C48406980F020001A49486155
:101510004FF49670FFF7C9FF1748406980F020002C
:10152000154948610846406980F0400048614FF421
:101530009670FFF7BAFF1048406980F020000E490E
:1015400048614FF49670FFF7B0FF0B48406980F098
:101550002000094948610846406980F04000486120
:101560000846406980F0800048614FF49670FFF7AC
:101570009CFFBAE7000000200000024000000000CD
:101580000000000001020304060708090000000033
:1015900001020304B415000800000020140000003C
:1015A0008C140008C8150008140000204404000032
:1015B0009C14000800000000000000001000000063
:0815C000010000000024F4000A
:040000050800019955
:00000001FF
