:020000040800F2
:1000000090040020AD010008F3140008D713000885
:10001000F1140008B9040008651B00080000000086
:10002000000000000000000000000000171500089C
:10003000BB04000800000000151500081915000891
:10004000C7010008C7010008C7010008C701000870
:10005000C7010008C7010008C7010008C701000860
:10006000C7010008C7010008C7010008C701000850
:10007000C7010008C7010008C7010008C701000840
:10008000C7010008C7010008C70100080000000000
:10009000000000000000000000000000C701000890
:1000A000C7010008C7010008C7010008C701000810
:1000B000F1150008C7010008C7010008C7010008C2
:1000C000C7010008C7010008C7010008C7010008F0
:1000D000C7010008C7010008C701000800000000B0
:1000E000C7010008C7010008C701000800000000A0
:1000F000000000000000000000000000C701000830
:1001000000000000C7010008C7010008C70100087F
:1001100000000000000000000000000000000000DF
:10012000C7010008C7010008C7010008C70100088F
:10013000C7010008000000000000000000000000EF
:10014000000000000000000000000000C7010008DF
:10015000C7010008C7010008C7010008C70100085F
:10016000C7010008C70100080000000000000000EF
:10017000000000000000000000000000000000007F
:1001800000000000C701000800000000000000009F
:10019000C7010008C7010008DFF80CD000F07AF9A9
:1001A00000480047851B000890040020064880474F
:1001B00006480047FEE7FEE7FEE7FEE7FEE7FEE74C
:1001C000FEE7FEE7FEE7FEE79D150008990100083F
:1001D0002DE9F05F0546002092469B46884606467C
:1001E000814640241BE0284641464746224600F00F
:1001F000E4F853465A46C01A914110D311461846A6
:10020000224600F0CBF82D1A67EB01084F46224634
:100210000120002100F0C2F817EB00094E41201E1A
:10022000A4F10104DFDC484631462A464346BDE8D6
:10023000F09FD2B201E000F8012B491EFBD27047BB
:100240000022F6E710B513460A4604461946FFF7A2
:10025000F0FF204610BD421C10F8011B0029FBD105
:10026000801A70472DE9FE4F81EA030404F0004430
:1002700021F0004100944FF0000B23F0004350EABE
:1002800001045ED052EA03045BD0C3F30A54C1F305
:100290000A552C44A4F2F3340194A0FB0254C1F398
:1002A000130141F48011C3F3130343F4801301FBE2
:1002B000024400FB034E840A970A44EA815447EA49
:1002C0008357A4FB076802958D0A05FB07854FEA53
:1002D000932C04FB0C542705029D4FEA065847EA6D
:1002E0001637B5EB08056EEB070C870E920E47EA42
:1002F000811742EA8312A7FB0201B6EB0B0164EB04
:1003000000042B0D43EA0C335E1844EB1C50DA4614
:100310005146E7FB0201C5F313044FEA0B3343EAEE
:1003200014534FEA0432019C43EA0603A4F10C047F
:100330000294009CCDE900B400F05EF803B0BDE883
:10034000F08F00200146F9E70EB5C10F80EAE0709A
:100350000844CA07002140F233438DE80E000A46E4
:100360000B4600F049F803B000BDC1F30A5210B5C6
:10037000C1F3130140F2FF3341F480119A4201DAD4
:10038000002010BD40F233439A42A2F2334203DC14
:10039000524200F012F810BD904010BD202A04DB3C
:1003A000203A00FA02F1002070479140C2F1200388
:1003B00020FA03F3194390407047202A04DB203AC7
:1003C00021FA02F00021704721FA02F3D040C2F175
:1003D0002002914008431946704710B5141E73F16E
:1003E000000408DA401C41F1000192185B411A43F5
:1003F00001D120F0010010BD2DE9F04D92469B4641
:1004000011B1B1FA81F202E0B0FA80F220329046E6
:10041000FFF7C4FF04460F4640EA0A0041EA0B0119
:1004200053465A46084313D0114653EA010019D0E7
:10043000C8F140025046FFF7C0FF05460E46504641
:1004400059464246FFF7AAFF084305D0012004E0C1
:1004500020463946BDE8F08D0020054346EAE076A7
:100460002C4337430A986305E40AA0EB08000022F6
:10047000FD0A44EA47540A3002D500200146E9E764
:10048000010510196941DDE9084500196941BDE818
:10049000F04DA2E7064C074D06E0E06840F001038E
:1004A00094E8070098471034AC42F6D3FFF778FE83
:1004B000C41C0008E41C0008FEE7704770470000F9
:1004C00070B5044600F0D2F80546601C02D004481E
:1004D0000078044400F0CAF8401BA042FAD370BD73
:1004E000000000202DE9F84FDFF860B100224FF046
:1004F00001084FF0030A4FF00F090BF1040E00BF83
:100500000B6808FA02F42340A3426ED14D68022D15
:1005100001D0122D0ED1D50800EB850CDCF820504F
:100520005607F70E09FA07F6B5430E69BE402E438B
:10053000CCF82060066855000F790AFA05FC07F030
:10054000030726EA0C06AF40374307604E68012ECA
:1005500005D0022E03D0112E01D0122E0ED18668A6
:10056000CF6826EA0C06AF40374387604668A6434B
:100570000C79C4F30014944034434460C6688C681A
:1005800026EA0C06AC403443C4604C68E40056D5FF
:100590002F4C256845F480452560246822F003052A
:1005A00004F4804400942B4C2E19D6F80848950783
:1005B0002F0F09FA07F5AC43274DA84201D10025BA
:1005C00015E0264DA84201D1012510E0244DA84296
:1005D00001D102250BE0234DA84201D1032506E0FD
:1005E000214DA84202D1042501E028E00725BD40A5
:1005F0002543C6F80858DBF800405D464E689C432A
:10060000F60300D51C432C60DEF8004075464E68AA
:100610009C43B60300D51C432C600C4D08352C6858
:100620004E689C43F60200D51C432C60074D0C35E8
:100630002C684E689C43B60200D51C432C60521CAB
:10064000102AFFF45DAFBDE8F88F0000003C0140C8
:1006500044380240003001400000024000040240E3
:1006600000080240000C024000100240014880686F
:1006700070470000000000200248816802781144A1
:1006800081607047000000200B4810B5016841F4FC
:1006900000710160016841F480610160016841F40A
:1006A00080710160032000F06DF8002000F006F872
:1006B00000F024F8002010BD003C024070B50D4D44
:1006C00004464FF47A712878B1FBF0F00A490968C2
:1006D000B1FBF0F000F0E0FA48B9102C07D200228C
:1006E0002146501E00F02EF800206C6070BD0120E5
:1006F00070BD0000000000200C0000200A4808B572
:10070000016841F480410160006800F4804000907D
:100710000548001F016841F080510160006800F049
:100720008050009008BD00004438024000F01F02D5
:10073000012191404009800000F1E020C0F8001143
:1007400070470000F0B40E4B1B680C46C3F3022345
:10075000C3F10705042D00D90425191D072901D26D
:10076000002300E0DB1E012606FA05F1491E2140A8
:1007700099409E40761E16403143F0BC00F0BABE50
:100780000CED00E0064900F0070208684FF6FF0391
:10079000184040EA0220034A1043086070470000F6
:1007A0000CED00E00000FA052DE9F0470E460500CB
:1007B00065D0DFF81481D8F80000F7B200F00F0020
:1007C000B04207D288F80070D8F8000000F00F009F
:1007D000B04254D128683D4C810712D5400703D55B
:1007E000206840F4E05020602878000703D5206896
:1007F00040F4604020602068A96820F0F0000843C1
:1008000020602878C0072DD0304968680839012851
:1008100012D0022813D0032811D0096889070029B3
:100820002DDA216821F0030101432160FFF71EFF4B
:10083000814641F2883A0EE009688903EFE70968CA
:100840008901ECE7FFF712FFA0EB0901514502D93E
:100850000320BDE8F0872068696800F00C00B0EB69
:10086000810FEFD1D8F80010404601F00F01B142DE
:1008700007D90770006800F00F00B04201D00120D6
:10088000E7E72878400705D52068E96820F4E050BC
:10089000084320602878000706D52068296920F4DD
:1008A000604040EAC100206000F036F82168084A44
:1008B000C1F30311515CC840064908600020FFF7EE
:1008C000FDFE0020C5E70000003C02400838024061
:1008D000AC1C00080C0000200448054900680968A9
:1008E000044AC1F38221515CC84070470C000020CB
:1008F00008380240BC1C0008044805490068096823
:10090000044AC1F34231515CC84070470C000020DA
:1009100008380240BC1C0008154810B5006810F0EB
:100920000C02144813D01449042A0FD0082A0ED1FF
:100930000F4C241F2268236802F03F025B0207D598
:100940002068C0F38810A0FB010106E0084610BD36
:100950002168C1F38811A1FB00010023FFF738FCD7
:100960002168C1F30141491C4900B0FBF1F010BD01
:10097000083802400024F40040787D012DE9F84F4A
:10098000050076D02878DFF8F8B2BE4CC00749D011
:10099000DBF800105846C1F38101012908D0006836
:1009A000C0F3810002280AD1201D0068400206D54C
:1009B0002068800336D568680028E2D032E0686895
:1009C000B0F5803F10D0B0F5A02F206810D020F4F3
:1009D00080302060206820F4802020606868A0B10A
:1009E000FFF744FE06460CE0206840F48030F4E750
:1009F00040F480202060F7E7FFF738FE801B642872
:100A000073D820688003F7D50CE0FFF72FFE064669
:100A100005E000BFFFF72AFE801B6428F0D820689D
:100A20008003F7D42878DFF8608280074FF0000950
:100A30003ED5DBF80010584611F00C0F09D00068C5
:100A4000C0F3810002280BD18D48001F00684002CE
:100A500006D42068800715D5E868012809D111E07F
:100A6000E868B8B10120C8F80000FFF7FFFD0646AE
:100A700005E002E1FFF7FAFD801B0228C0D82068DC
:100A80008007F7D52068296920F0F80040EAC10006
:100A900020600DE0C8F80090FFF7E8FD064604E08E
:100AA000FFF7E4FD801B02281FD820688007F7D4D9
:100AB0002878000722D5724E744869696C3671B186
:100AC00001210160FFF7D2FD074604E0FFF7CEFDEC
:100AD000C01B022809D830688007F7D50EE0C0F89F
:100AE0000090FFF7C3FD074605E083E0FFF7BEFD7A
:100AF000C01B02287ED830688007F7D428784007CA
:100B000068D5DFF87CA100270AF1380ADAF800007E
:100B1000C0000BD4DAF8001041F08051CAF8001080
:100B2000DAF80000012700F080500090584E30683D
:100B3000C00510D4306840F480703060FFF796FD37
:100B4000009005E0FFF792FD0099401A022851D865
:100B50003068C005F6D54A4EA868683601280FD01F
:100B60000528306810D020F001003060306820F097
:100B700004003060A868B8B1FFF778FD00900FE07E
:100B8000306840F00100F4E740F004003060F7E71F
:100B9000FFF76CFD0099411A41F28830814264D818
:100BA00030688007F4D50EE0FFF760FD009007E0A5
:100BB000FFF75CFD0099411A41F28830814254D818
:100BC00030688007F4D42FB1DAF8001021F080519A
:100BD000CAF80010A869C0B3DBF80010C1F38101A6
:100BE00002294AD00228484607D0C8F86000FFF71B
:100BF0003DFD00E039E005463AE04746C8F86000B0
:100C0000FFF734FD064604E0FFF730FD801B0228A5
:100C10002BD820688001F7D4D5E907010843A96AD9
:100C20001C4A490802EB01416A6A41EA8211084301
:100C300095F82C1040EA01611148001F0160012065
:100C40003866FFF713FD054605E014E0FFF70EFDDB
:100C5000401B022809D820688001F7D50BE000BFAF
:100C6000FFF704FD401B022802D90320BDE8F88FDE
:100C700020688001F4D40020F8E70120F6E70000A6
:100C8000083802400038024000004742800E4742C8
:100C9000007000400000FFFF10B5401EB0F1807FE3
:100CA00001D3012010BD4FF0E02460610F216017D7
:100CB00000F020FC0020A06107202061002010BD72
:100CC0007047704730B590F83820012A20D00122B3
:100CD00080F83820022380F8393003685C6824F0FB
:100CE00070045C6003685C680D682C435C6003689A
:100CF0009C6824F080049C6003689C6849680C43ED
:100D00009C6080F83920002180F83810084630BDFA
:100D1000022030BD10B5040003D094F8390010B1A2
:100D200007E0012010BD002084F83800204600F0C4
:100D30000DF8022084F83900211D206800F05EFCC7
:100D4000012084F83900002010BD000008B50068BB
:100D5000B0F1804F12D10A48016841F001010160F1
:100D60000068002200F00100009011461C20FFF7EF
:100D7000E9FCBDE808401C20FFF7D8BC08BD000016
:100D80004038024070B5044690F83800012817D06A
:100D9000012584F83850022084F8390020688268E0
:100DA00022F0770222F47F4282600868502837D010
:100DB0000DDC202859D005DC88B3102841D151E042
:100DC000022070BD302853D040283AD13FE060283F
:100DD0002ED070280BD0B0F5805F03D0B0F5005F47
:100DE0002FD110E02068816821F0070115E0CB6861
:100DF000D1E90121206800F054FC2168886840F0A6
:100E0000770088601DE0CB68D1E90121206800F0FF
:100E100048FC2068816841F48041816011E01EE057
:100E2000CA684968206800F0F1FC5021206806E09B
:100E3000CA684968206800F0FAFC6021206800F068
:100E40003AFC84F83950002084F8380070BDCA6834
:100E50004968206800F0DAFC40212068EFE70021B3
:100E60002068ECE710212068E9E720212068E6E708
:100E700030212068E3E7704770B5044600680169D7
:100E80004FF00005C943890715D4C168C9438907D4
:100E900011D4E91E01610120207620688069800755
:100EA000204602D0FFF7E7FF04E000F0D5F8204627
:100EB00000F057F9257620680169C943490717D41E
:100EC000C168C943490713D46FF0040101610220CE
:100ED00020762068806910F4407F204602D0FFF71A
:100EE000CAFF04E000F0B8F8204600F03AF9257691
:100EF00020680169C943090716D4C168C9430907B5
:100F000012D46FF008010161042020762068C069C6
:100F10008007204602D0FFF7AEFF04E000F09CF807
:100F2000204600F01EF9257620680169C943C906EC
:100F300017D4C168C943C90613D46FF01001016109
:100F4000082020762068C06910F4407F204602D037
:100F5000FFF791FF04E000F07FF8204600F001F970
:100F6000257620680169C943C90708D1C168C9430A
:100F7000C90704D1891E0161204600F00BF92068E1
:100F80000169C943090609D4C168C943090605D4E2
:100F90006FF0800101612046FFF792FE2068016931
:100FA000C943490609D4C168C943490605D46FF04D
:100FB00040010161204600F0EEF820680169C94354
:100FC00089060BD4C168C943890607D46FF0200194
:100FD00001612046BDE87040FFF773BE70BD0000A0
:100FE000F0B587B0044614216846FFF729F9206858
:100FF000B0F1804F27D115480025016841F001016B
:101000000160016801F001010591016841F00201F0
:101010000160006803240226CDE9004600F00200CA
:101020000127CDE90470CDE9025469460848FFF76D
:1010300059FA7002CDE90006CDE9025469460497D9
:101040000448FFF74FFA07B0F0BD00003038024007
:101050000000024000040240704770B5044690F85A
:1010600038000D4601280DD0012684F83860022092
:1010700084F8390042B1042A18D0082A2AD00C2A50
:101080004DD139E0022070BD206800F01DFB2068C2
:10109000816941F0080181612068816921F00401C2
:1010A0008161206881692A69114311E0206800F09C
:1010B00033FB2068816941F40061816120688169A6
:1010C00021F480618161206881692A6941EA0221F5
:1010D000816124E0206800F04BFB2068C16941F089
:1010E0000801C1612068C16921F00401C161206863
:1010F000C1692A69114311E0206800F065FB20688E
:10110000C16941F40061C1612068C16921F4806155
:10111000C1612068C1692A6941EA0221C16184F87C
:101120003960002084F8380070BD10B5040003D089
:1011300094F8390010B107E0012010BD002084F8B8
:101140003800204600F00CF8022084F83900211DF8
:10115000206800F053FA012084F83900002010BD07
:101160007047704710B504460068012200F08EFAFF
:1011700007492068884203D1416C41F40041416431
:101180002068016841F001010160002010BD0000ED
:10119000000001407047704770B5040004D094F817
:1011A0003900002510B106E0012070BD84F83850E8
:1011B000204600F023F8242084F839002068C16814
:1011C00021F40051C160204600F044FB2068016911
:1011D00021F4904101612068416921F02A014161B7
:1011E0002068C16841F40051C160E563202084F8A3
:1011F000390084F83A00002070BD000010B586B0B8
:10120000044614216846FFF71BF8134920688842FA
:1012100020D11248016841F400310160006800F4F7
:10122000003005900D481038016841F0010101605F
:101230000068694600F0010005900C200090022033
:10124000019001200290032003900720049004489D
:10125000FFF748F906B010BD004400404038024096
:10126000000002402DE9F843044690F83A00994600
:1012700016460D4620284FD195B18EB194F838000E
:10128000012849D0012084F838000027E763222094
:1012900084F83A00FFF7EAF9A6858046E68531E052
:1012A0000120BDE8F883E08D401EE085A06843463C
:1012B000B0F5805F4FF000024FF020012046CDF8DE
:1012C000009004D000F01CFC98B10320E9E700F086
:1012D00017FC0028F9D1206900282068406803D055
:1012E000C1B225F8011B0DE0C0F3080125F8021B6F
:1012F00008E0206900282068406801D000F07F00E5
:1013000005F8010BE08D0028CDD1202084F83A00AB
:1013100084F838700020C4E70220C2E72DE9F843C2
:10132000044690F839001F4616460D46202850D135
:10133000A5B19EB194F8380001284AD0012084F864
:1013400038004FF00008C4F83C80212084F83900B0
:10135000FFF78CF9A6848146E68426E00120BDE8EB
:10136000F883E08C401EE084A0684B46B0F5805FB7
:101370004FF000024FF080012046009703D000F0AC
:10138000BFFBE8B90DE000F0BBFBC8B928882168B5
:10139000C0F308004860206908B16D1C05E0AD1C71
:1013A00003E0216815F8010B4860E08C0028D8D1D3
:1013B0004B46002240212046009700F0A1FB08B1D7
:1013C0000320CCE7202084F8390084F838800020FE
:1013D000C5E70220C3E7FEE7094808B5016841F008
:1013E00001010160016801F001010091016841F013
:1013F00002010160006800F00200009008BD0000DA
:101400003038024010B58EB0002407940894099437
:101410000A940B941C2168460C94FEF711FF254892
:101420004FF08041016042F20F71C0E90114C0E940
:101430000314FFF76FFC08B1FFF740F84FF480503A
:10144000079007A91B48FFF79DFC08B1FFF736F886
:101450001848FFF76AFE08B1FFF730F80B940BA9A4
:1014600014480C94FFF72EFC08B1FFF727F8602012
:10147000CDE900040294002269460E480494FFF767
:10148000ECFD08B1FFF71AF8042269460948FFF796
:10149000E4FD08B1FFF712F8082269460548FFF796
:1014A000DCFD08B1FFF70AF80248FFF799FD0EB01E
:1014B00010BD0000100000200C4810B50A49016062
:1014C0004FF4E1314160002181600C22C160C0E92C
:1014D00004128161C161FFF75FFE002803D0BDE8FF
:1014E0001040FEF7EBBF10BD004400404C00002050
:1014F000FEE770470907090E002806DA00F00F0022
:1015000000F1E02080F8141D704700F1E02080F821
:101510000014704770477047FFF7AEB830B593B00E
:1015200030216846FEF78CFE14210CA8FEF788FED9
:1015300018480025016841F080510160006800F002
:10154000805011901448016841F4404101600068E6
:10155000022400F4404011900120039010200490D8
:10156000009406940820CDE907506420CDE90904D1
:1015700004200B906846FFF701FA0CA90F2081E8C0
:101580003100E002CDE90F0503210CA8FFF70CF9AB
:1015900013B030BD40380240007000401048016870
:1015A00041F4700101600F48016841F001010160E0
:1015B0000C4A00210832116002680B4B1A4002608D
:1015C000031D0A4A1A60026822F48022026005485C
:1015D0000C300160024958068039086070470000ED
:1015E00088ED00E000380240FFFFF6FE10300024D6
:1015F0000148FFF741BC000010000020F0B5026870
:101600001B4B1C4C9F031C4D1C4E984207D0B842EC
:1016100005D0A04203D0A84201D0B04204D122F0AC
:10162000700C4A6842EA0C02984210D0B8420ED0C0
:10163000A0420CD0A8420AD0B04208D0104CA04220
:1016400005D0104CA04202D00F4CA04203D122F48E
:101650004074CA68224302608A68C2620A68826271
:10166000984201D10969016301214161F0BD000087
:10167000000001400004004000080040000C004051
:1016800000400140004401400048014010B50123E2
:10169000046A8B409C430462036A8A4013430362DA
:1016A00010BD10B5846842EA032224F47F440A4343
:1016B0002243826010BD826822F070020A4342F029
:1016C000070181607047000030B5026A22F0010214
:1016D0000262026A4368846924F073050C682C4333
:1016E00022F002058A682A430A4DA8420BD122F053
:1016F0000805CA6823F440732A434D6922F00402A6
:101700001D438B692B4343608461496841630262D6
:1017100030BD00000000014030B5026A22F0100226
:101720000262026A436884690D6824F4E64444EA6C
:1017300005248D6822F0200242EA05120B4DA842D2
:101740000ED1CD6822F0800242EA05124D6923F4E1
:10175000406343EA85038D6922F0400243EA850332
:101760004360846149688163026230BD00000140CA
:1017700030B5026A22F480720262036A4268C46968
:1017800023F4007324F073050C682C438D6843EA3E
:1017900005230C4DA8420ED1CD6823F4006343EA23
:1017A00005234D6922F4405242EA05128D6923F463
:1017B000806342EA05124260C4614968C163036202
:1017C00030BD00000000014030B5026A22F48052B2
:1017D0000262046A4268C3690D6823F4E64343EA7F
:1017E00005238D6824F4005444EA0534064DA842CC
:1017F00004D14D6922F4804242EA85124260C361FD
:1018000049680164046230BD0000014010B5036AFC
:10181000046A24F001040462846924F0F00444EAB8
:10182000021423F00A020A438461026210BD10B55B
:10183000036A23F0100303628369046A23F470438C
:1018400043EA023224F0A00343EA011182610162FB
:1018500010BD00002DE9F04104460068016921F443
:101860004052E168114301612168C86849F20C6285
:1018700090432369A268E5691A4363692B431A43BD
:101880000243CA602168486920F44072A06910438D
:101890004861E1696425B1F5004F9748974A21688E
:1018A0004FF032083FD0914201D081427CD1FFF706
:1018B00023F800EBC00101EB001061688900B0FB68
:1018C000F1F6FFF719F800EBC00101EB00106168B9
:1018D0008900B0FBF1F0B0FBF5F06FF01801484360
:1018E00006EB800108EB0110B0FBF5F000F0F0060C
:1018F000FFF702F800EBC00101EB001061688900FE
:10190000B0FBF1F0B0FBF5F006EB0016FEF7F4FFCC
:1019100000EBC00101EB001061688900B0FBF1F73A
:10192000FEF7EAFFD2E0914201D081423DD1FEF7BD
:10193000E3FF00EBC00101EB001061684900B0FB60
:10194000F1F0B0FBF5F00601FEF7D6FF00EBC001A9
:1019500001EB001061684900B0FBF1F7FEF7CCFF26
:1019600000EBC00101EB001061684900B0FBF1F031
:10197000B0FBF5F06FF01801484307EB800108EB6E
:10198000C100B0FBF5F000F0F80006EB4006FEF7F2
:10199000B3FF00EBC00101EB001061684900B0FB30
:1019A000F1F7FEF7A9FF3CE055E0FEF795FF00EBED
:1019B000C00101EB001061684900B0FBF1F0B0FB21
:1019C000F5F00601FEF788FF00EBC00101EB001007
:1019D00061684900B0FBF1F7FEF77EFF00EBC00144
:1019E00001EB001061684900B0FBF1F0B0FBF5F0CD
:1019F0006FF01801484307EB800108EBC100B0FB12
:101A0000F5F000F0F80006EB4006FEF765FF00EB8E
:101A1000C00101EB001061684900B0FBF1F7FEF76F
:101A20005BFF00EBC00101EB001061684900B0FBF7
:101A3000F1F0B0FBF5F06FF01801484307EB8001BF
:101A400008EBC100B0FBF5F000F00700216830445E
:101A50008860BDE8F081FEF73FFF00EBC00101EBBD
:101A6000001061688900B0FBF1F6FEF735FF00EB6E
:101A7000C00101EB001061688900B0FBF1F0B0FB20
:101A8000F5F06FF01801484306EB800108EB0110F8
:101A9000B0FBF5F000F0F006FEF71EFF00EBC00112
:101AA00001EB001061688900B0FBF1F0B0FBF5F0CC
:101AB00006EB0016FEF710FF00EBC00101EB001073
:101AC00061688900B0FBF1F7FEF706FF00EBC0018B
:101AD00001EB001061688900B0FBF1F0B0FBF5F09C
:101AE0006FF01801484307EB800108EB0110B0FBD1
:101AF000F5F000F00F00A9E70014014000100140CC
:101B00002DE9F041984617460E460446069D1DE015
:101B1000681C1BD02DB1FEF7A9FDA0EB0800A84260
:101B200014D92068C16821F4D071C160206841696E
:101B300021F001014161202084F8390084F83A0045
:101B4000002084F838000320BDE8F0812068006898
:101B500036EA000004D00020B842D9D00020F3E7D4
:101B60000120F9E7FEE702E008C8121F08C1002AB9
:101B7000FAD170477047002001E001C1121F002A0E
:101B8000FBD170472DED028B86B0FEF77DFDFFF790
:101B9000C5FCFFF721FCFFF735FCFFF78DFC3BA0F0
:101BA00001AB07C883E807003BA03C4E00689FEDEF
:101BB0003C8B3D4D0024049030680068C043800693
:101BC000FAD44FF47A773B46012269463348FFF74F
:101BD00049FB01A8FEF73FFB82B23B4601A92F4813
:101BE000FFF79CFB3B46012269462C48FFF796FB1A
:101BF00004A8FEF730FB82B23B4604A92748FFF752
:101C00008DFB9DF80000722801D052280ED1062CC1
:101C10000CDA2046FEF798FB53EC182BFEF722FB5C
:101C2000FEF7A3FB2968C863082123E0672804D0D6
:101C3000622811D042280FD023E0062C21DA20465A
:101C4000FEF782FB53EC182BFEF70CFBFEF78DFB27
:101C50002968886304210DE0062C12DA2046FEF77D
:101C600073FB53EC182BFEF7FDFAFEF77EFB296899
:101C7000486300210C48FFF775FA6420FEF720FC4A
:101C8000641C052C98DD002496E70000636C6963F2
:101C90006B203D3D3E0000000A0D00004C0000207E
:101CA00034333333333F9F401000002000000000E6
:101CB00000000000010203040607080900000000FC
:101CC00001020304E41C00080000002010000000D2
:101CD000661B0008F41C00081000002080040000AF
:101CE000761B00080100000010000000000000004A
:041CF0000024F400D8
:040000050800019955
:00000001FF
