:020000040800F2
:10000000D8040020AD01000857110008371000087F
:1000100055110008F5020008C11400080000000096
:100020000000000000000000000000005B1100085C
:10003000F702000800000000591100085D110008D7
:10004000C7010008C7010008C7010008C701000870
:10005000C7010008C7010008C7010008C701000860
:10006000C7010008C7010008C7010008C701000850
:10007000C7010008C7010008C7010008C701000840
:10008000C7010008C7010008C70100080000000000
:10009000000000000000000000000000C701000890
:1000A000C7010008FD110008C7010008C7010008CA
:1000B00015120008C7010008C7010008C7010008A1
:1000C000C7010008C7010008C7010008C7010008F0
:1000D000C7010008C7010008C701000800000000B0
:1000E000C7010008C7010008C701000800000000A0
:1000F000000000000000000000000000C701000830
:1001000000000000C7010008C7010008C70100087F
:1001100000000000000000000000000000000000DF
:10012000C7010008C7010008C7010008C70100088F
:10013000C7010008000000000000000000000000EF
:10014000000000000000000000000000C7010008DF
:10015000C7010008C7010008C7010008C70100085F
:10016000C7010008C70100080000000000000000EF
:10017000000000000000000000000000000000007F
:1001800000000000C701000800000000000000009F
:10019000C7010008C7010008DFF80CD000F098F88C
:1001A00000480047CD180008D804002006488047C2
:1001B00006480047FEE7FEE7FEE7FEE7FEE7FEE74C
:1001C000FEE7FEE7FEE7FEE7E111000899010008FF
:1001D0002DE9F05F0546002092469B46884606467C
:1001E000814640241BE0284641464746224600F00F
:1001F0005EF853465A46C01A914110D3114618462C
:10020000224600F045F82D1A67EB01084F462246BA
:100210000120002100F03CF817EB00094E41201EA0
:10022000A4F10104DFDC484631462A464346BDE8D6
:10023000F09FD2B201E000F8012B491EFBD27047BB
:100240000022F6E710B513460A4604461946FFF7A2
:10025000F0FF204610BD421C10F8011B0029FBD105
:10026000801A704730B50B46014600202022012439
:1002700009E021FA02F59D4205D303FA02F5491B74
:1002800004FA02F52844151EA2F10102F1DC30BD8A
:10029000202A04DB203A00FA02F100207047914046
:1002A000C2F1200320FA03F3194390407047202A3B
:1002B00004DB203A21FA02F00021704721FA02F310
:1002C000D040C2F120029140084319467047000017
:1002D000064C074D06E0E06840F0010394E8070093
:1002E00098471034AC42F6D3FFF75AFF281900089C
:1002F00048190008FEE77047704700002DE9F84FE5
:1003000000224FF0010803254FF00F0E0B6808FA8A
:1003100002F42340A34271D14E68012E05D0022E73
:1003200003D0112E01D0122E15D18668570005FA80
:1003300007FC26EA0C06D1F80CC00CFA07FC4CEAC4
:10034000060CC0F808C04668A6430C79C4F3001434
:10035000944034434460C668570005FA07FC8C6833
:1003600026EA0C06BC403443C4604C68022C01D021
:10037000122C13D1D40800EB8404A346D4F82090A7
:1003800054074FEAD46A0EFA0AF629EA06090E69FA
:1003900006FA0AF646EA0906CBF8206004680E79E8
:1003A00024EA0C0406F00306BE40264306604C68AF
:1003B000E40056D52E4C266846F480462660246814
:1003C00022F0030604F4804400942A4C3444A446EA
:1003D000D4F808489607370F0EFA07F6B443264EAE
:1003E000B04201D1002615E0244EB04201D10126D1
:1003F00010E0234EB04202D102260BE031E0214E44
:10040000B04201D1032605E01F4EB04201D10426BF
:1004100000E00726BE402643CCF808681B4E34682F
:100420004F689C43FF0300D51C433460174E361DB4
:1004300034684F689C43BF0300D51C433460134E9F
:10044000083634684F689C43FF0200D51C43346073
:100450000E4E0C3634684F689C43BF0200D51C43D7
:100460003460521C102AFFF451AFBDE8F88F000031
:1004700044380240003001400000024000040240C5
:1004800000080240000C024000100240003C014005
:100490000148806870470000080000200248816819
:1004A0000278114481607047080000200B4810B5A5
:1004B000016841F400710160016841F480610160EC
:1004C000016841F480710160032000F071F80020A0
:1004D00000F006F800F024F8002010BD003C0240B7
:1004E00070B50D4D04464FF47A712878B1FBF0F0E9
:1004F0000A490968B1FBF0F000F004FB48B9102C80
:1005000007D200222146501E00F032F800206C6015
:1005100070BD012070BD0000080000201400002004
:100520000B4882B0016841F480410160006800F42A
:10053000804000900648001F016841F08051016032
:10054000006800F080500090052002B000F030B844
:1005500044380240002809DB00F01F0201219140CD
:100560004009800000F1E020C0F800117047000051
:10057000F0B40E4B1B680C46C3F30223C3F107050E
:10058000042D00D90425191D072901D2002300E0FC
:10059000DB1E012606FA05F1491E214099409E40C6
:1005A000761E16403143F0BC00F0A0BF0CED00E019
:1005B000064900F0070208684FF6FF03184040EABA
:1005C0000220034A10430860704700000CED00E071
:1005D0000000FA052DE9F0470E46050065D0DFF86A
:1005E0001481D8F80000F7B200F00F00B04207D233
:1005F00088F80070D8F8000000F00F00B04254D125
:1006000028683D4C810712D5400703D5206840F487
:10061000E05020602878000703D5206840F460404F
:1006200020602068A96820F0F00008432060287846
:10063000C0072DD0304968680839012812D0022837
:1006400013D0032811D00968890700292DDA216801
:1006500021F0030101432160FFF71AFF814641F2B7
:10066000883A0EE009688903EFE709688901ECE739
:10067000FFF70EFFA0EB0901514502D90320BDE8A9
:10068000F0872068696800F00C00B0EB810FEFD1B3
:10069000D8F80010404601F00F01B14207D90770A9
:1006A000006800F00F00B04201D00120E7E7287891
:1006B000400705D52068E96820F4E0500843206031
:1006C0002878000706D52068296920F4604040EAB0
:1006D000C100206000F038F82168084AC1F3031116
:1006E000515CC8400649086006480068FFF7F8FEFC
:1006F0000020C4E7003C02400838024010190008FE
:10070000140000200C000020044805490068096816
:10071000044AC1F38221515CC84070471400002094
:100720000838024020190008044805490068096893
:10073000044AC1F34231515CC840704714000020A4
:100740000838024020190008154810B5006810F05C
:100750000C02144813D04110042A0FD0082A0ED1DD
:100760000F4C241F2268236802F03F025B0207D56A
:100770002068C0F38810A0FB010106E0084610BD08
:100780002168C1F38811A1FB00010023FFF720FDC0
:100790002168C1F30141491C4900B0FBF1F010BDD3
:1007A000083802400024F4002DE9F84F040076D008
:1007B0002078DFF838A3CE4DC00749D0DAF8001012
:1007C0005046C1F38101012908D00068C0F38100BF
:1007D00002280AD1281D0068400206D52868800337
:1007E00036D560680028E2D032E06068B0F5803F1E
:1007F00010D0B0F5A02F286810D020F480302860E9
:10080000286820F4802028606068A0B1FFF740FECF
:1008100006460CE0286840F48030F4E740F480207D
:100820002860F7E7FFF734FE801B642873D8286838
:100830008003F7D50CE0FFF72BFE064605E000BF6E
:10084000FFF726FE801B6428F0D828688003F7D4C1
:100850002078DFF8A08280074FF000093ED5DAF853
:100860000010504611F00C0F09D00068C0F3810051
:1008700002280BD19D48001F0068400206D428685A
:10088000800715D5E068012809D111E0E068B8B10A
:100890000120C8F80000FFF7FBFD064605E020E157
:1008A000FFF7F6FD801B0228C0D828688007F7D51F
:1008B0002868216920F0F80040EAC10028600DE0B6
:1008C000C8F80090FFF7E4FD064604E0FFF7E0FDFE
:1008D000801B02281FD828688007F7D420780007DB
:1008E00022D5824E844861696C3671B10121016064
:1008F000FFF7CEFD074604E0FFF7CAFDC01B022844
:1009000009D830688007F7D50EE0C0F80090FFF7EF
:10091000BFFD074605E082E0FFF7BAFDC01B0228D5
:100920007DD830688007F7D42078400768D5DFF895
:10093000BCB100270BF1380BDBF80000C0000BD472
:10094000DBF8001041F08051CBF80010DBF800001C
:10095000012700F080500090684E3068C00510D428
:10096000306840F480703060FFF792FD009005E041
:10097000FFF78EFD0099401A022850D83068C00554
:10098000F6D55A4EA068683601280FD00528306881
:1009900010D020F001003060306820F0040030609A
:1009A000A068B8B1FFF774FD00900FE0306840F028
:1009B0000100F4E740F004003060F7E7FFF768FD5E
:1009C0000099411A41F28830814266D83068800728
:1009D000F4D50EE0FFF75CFD009007E0FFF758FD4F
:1009E0000099411A41F28830814256D83068800718
:1009F000F4D42FB1DBF8001021F08051CBF80010B7
:100A0000A069D0B3DAF800205146C2F38102022A6D
:100A10004AD00228484607D0C8F8600000E03CE011
:100A2000FFF736FD04463BE04746C8F86000FFF795
:100A30002FFD064605E000BFFFF72AFD801B0228B8
:100A40002BD828688001F7D4D4E907010843A16AAC
:100A50002B4A490802EB0141626A41EA82110843CC
:100A600094F82C1040EA01612048001F0160012029
:100A70003866FFF70DFD044605E034E0FFF708FD9A
:100A8000001B022809D828688001F7D52BE000BF99
:100A9000FFF7FEFC001B022802D90320BDE8F88FF7
:100AA00028688001F4D41EE00128F7D00868E269C4
:100AB00000F48001914214D1226A00F03F0191427A
:100AC0000FD147F6C071626A0140914209D1A26A12
:100AD00000F44031914204D1E16A00F07060884234
:100AE00001D00120DAE70020D8E7000008380240F2
:100AF0000038024000004742800E4742007000402C
:100B00000000FFFF10B5401EB0F1807F01D301202F
:100B100010BD4FF0E02460610F21601700F0E6FC8B
:100B20000020A06107202061002010BD70477047A1
:100B300070B590F83C20012A2CD0012480F83C406C
:100B4000022280F83D2003685A689D6822F07006F2
:100B50000A6832435A60104B02689A420ED0B2F1D2
:100B6000804F0BD00D4B9A4208D00D4B9A4205D0C6
:100B70000C4B9A4202D00C4B9A4204D1496825F0A2
:100B800080031943916080F83D40002180F83C10BB
:100B9000084670BD022070BD000001400004004006
:100BA00000080040000C00400040014010B5040067
:100BB00003D094F83D0010B107E0012010BD0020E3
:100BC00084F83C00204600F00DF8022084F83D0037
:100BD000211D206800F02CFB012084F83D0000203E
:100BE00010BD000008B50068154988420FD11548AE
:100BF000016841F0010101600068002200F001007D
:100C0000009001211920FFF7B3FC192012E0B0F188
:100C1000804F13D10B48001F016841F001010160B2
:100C20000068002200F00100009002211C20FFF764
:100C30009FFC1C20BDE80840FFF78CBC08BD0000ED
:100C400000000140443802400168CA6842F00102D5
:100C5000CA600068816801F00701062903D00168B5
:100C600041F0010101600020704770B5044690F822
:100C70003C00012817D0012584F83C50022084F85C
:100C80003D002068826822F0770222F47F42826071
:100C90000868502830D00DDC20284DD005DC98B3F2
:100CA00010283BD148E0022070BD302844D04028B5
:100CB00034D139E0602828D0702806D0B0F5805FA4
:100CC0002CD0B0F5005F29D10AE0CB68D1E9012131
:100CD000206800F0F9FA2068816841F0770109E0A6
:100CE000CB68D1E90121206800F0EEFA2068816824
:100CF00041F48041816011E0CA684968206800F0D1
:100D0000F5FA5021206807E016E0CA6849682068B3
:100D100000F0FDFA6021206800F0E0FA84F83D5010
:100D2000002084F83C0070BDCA684968206800F063
:100D3000DDFA40212068EFE7226801461046EBE724
:100D4000704770B50446006801694FF00005C9435B
:100D5000890715D4C168C943890711D4E91E016107
:100D600001202077206880698007204602D0FFF7A5
:100D7000E7FF04E000F098F8204600F096F82577A9
:100D800020680169C943490717D4C168C9434907A5
:100D900013D46FF00401016102202077206880697C
:100DA00010F4407F204602D0FFF7CAFF04E000F0B5
:100DB0007BF8204600F079F8257720680169C9435F
:100DC000090716D4C168C943090712D46FF0080196
:100DD0000161042020772068C0698007204602D086
:100DE000FFF7AEFF04E000F05FF8204600F05DF88A
:100DF000257720680169C943C90617D4C168C9436A
:100E0000C90613D46FF01001016108202077206813
:100E1000C06910F4407F204602D0FFF791FF04E044
:100E200000F042F8204600F040F82577206801697C
:100E3000C943C90708D1C168C943C90704D1891E7C
:100E40000161204600F032F820680169C9430906B3
:100E500009D4C168C943090605D46FF08001016156
:100E60002046FFF763FE20680169C943490609D49B
:100E7000C168C943490605D46FF0400101612046AD
:100E800000F015F820680169C94389060BD4C168D0
:100E9000C943890607D46FF0200101612046BDE8EF
:100EA0007040FFF744BE70BD704770477047704791
:100EB00070B5040004D094F83900002510B106E0A4
:100EC000012070BD84F83850204600F023F824201B
:100ED00084F839002068C16821F40051C1602046BF
:100EE00000F028FA2068016921F49041016120682E
:100EF000416921F02A0141612068C16841F4005133
:100F0000C160E563202084F8390084F83A000020AD
:100F100070BD000010B586B0044614216846FFF786
:100F20008FF913492068884220D1124800210268B5
:100F300042F400320260006800F4003005900D4871
:100F40001038026842F001020260006800F00100FF
:100F500005900C2000900220CDE9010103200390B0
:100F60000720049069460448FFF7C8F906B010BD91
:100F70000044004040380240000002402DE9F843A0
:100F8000044690F839001F4616460D46202850D1D9
:100F9000B5B1AEB194F8380001284AD0012084F8E8
:100FA00038004FF00008C4F83C80212084F8390054
:100FB000FFF76EFAA6848146E68484F8388026E03E
:100FC0000120BDE8F883E08C401EE084A0684B4619
:100FD000B0F5805F4FF000024FF08001204600978F
:100FE00003D000F03BFAE8B90DE000F037FAC8B9D9
:100FF00028882168C0F308004860206908B16D1C8A
:1010000005E0AD1C03E0216815F8010B4860E08C99
:101010000028D8D14B46002240212046009700F0FE
:101020001DFA08B10320CCE7202084F83900002005
:10103000C7E70220C5E7FEE7054808B5016841F0AB
:1010400001010160006800F00100009008BD00008F
:101050003038024010B586B0002416480094019440
:1010600002940394049412490594C0E90014846026
:10107000C460046144618461FFF798FD08B1FFF723
:101080003BF94FF48050009069460A48FFF7EDFDA8
:1010900008B1FFF731F9049404A906480594FFF755
:1010A00047FD002801D0FFF727F906B010BD00006A
:1010B000000001401800002010B586B0002416483A
:1010C000009401940294039404944FF08041059499
:1010D00001606321C0E9011440F2E731C0E9031463
:1010E0008461FFF763FD08B1FFF706F94FF4805004
:1010F000009069460848FFF7B8FD08B1FFF7FCF813
:10110000049404A904480594FFF712FD002801D0B7
:10111000FFF7F2F806B010BD580000200C4810B5DB
:101120000A4901604FF4E1314160002181600C22E5
:10113000C160C0E904128161C161FFF7B9FE0028F6
:1011400003D0BDE81040FFF7D7B810BD0044004001
:1011500098000020FEE7704770477047FFF79EB980
:1011600030B593B030216846FFF76AF814210CA817
:10117000FFF766F818480025016841F080510160CA
:10118000006800F0805011901448016841F440411B
:1011900001600068022400F4404011900120039097
:1011A00010200490009406940820CDE90750642094
:1011B000CDE9090404200B906846FFF7F5FA0CA965
:1011C0000F2081E83100E002CDE90F0503210CA8D2
:1011D000FFF700FA13B030BD403802400070004005
:1011E0000548016841F47001016003494FF0006057
:1011F000803908607047000088ED00E0034801680E
:10120000491C01600248FFF79CBD0000000000205F
:101210001800002010B50448FFF793FD034801684B
:10122000491C016010BD000058000020040000208F
:10123000F0B502681D4B1E4C9F031E4D1E4E98427A
:1012400007D0B84205D0A04203D0A84201D0B04296
:1012500004D122F0700C4A6842EA0C02984210D085
:10126000B8420ED0A0420CD0A8420AD0B04208D05A
:10127000124CA04205D0124CA04202D0114CA04208
:1012800003D122F44074CA6822434C6922F08002E0
:10129000224302608A68C2620A688262984201D16F
:1012A0000969016301214161F0BD000000000140B6
:1012B0000004004000080040000C004000400140D5
:1012C000004401400048014010B5846842EA03220E
:1012D00024F47F440A432243826010BD826822F0D6
:1012E00070020A4342F007018160704710B5036A3B
:1012F000046A24F001040462846924F0F00444EADE
:10130000021423F00A020A438461026210BD10B580
:10131000036A23F0100303628369046A23F47043B1
:1013200043EA023224F0A00343EA01118261016220
:1013300010BD00002DE9F041044600680169E26833
:1013400021F44051114301612169A068E269084319
:101350006169114308432168CA6849F20C639A43E2
:101360000243CA6020684169A26921F440711143B7
:101370004161E069192764253226B0F5004F354AEE
:10138000354920684FF0000806D0884201D09042CD
:1013900036D1FFF7C9F935E0884201D0904202D139
:1013A000FFF7C2F901E0FFF7AFF961684A18A0FB47
:1013B000070148EB0803FEF70BFF0146B0FBF5F011
:1013C0000201B1FBF5F06FF01803584301EB800008
:1013D00006EBC000B0FBF5F000F0F80002EB4002B5
:1013E000B1FBF5F0584301EB800006EBC000B0FB09
:1013F000F5F000F00700216810448860BDE8F08136
:10140000FFF782F961688B0F8A00A0FB0701FEF7E6
:10141000DFFE0146B0FBF5F06FF01802504301EB20
:10142000800006EB0010B0FBF5F000F0F002B1FB1D
:10143000F5F002EB0012B1FBF5F06FF01803584322
:1014400001EB800006EB0010B0FBF5F000F00F00A0
:10145000D1E7000000140140001001402DE9F041E7
:10146000984617460E460446069D1DE0681C1BD094
:101470002DB1FFF70DF8A0EB0800A84214D92068A1
:10148000C16821F4D071C1602068416921F0010177
:101490004161202084F8390084F83A00002084F863
:1014A00038000320BDE8F0812068006836EA0000BB
:1014B00004D00020B842D9D00020F3E70120F9E79A
:1014C000FEE700000FB4084B10B504A902AA039868
:1014D00000F02CF8044602A9002000F0C8F92046CC
:1014E00010BC5DF814FB00006F1800080907090E16
:1014F000002804DB00F1E02080F80014704700F0C1
:101500000F0000F1E02080F8141D704702E008C8C9
:10151000121F08C1002AFAD170477047002001E06D
:1015200001C1121F002AFBD1704700002DE9FF4FB7
:101530008BB088460546002606E025280BD0DDE95D
:101540000D1290476D1C761C28780028F5D10FB03D
:101550003046BDE8F08F0024A146A2460122AE49E4
:1015600000E0044315F8013F203B02FA03F0084273
:10157000F7D128782A2810D06FF02F022878A0F110
:101580003001092915D809EB890102EB410144F02A
:10159000020400EB01096D1CF0E758F8041B5FEA38
:1015A000010903D544F40054C9F1000944F00204D0
:1015B0006D1C28782E2817D115F8010F44F004046B
:1015C0002A280ED06FF02F022878A0F130010929C7
:1015D0000AD80AEB8A0102EB410100EB010A6D1CFB
:1015E000F2E758F804AB6D1C28786C280FD006DCA5
:1015F0004C2817D068280DD06A2814D104E074282C
:1016000010D07A280FD10DE044F400140AE044F41D
:10161000801401E044F440146978814202D104F559
:1016200080146D1C6D1C2878692865D006DC0028A4
:101630008DD0632827D0642806D15DE06E2808D0BD
:1016400073282AD0752877D0DDE90D129047761CD3
:10165000E0E0C4F30250022809D003280DD0D8F8E6
:10166000001004280DD00E6008F10408D2E0D8F86C
:101670000010F217C1E90062F6E7D8F800100E80FA
:10168000F2E70E70F0E718F8041B8DF80010002048
:101690008DF80100EB46012003E058F804BB4FF041
:1016A000FF3061074FF0000701D40AE07F1C574567
:1016B0000DDA8742FADB1BF807100029F6D106E0A5
:1016C0007F1C8742FCDB1BF807100029F8D1DDE9FD
:1016D0000D23A9EB07008146214600F0B1F8304404
:1016E000C61904E0DDE90D121BF8010B90477F1EBF
:1016F000F8D22146484688E058F8040BC4F302515A
:101700004FF00A0B032900D100B2042900D140B2E6
:10171000002802DA40422D2102E0210505D52B21C7
:101720008DF82410012104E006E0E10710D020210B
:10173000F6E708AF089113E058F8040BC4F3025120
:101740004FF00A0B032900D180B2042900D1C0B2A6
:101750000021EEE75946FEF785FD303107F8011DFF
:101760000028F7D1ADEB070000F1200B600702D590
:1017700024F4803401E04FF0010ADA4502DDAAEBDF
:101780000B0000E00020824600EB0B0108980144AA
:10179000A9EB01000A90E00306D4DDE90D23214600
:1017A0000A9800F04DF806444FF0000908E009A936
:1017B00011F80900DDE90D12904709F10109761CC5
:1017C00008998945F3DBE0030CD5DDE90D232146BB
:1017D0000A9800F035F8064404E0DDE90D123020E7
:1017E0009047761CBAF10001AAF1010AF5DC05E088
:1017F000DDE90D1217F8010B9047761CBBF10001D3
:10180000ABF1010BF4DC0A982146DDE90D2300F071
:1018100005F806446D1C97E6092801002DE9F04102
:10182000044600251E461746880404D405E03946C0
:101830002020B0476D1C641EF9D52846BDE8F08114
:101840002DE9F041044600251E469046C80301D507
:10185000302700E02027880404D505E041463846BB
:10186000B0476D1C641EF9D52846BDE8F0810A68B2
:10187000531C0B60107070471FB54FF47A74B0FBA7
:10188000F4F23C21B2FBF1F301FB13234EF660228C
:10189000B0FBF2F0B0FBF1F201FB120206A16846C8
:1018A000FFF710FE6846FEF7D6FC82B22346694673
:1018B0000548FFF763FB1FBD1B5B324A25303264CE
:1018C0003A253032640D000098000020FEF7EEFD4E
:1018D000FFF746FCFFF7B0FBFFF7BCFBFFF7ECFBA5
:1018E000FFF71CFC0848FFF7AFF9084C4FF4C87528
:1018F0006068B0FBF5F105FB11000028F8D1206805
:10190000FFF7BAFFF4E700001800002000000020F5
:10191000000000000000000001020304060708099F
:101920000000000001020304481900080000002024
:10193000180000000C1500086019000818000020AD
:10194000C00400001C15000800000000000000009A
:101950000100000010000000000000000024F4005E
:040000050800019955
:00000001FF
