:020000040800F2
:10000000A0040020AD0100089B100008CF0F0008DD
:1000100099100008F1030008CD120008000000004C
:100020000000000000000000000000009F10000819
:10003000F3030008000000009D100008A110000854
:10004000C7010008C7010008C7010008C701000870
:10005000C7010008C7010008C7010008C701000860
:10006000C7010008C7010008C7010008C701000850
:10007000C7010008C7010008C7010008C701000840
:10008000C7010008C7010008C70100080000000000
:10009000000000000000000000000000C701000890
:1000A000C7010008C7010008C7010008C701000810
:1000B000C7010008C7010008C7010008C701000800
:1000C000C7010008C7010008C7010008C7010008F0
:1000D000C7010008C7010008C701000800000000B0
:1000E000C7010008C7010008C701000800000000A0
:1000F000000000000000000000000000C701000830
:1001000000000000C7010008C7010008C70100087F
:1001100000000000000000000000000000000000DF
:10012000C7010008C7010008C7010008C70100088F
:10013000C7010008000000000000000000000000EF
:10014000000000000000000000000000C7010008DF
:10015000C7010008C7010008C7010008C70100085F
:10016000C7010008C70100080000000000000000EF
:10017000000000000000000000000000000000007F
:1001800000000000C701000800000000000000009F
:10019000C7010008C7010008DFF80CD000F082F8A2
:1001A000004800471D160008A004002006488047AC
:1001B00006480047FEE7FEE7FEE7FEE7FEE7FEE74C
:1001C000FEE7FEE7FEE7FEE72511000899010008BB
:1001D0002DE9F05F0546002092469B46884606467C
:1001E000814640241BE0284641464746224600F00F
:1001F00048F853465A46C01A914110D31146184642
:10020000224600F02FF82D1A67EB01084F462246D0
:100210000120002100F026F817EB00094E41201EB6
:10022000A4F10104DFDC484631462A464346BDE8D6
:10023000F09FD2B201E000F8012B491EFBD27047BB
:100240000022F6E710B513460A4604461946FFF7A2
:10025000F0FF204610BD421C10F8011B0029FBD105
:10026000801A7047202A04DB203A00FA02F10020AD
:1002700070479140C2F1200320FA03F319439040E4
:100280007047202A04DB203A21FA02F0002170474F
:1002900021FA02F3D040C2F12002914008431946EE
:1002A00070470000064C074D06E0E06840F001038F
:1002B00094E8070098471034AC42F6D3FFF770FF7C
:1002C0008C160008AC160008464910B54A6822F49E
:1002D00040324A604A6843681A434A6001684A6883
:1002E00022F480724A6001684A68036942EA032284
:1002F0004A6001684A6822F040724A6001684A68B0
:1003000083681A434A6001688A6822F400628A603E
:1003100001688A68C3681A438A60816A6FF07062F4
:10032000D14201688A6822F070628A6001688A6836
:100330000CD0836A1A438A6001688A6822F04052AE
:100340008A6001688A68C36A1A4301E022F0405259
:100350008A6001688A6822F002028A6001688A68FD
:10036000037E42EA43028A6090F820100029016867
:100370004A680FD042F400624A6001684A6822F479
:1003800060424A6001684A68174C436A04EB433391
:100390001A4301E022F400624A600168CA6A22F44A
:1003A0007002CA620168CA6A838B104C04EB035363
:1003B0001A43CA6201688A6822F400728A6001687E
:1003C0008A6890F8303042EA43228A6001688A687D
:1003D00022F480628A6001688A68406942EA80206B
:1003E000886010BD0023014000E0FFFF0000F0FF27
:1003F000FEE770477047000078B50024009490F83D
:100400003C20012A19D0012280F83C200A680723E9
:100410000568092A13D9EE680A3A02EB42029340B2
:100420009E43EE600B788A680A3B03EB43039A40D5
:100430000368DD682A43DA6010E0022078BD2E6987
:1004400002EB420293409E432E610B788A6803EBD5
:1004500043039A4003681D692A431A614A681F23AF
:10046000072A13D205686E6B521E02EB820293407C
:100470009E436E630A8893B20A79521E02EB82028F
:1004800093400268556B2B43536327E005680D2AA0
:1004900012D22E6BD21F02EB820293409E432E6338
:1004A0000B790A88DB1F92B203EB83039A4003683F
:1004B0001D6B2A431A6311E0EE6A0D3A02EB8202C9
:1004C00093409E43EE620B790A880D3B92B203EB98
:1004D00083039A400368DD6A2A43DA621B4B05688E
:1004E000194A9D420AD10D68122D07D1556825F48D
:1004F00000055560556845F48005556005689D42C6
:100500001DD1134D0B68AB4201D0112B17D153688D
:1005100023F480035360536843F400035360096875
:10052000A9420CD10B490C4A0968B1FBF2F101EB6D
:100530008101490000E0491E00910029FBD180F8AB
:100540003C40002078BD0000002301400020014015
:10055000120000101000002040420F0070B504008F
:100560004FF0000503D0206C002610B107E00120F9
:1005700070BD204600F01CF8666484F83C60206C76
:10058000C00610D4206C20F4885040F00200206493
:100590002046FFF799FE6664206C20F0020040F0D0
:1005A0000100206400E0012584F83C60284670BD0D
:1005B00010B586B0044614216846FFF741FE114984
:1005C000206888421CD110480021026842F48072E1
:1005D0000260006800F4807005900B4814380268CF
:1005E00042F002020260006800F002000590012063
:1005F00000900320CDE901016946044800F01AF893
:1006000006B010BD00200140443802400004024002
:1006100070B5044600F0D8F80546601C02D00448C6
:100620000078044400F0D0F8401BA042FAD370BD1B
:10063000040000202DE9F84F00224FF001080325A7
:100640004FF00F0E0B6808FA02F42340A34271D159
:100650004E68012E05D0022E03D0112E01D0122E8D
:1006600015D18668570005FA07FC26EA0C06D1F872
:100670000CC00CFA07FC4CEA060CC0F808C046682F
:10068000A6430C79C4F30014944034434460C66814
:10069000570005FA07FC8C6826EA0C06BC40344378
:1006A000C4604C68022C01D0122C13D1D40800EB8A
:1006B0008404A346D4F8209054074FEAD46A0EFA73
:1006C0000AF629EA06090E6906FA0AF646EA090652
:1006D000CBF8206004680E7924EA0C0406F00306C7
:1006E000BE40264306604C68E40056D52E4C266872
:1006F00046F480462660246822F0030604F4804411
:1007000000942A4C3444A446D4F808489607370F7E
:100710000EFA07F6B443264EB04201D1002615E08A
:10072000244EB04201D1012610E0234EB04202D146
:1007300002260BE031E0214EB04201D1032605E054
:100740001F4EB04201D1042600E00726BE402643DA
:10075000CCF808681B4E34684F689C43FF0300D5F3
:100760001C433460174E361D34684F689C43BF03EA
:1007700000D51C433460134E083634684F689C43E0
:10078000FF0200D51C4334600E4E0C3634684F68AF
:100790009C43BF0200D51C433460521C102AFFF456
:1007A00051AFBDE8F88F00004438024000300140EE
:1007B000000002400004024000080240000C024019
:1007C00000100240003C0140014880687047000072
:1007D000040000200248816802781144816070475B
:1007E000040000200B4810B5016841F4007101605D
:1007F000016841F480610160016841F48071016029
:10080000032000F063F8002000F006F800F024F860
:10081000002010BD003C024070B50D4D04464FF461
:100820007A712878B1FBF0F00A490968B1FBF0F061
:1008300000F0F6FA48B9102C07D200222146501ECB
:1008400000F024F800206C6070BD012070BD000035
:1008500004000020100000200B4882B0016841F421
:1008600080410160006800F4804000900648001F4D
:10087000016841F080510160006800F080500090F4
:10088000072002B000F022B844380240F0B40E4B0A
:100890001B680C46C3F30223C3F10705042D00D9DE
:1008A0000425191D072901D2002300E0DB1E0126C3
:1008B00006FA05F1491E214099409E40761E1640D9
:1008C0003143F0BC00F018BD0CED00E0064900F02B
:1008D000070208684FF6FF03184040EA0220034A67
:1008E00010430860704700000CED00E00000FA05BE
:1008F0002DE9F0470E46050065D0DFF81481D8F8E1
:100900000000F7B200F00F00B04207D288F8007084
:10091000D8F8000000F00F00B04254D128683D4CD8
:10092000810712D5400703D5206840F4E0502060CD
:100930002878000703D5206840F4604020602068D4
:10094000A96820F0F000084320602878C0072DD067
:10095000304968680839012812D0022813D00328CA
:1009600011D00968890700292DDA216821F00301D7
:1009700001432160FFF728FF814641F2883A0EE0EB
:1009800009688903EFE709688901ECE7FFF71CFFB5
:10099000A0EB0901514502D90320BDE8F08720688A
:1009A000696800F00C00B0EB810FEFD1D8F80010AF
:1009B000404601F00F01B14207D90770006800F00E
:1009C0000F00B04201D00120E7E72878400705D5A5
:1009D0002068E96820F4E050084320602878000788
:1009E00006D52068296920F4604040EAC1002060F3
:1009F00000F038F82168084AC1F30311515CC8407F
:100A00000649086006480068FFF706FF0020C4E7B3
:100A1000003C024008380240741600081000002014
:100A2000080000200448054900680968044AC1F329
:100A30008221515CC84070471000002008380240F5
:100A4000841600080448054900680968044AC1F38F
:100A50004231515CC8407047100000200838024005
:100A600084160008154810B5006810F00C021448F0
:100A700013D04110042A0FD0082A0ED10F4C241F86
:100A80002268236802F03F025B0207D52068C0F3AA
:100A90008810A0FB010106E0084610BD2168C1F3E3
:100AA0008811A1FB00010023FFF792FB2168C1F32D
:100AB0000141491C4900B0FBF1F010BD083802406B
:100AC0000024F4002DE9F84F040076D02078DFF8F8
:100AD00038A3CE4DC00749D0DAF800105046C1F314
:100AE0008101012908D00068C0F3810002280AD1E1
:100AF000281D0068400206D52868800336D5606846
:100B00000028E2D032E06068B0F5803F10D0B0F548
:100B1000A02F286810D020F480302860286820F4A6
:100B2000802028606068A0B1FFF74EFE06460CE00A
:100B3000286840F48030F4E740F480202860F7E72C
:100B4000FFF742FE801B642873D828688003F7D51E
:100B50000CE0FFF739FE064605E000BFFFF734FE64
:100B6000801B6428F0D828688003F7D42078DFF849
:100B7000A08280074FF000093ED5DAF800105046F9
:100B800011F00C0F09D00068C0F3810002280BD1CE
:100B90009D48001F0068400206D42868800715D5CC
:100BA000E068012809D111E0E068B8B10120C8F877
:100BB0000000FFF709FE064605E020E1FFF704FE0E
:100BC000801B0228C0D828688007F7D528682169CB
:100BD00020F0F80040EAC10028600DE0C8F800905D
:100BE000FFF7F2FD064604E0FFF7EEFD801B02284A
:100BF0001FD828688007F7D42078000722D5824EB6
:100C0000844861696C3671B101210160FFF7DCFD38
:100C1000074604E0FFF7D8FDC01B022809D830685A
:100C20008007F7D50EE0C0F80090FFF7CDFD07462E
:100C300005E082E0FFF7C8FDC01B02287DD83068C0
:100C40008007F7D42078400768D5DFF8BCB10027CB
:100C50000BF1380BDBF80000C0000BD4DBF8001000
:100C600041F08051CBF80010DBF80000012700F0C4
:100C700080500090684E3068C00510D4306840F451
:100C800080703060FFF7A0FD009005E0FFF79CFD4D
:100C90000099401A022850D83068C005F6D55A4E3F
:100CA000A068683601280FD00528306810D020F0E1
:100CB00001003060306820F004003060A068B8B1F6
:100CC000FFF782FD00900FE0306840F00100F4E78C
:100CD00040F004003060F7E7FFF776FD0099411A15
:100CE00041F28830814266D830688007F4D50EE042
:100CF000FFF76AFD009007E0FFF766FD0099411AD3
:100D000041F28830814256D830688007F4D42FB140
:100D1000DBF8001021F08051CBF80010A069D0B3AF
:100D2000DAF800205146C2F38102022A4AD0022892
:100D3000484607D0C8F8600000E03CE0FFF744FDFB
:100D400004463BE04746C8F86000FFF73DFD064615
:100D500005E000BFFFF738FD801B02282BD828686C
:100D60008001F7D4D4E907010843A16A2B4A490856
:100D700002EB0141626A41EA8211084394F82C10A7
:100D800040EA01612048001F016001203866FFF73A
:100D90001BFD044605E034E0FFF716FD001B0228AA
:100DA00009D828688001F7D52BE000BFFFF70CFDBC
:100DB000001B022802D90320BDE8F88F28688001B3
:100DC000F4D41EE00128F7D00868E26900F480013D
:100DD000914214D1226A00F03F0191420FD147F6AF
:100DE000C071626A0140914209D1A26A00F44031A7
:100DF000914204D1E16A00F07060884201D0012084
:100E0000DAE70020D8E70000083802400038024046
:100E100000004742800E4742007000400000FFFF84
:100E200010B5401EB0F1807F01D3012010BD4FF0FE
:100E3000E02460610F21601700F05EFA0020A061DD
:100E400007202061002010BD70B5040004D094F884
:100E50003900002510B106E0012070BD84F838503B
:100E6000204600F023F8242084F839002068C16867
:100E700021F40051C160204600F062F92068016948
:100E800021F4904101612068416921F02A0141610A
:100E90002068C16841F40051C160E563202084F8F6
:100EA000390084F83A00002070BD000010B586B00B
:100EB000044614216846FFF7C3F9134920688842A5
:100EC00020D112480021026842F40032026000681A
:100ED00000F4003005900D481038026842F001021D
:100EE0000260006800F0010005900C2000900220D4
:100EF000CDE90101032003900720049069460448CE
:100F0000FFF798FB06B010BD004400404038024097
:100F1000000002402DE9F843044690F839001F46CE
:100F200016460D46202850D1B5B1AEB194F8380020
:100F300001284AD0012084F838004FF00008C4F896
:100F40003C80212084F83900FFF73EFCA6848146CE
:100F5000E68484F8388026E00120BDE8F883E08C40
:100F6000401EE084A0684B46B0F5805F4FF0000261
:100F70004FF080012046009703D000F075F9E8B9E2
:100F80000DE000F071F9C8B928882168C0F30800A5
:100F90004860206908B16D1C05E0AD1C03E02168C4
:100FA00015F8010B4860E08C0028D8D14B46002290
:100FB00040212046009700F057F908B10320CCE704
:100FC000202084F839000020C7E70220C5E7FEE7AB
:100FD0007FB50024154800940194029412490394AB
:100FE00001604FF48031C0E90114012504610576E8
:100FF00080F820400E49C0E90A14C561C46080F839
:1010000030404461FFF7AAFA08B1FFF7F3F908206E
:10101000CDE90005694602940448FFF7EDF9002880
:1010200001D0FFF7E7F97FBD002001401400002048
:101030000100000F094808B5016841F00101016095
:10104000016801F001010091016841F002010160B5
:10105000006800F00200009008BD00003038024037
:101060000C4810B50A4901604FF4E131416000219C
:1010700081600C22C160C0E904128161C161FFF787
:10108000E3FE002803D0BDE81040FFF7B3B910BD60
:10109000004400405C000020FEE770477047704746
:1010A000FFF798BB30B593B030216846FFF7C8F81A
:1010B00014210CA8FFF7C4F818480025016841F076
:1010C00080510160006800F0805011901448016860
:1010D00041F4404101600068022400F44040119056
:1010E0000120039010200490009406940820CDE97C
:1010F00007506420CDE9090404200B906846FFF7EF
:10110000E1FC0CA90F2081E83100E002CDE90F05D8
:1011100003210CA8FFF7ECFB13B030BD40380240B0
:10112000007000400548016841F470010160034906
:101130004FF00060803908607047000088ED00E0E3
:101140002DE9F041044600680169E26821F440514C
:10115000114301612169A068E26908436169114393
:1011600008432168CA6849F20C639A430243CA6083
:1011700020684169A26921F4407111434161E0692D
:10118000192764253226B0F5004F354A35492068C5
:101190004FF0000806D0884201D0904236D1FFF7C8
:1011A00051FC35E0884201D0904202D1FFF74AFC61
:1011B00001E0FFF737FC61684A18A0FB070148EB24
:1011C0000803FFF705F80146B0FBF5F00201B1FB9B
:1011D000F5F06FF01803584301EB800006EBC000F8
:1011E000B0FBF5F000F0F80002EB4002B1FBF5F0C7
:1011F000584301EB800006EBC000B0FBF5F000F0B7
:101200000700216810448860BDE8F081FFF70AFC00
:1012100061688B0F8A00A0FB0701FEF7D9FF01462A
:10122000B0FBF5F06FF01802504301EB800006EBC5
:101230000010B0FBF5F000F0F002B1FBF5F002EBAE
:101240000012B1FBF5F06FF01803584301EB80007A
:1012500006EB0010B0FBF5F000F00F00D1E7000046
:1012600000140140001001402DE9F0419846174656
:101270000E460446069D1DE0681C1BD02DB1FFF7ED
:10128000A3FAA0EB0800A84214D92068C16821F491
:10129000D071C1602068416921F0010141612020C5
:1012A00084F8390084F83A00002084F838000320DC
:1012B000BDE8F0812068006836EA000004D0002014
:1012C000B842D9D00020F3E70120F9E7FEE700009B
:1012D0000FB4084B10B504A902AA039800F02CF82B
:1012E000044602A9002000F087F9204610BC5DF8F2
:1012F00014FB0000F91500080907090E002804DB9B
:1013000000F1E02080F80014704700F00F0000F1B9
:10131000E02080F8141D704702E008C8121F08C1C1
:10132000002AFAD170477047002001E001C1121F66
:10133000002AFBD1704700002DE9FF4F8DB09B467E
:101340000F460446002606E025280BD05A460F9982
:101350009047641C761C20780028F5D111B03046E7
:10136000BDE8F08F0025A8460122984900E005431A
:1013700014F8013F203B02FA03F00842F7D120782D
:101380002E2817D114F8010F45F004052A280ED095
:101390006FF02F022078A0F1300109290AD808EB5C
:1013A000880102EB410100EB0108641CF2E757F8E9
:1013B000048B641C20786C280DD004DC4C2812D0DF
:1013C0006A2811D104E074280DD07A280CD10AE0E3
:1013D00045F4001507E0617845F48015814202D19B
:1013E000641C05F58015641C2278692A45D008DC48
:1013F000002AB3D0582A69D0632A10D0642A08D1B1
:101400003BE0702A67D0732A13D0752A5CD0782A03
:101410005CD010465A460F999047761CD3E017F8D7
:10142000040B8DF8000000208DF80100E946012032
:1014300003E057F8049B4FF0FF3069074FF00005B9
:1014400001D40AE06D1C45450DDA8542FADB19F836
:1014500005100029F6D106E06D1C8542FCDB19F869
:1014600005100029F8D12E4404E019F8010B5A4662
:101470000F9990476D1EF8D2A5E00A200021CDE912
:101480000801C5F3025002280DD001CFC117031E79
:1014900071F100030DDA4FF0000CD0EB0C006CEB97
:1014A00001012D2308E0FF1D27F00707F7E80201DF
:1014B000EDE72B0504D52B238DF8283001233BE0E5
:1014C000EB0739D02023F7E70A2000E010200021A5
:1014D000CDE9080107E01020002145F00405CDE921
:1014E00008014FF00808C5F3025002280FD001CFC1
:1014F00000214FF0000A2B071FD5702A0DD0DDE91F
:1015000008C38CF0100C5CEA030C0CD015E0FF1D36
:1015100027F00707F7E80201EBE740228DF82820C3
:101520004FF0010A0BE050EA010306D030238DF89A
:1015300028308DF8292002239A46582A04D024A264
:101540000DF120090B9209E026A2F9E7DDE9082355
:10155000FEF73EFE0B9B9B5C09F8013D50EA010241
:10156000F4D1ADEB090020300890680701D44FF0AA
:1015700001080899884502DDA8EB010000E0002081
:101580008046002506E00AA85A46405D0F9990471C
:101590006D1C761C5545F6DB04E030205A460F9949
:1015A0009047761CB8F10001A8F10108F5DC05E0D0
:1015B00019F8010B5A460F999047761C0899481E56
:1015C00008900029F4DC641CC5E60000092801002D
:1015D00030313233343536373839616263646566A9
:1015E000000000003031323334353637383941426B
:1015F00043444546000000000A68531C0B6010700D
:101600007047000008B5024603A16846FFF760FE78
:10161000684600F015F808BD25580000FFF7E2F80D
:10162000FFF740FDFFF706FDFFF7D2FCFFF718FDBF
:1016300002480068FFF7E6FFFEE700000000002018
:1016400010B504460A4800680168C9434906FBD43E
:101650002046FEF700FE82B24FF47A73214604481A
:10166000FFF758FCBDE810406420FEF7D1BF000032
:101670005C000020000000000000000001020304E4
:10168000060708090000000001020304AC16000868
:10169000000000201400000018130008C016000805
:1016A000140000208C04000028130008F50100003D
:1016B0000100000010000000000000000024F40001
:040000050800019955
:00000001FF
