:020000040800F2
:10000000B0040020AD010008AF170008A3160008D7
:10001000AD17000851090008E119000800000000B0
:10002000000000000000000000000000B3170008FE
:100030005309000800000000B1170008B5170008B8
:10004000C7010008C7010008C7010008C701000870
:10005000C7010008C7010008C7010008C701000860
:10006000C7010008C7010008C7010008C701000850
:10007000C7010008C7010008C7010008C701000840
:10008000C7010008C7010008C70100080000000000
:10009000000000000000000000000000C701000890
:1000A000C7010008C7010008C7010008C701000810
:1000B000C7010008C7010008C7010008C701000800
:1000C000C7010008C7010008C7010008C7010008F0
:1000D000C7010008C7010008C701000800000000B0
:1000E000C7010008C7010008C701000800000000A0
:1000F000000000000000000000000000C701000830
:1001000000000000C7010008C7010008C70100087F
:1001100000000000000000000000000000000000DF
:10012000C7010008C7010008C7010008C70100088F
:10013000C7010008000000000000000000000000EF
:10014000000000000000000000000000C7010008DF
:10015000C7010008C7010008C7010008C70100085F
:10016000C7010008C70100080000000000000000EF
:10017000000000000000000000000000000000007F
:1001800000000000C701000800000000000000009F
:10019000C7010008C7010008DFF80CD000F020FB01
:1001A0000048004751240008B0040020064880475A
:1001B00006480047FEE7FEE7FEE7FEE7FEE7FEE74C
:1001C000FEE7FEE7FEE7FEE73918000899010008A0
:1001D0002DE9F05F0546002092469B46884606467C
:1001E000814640241BE0284641464746224600F00F
:1001F0000CF953465A46C01A914110D3114618467D
:10020000224600F0F3F82D1A67EB01084F4622460C
:100210000120002100F0EAF817EB00094E41201EF2
:10022000A4F10104DFDC484631462A464346BDE8D6
:10023000F09FD2B201E000F8012B491EFBD27047BB
:100240000022F6E710B513460A4604461946FFF7A2
:10025000F0FF204610BD421C10F8011B0029FBD105
:10026000801A70472DE9FE4F81EA030404F0004430
:1002700021F0004100944FF0000B23F0004350EABE
:1002800001045ED052EA03045BD0C3F30A54C1F305
:100290000A552C44A4F2F3340194A0FB0254C1F398
:1002A000130141F48011C3F3130343F4801301FBE2
:1002B000024400FB034E840A970A44EA815447EA49
:1002C0008357A4FB076802958D0A05FB07854FEA53
:1002D000932C04FB0C542705029D4FEA065847EA6D
:1002E0001637B5EB08056EEB070C870E920E47EA42
:1002F000811742EA8312A7FB0201B6EB0B0164EB04
:1003000000042B0D43EA0C335E1844EB1C50DA4614
:100310005146E7FB0201C5F313044FEA0B3343EAEE
:1003200014534FEA0432019C43EA0603A4F10C047F
:100330000294009CCDE900B400F0BDF803B0BDE824
:10034000F08F00200146F9E70EB540F233410291EB
:100350000021CDE900110A460B4600F0ACF803B0CD
:1003600000BD00F0004230F000400AD0C10D01F5A0
:100370006071C0F3160042EA0151C2084007114300
:10038000704700200146704701F0004330B421F06F
:10039000004150EA010206D00A0DA2F56072C1F3D5
:1003A0001301002A02DC30BC00207047440F44EAED
:1003B000C104C100E01830BC00EBC25000F035B8F9
:1003C00030B50B46014600202022012409E021FA25
:1003D00002F59D4205D303FA02F5491B04FA02F522
:1003E0002844151EA2F10102F1DC30BD202A04DBF5
:1003F000203A00FA02F1002070479140C2F1200338
:1004000020FA03F3194390407047202A04DB203A76
:1004100021FA02F00021704721FA02F3D040C2F124
:10042000200291400843194670470029A8BF704731
:10043000401C490008BF20F00100704710B4B0FA1A
:1004400080FC00FA0CF050EA010404BF10BC7047B5
:1004500049B1CCF1200421FA04F411FA0CF118BFCF
:10046000012121430843A3EB0C01CB1D4FEA00619E
:100470004FEA102042BF002010BC704700EBC35071
:1004800010440029A4BF10BC7047401C490008BF9D
:1004900020F0010010BC704710B5141E73F1000469
:1004A00008DA401C41F1000192185B411A4301D166
:1004B00020F0010010BD2DE9F04D92469B4611B190
:1004C000B1FA81F202E0B0FA80F220329046FFF7F2
:1004D0008DFF04460F4640EA0A0041EA0B015346ED
:1004E0005A46084313D0114653EA010019D0C8F107
:1004F00040025046FFF789FF05460E4650465946D2
:100500004246FFF773FF084305D0012004E0204670
:100510003946BDE8F08D0020054346EAE0762C43DD
:1005200037430A986305E40AA0EB08000022FD0A9D
:1005300044EA47540A3002D500200146E9E70105A4
:1005400010196941DDE9084500196941BDE8F04D20
:10055000A2E72DE9FE4F804681EA0300C00F0C465A
:10056000009021F0004123F00045B8EB0200A941C2
:1005700005D24046214690461C460B46024623F0D3
:100580000040104347D0270DC7F30A00C3F30A51B8
:100590000290401A019040286BDAC3F3130040F434
:1005A000801B0098924620B10023D2EB030A63EB34
:1005B0000B0B01985946C0F140025046FFF716FF59
:1005C00006460D4650465946019A00F01BF910EBBD
:1005D00008006141002487EA115284EAE7731A4354
:1005E00040D0009A62B3019A012A4FEA075215DC03
:1005F000001B61EB02014FF0004202EA0752CDE915
:100600000042001C41F5801132462B46FFF753FF94
:1006100003B0BDE8F08F40462146F9E7001B61EBCF
:100620000201001C41F5801300185B412018A2F55F
:10063000001747EB030140EAD570B6196D4111E090
:100640006D084FEA360645EAC0754FEA0752001BAF
:1006500061EB0201001C41F5801149084FEA3000AE
:100660000019514132462B4603B0BDE8F04FFFF769
:1006700013BF0098012240000023D0EB020263EB7D
:10068000E073009821464FEAE074B8EB000061EB9C
:100690000401E9E783F000435BE781F0004158E79C
:1006A0002DE9F04D81EA030404F0004B21F00045F0
:1006B00014464FF0000A23F0004150EA050220D012
:1006C00054EA01021DD0C5F30A570246C5F31303CD
:1006D000C1F31300C1F30A5640F4801543F48013AC
:1006E000A7EB0608101BD64608F2FD3873EB050091
:1006F00002D308F1010801E092185B41B8F1000F44
:1007000003DA00200146BDE8F08D00204FF480118F
:10071000064684460EE0171B73EB050705D3121B34
:1007200063EB050306434CEA010C49084FEA30002D
:1007300092185B4150EA0107EDD152EA030012D052
:1007400082EA040083EA0501084305D0101BAB418F
:1007500006D20122002306E000224FF0004302E00F
:100760006FF0010253101AEB06004CEB085110EB2E
:100770000A0041EB0B01BDE8F04DFFF78DBEC1F360
:100780000A52C1F3130140F2FF3341F480119A423F
:1007900002DA00200146704740F233439A42A2F247
:1007A000334202DC5242FFF730BEFFF71FBE0000AB
:1007B00030B5041E71F1000404DB4FF000444042E8
:1007C00064EB0101141E73F1000405DB1C464FF0BD
:1007D0000043524263EB0403994208BF904230BD8C
:1007E000064C074D06E0E06840F0010394E807007E
:1007F00098471034AC42F6D3FFF7D2FCDC24000853
:10080000FC240008202A06DBCB17203A41FA02F02C
:1008100043EAE07306E041FA02F3D040C2F120025D
:100820009140084319467047464910B54A6822F47A
:1008300040324A604A6843681A434A6001684A681D
:1008400022F480724A6001684A68036942EA03221E
:100850004A6001684A6822F040724A6001684A684A
:1008600083681A434A6001688A6822F400628A60D9
:1008700001688A68C3681A438A60816A6FF070628F
:10088000D14201688A6822F070628A6001688A68D1
:100890000CD0836A1A438A6001688A6822F0405249
:1008A0008A6001688A68C36A1A4301E022F04052F4
:1008B0008A6001688A6822F002028A6001688A6898
:1008C000037E42EA43028A6090F820100029016802
:1008D0004A680FD042F400624A6001684A6822F414
:1008E00060424A6001684A68174C436A04EB43332C
:1008F0001A4301E022F400624A600168CA6A22F4E5
:100900007002CA620168CA6A838B104C04EB0353FD
:100910001A43CA6201688A6822F400728A60016818
:100920008A6890F8303042EA43228A6001688A6817
:1009300022F480628A6001688A68406942EA802005
:10094000886010BD0023014000E0FFFF0000F0FFC1
:10095000FEE770477047000078B50024009490F8D7
:100960003C20012A19D0012280F83C200A68072384
:100970000568092A13D9EE680A3A02EB420293404D
:100980009E43EE600B788A680A3B03EB43039A4070
:100990000368DD682A43DA6010E0022078BD2E6922
:1009A00002EB420293409E432E610B788A6803EB70
:1009B00043039A4003681D692A431A614A681F234A
:1009C000072A13D205686E6B521E02EB8202934017
:1009D0009E436E630A8893B20A79521E02EB82022A
:1009E00093400268556B2B43536327E005680D2A3B
:1009F00012D22E6BD21F02EB820293409E432E63D3
:100A00000B790A88DB1F92B203EB83039A400368D9
:100A10001D6B2A431A6311E0EE6A0D3A02EB820263
:100A200093409E43EE620B790A880D3B92B203EB32
:100A300083039A400368DD6A2A43DA621B4B056828
:100A4000194A9D420AD10D68122D07D1556825F427
:100A500000055560556845F48005556005689D4260
:100A60001DD1134D0B68AB4201D0112B17D1536828
:100A700023F480035360536843F400035360096810
:100A8000A9420CD10B490C4A0968B1FBF2F101EB08
:100A90008101490000E0491E00910029FBD180F846
:100AA0003C40002078BD00000023014000200140B0
:100AB000120000101000002040420F000068C06CBF
:100AC000704770B504004FF0000503D0206C00267D
:100AD00010B107E0012070BD204600F01DF86664EB
:100AE00084F83C60206CC00610D4206C20F4885040
:100AF00040F0020020642046FFF796FE6664206CFA
:100B000020F0020040F00100206400E0012584F89C
:100B10003C60284670BD000010B586B00446142124
:100B20006846FFF78DFB1149206888421CD11048A8
:100B30000021026842F480720260006800F4807054
:100B400005900B481438026842F002020260006807
:100B500000F002000590012000900320CDE9010182
:100B60006946044800F0CAF806B010BD00200140F4
:100B700044380240000402402DE9F0410446006878
:100B80000D4681684FF0000749050BD58068C00508
:100B900008D5206C40F02000206484F83C700120CF
:100BA000BDE8F08100F07AF906460FE0681C0DD030
:100BB00025B100F073F9801BA84207D9206C40F0E2
:100BC0000400206484F83C700320E9E72068006892
:100BD0008007EBD521686FF012000860206C40F4AC
:100BE000007020642068816811F0405F13D1217E7D
:100BF00089B9C16A11F4700F02D0806840050AD427
:100C0000206C20F480702064206CC00403D4206C1D
:100C100040F0010020640020C2E7000018B5002168
:100C2000009190F83C20012A07D0012280F83C2056
:100C300002689368DB0702D011E0022018BD9368B8
:100C400043F001039360204A204B1268B2FBF3F299
:100C500002EB420200E0521E0092002AFBD1026821
:100C60009368DB072DD0036C40F20164A34343F487
:100C70008073036453685B0505D5036C23F400534C
:100C800043F480530364036CDB0404D5436C23F00A
:100C90000603436400E0416480F83C100C496FF0A7
:100CA0002203136049680068C90602D009498842D6
:100CB00007D1816811F0405F03D1816841F0804124
:100CC0008160002018BD00001000002040420F008D
:100CD000002301400020014070B5044600F0DEF81A
:100CE0000546601C02D004480078044400F0D6F8A1
:100CF000401BA042FAD370BD040000202DE9F84F3C
:100D000000224FF0010803254FF00F0E0B6808FA80
:100D100002F42340A34271D14E68012E05D0022E69
:100D200003D0112E01D0122E15D18668570005FA76
:100D300007FC26EA0C06D1F80CC00CFA07FC4CEABA
:100D4000060CC0F808C04668A6430C79C4F300142A
:100D5000944034434460C668570005FA07FC8C6829
:100D600026EA0C06BC403443C4604C68022C01D017
:100D7000122C13D1D40800EB8404A346D4F820909D
:100D800054074FEAD46A0EFA0AF629EA06090E69F0
:100D900006FA0AF646EA0906CBF8206004680E79DE
:100DA00024EA0C0406F00306BE40264306604C68A5
:100DB000E40056D52E4C266846F48046266024680A
:100DC00022F0030604F4804400942A4C3444A446E0
:100DD000D4F808489607370F0EFA07F6B443264EA4
:100DE000B04201D1002615E0244EB04201D10126C7
:100DF00010E0234EB04202D102260BE031E0214E3A
:100E0000B04201D1032605E01F4EB04201D10426B5
:100E100000E00726BE402643CCF808681B4E346825
:100E20004F689C43FF0300D51C433460174E361DAA
:100E300034684F689C43BF0300D51C433460134E95
:100E4000083634684F689C43FF0200D51C43346069
:100E50000E4E0C3634684F689C43BF0200D51C43CD
:100E60003460521C102AFFF451AFBDE8F88F000027
:100E700044380240003001400000024000040240BB
:100E800000080240000C024000100240003C0140FB
:100E90000AB1816170470904FBE7000001488068DE
:100EA0007047000004000020024881680278114465
:100EB00081607047040000200B4810B5016841F4C0
:100EC00000710160016841F480610160016841F4D2
:100ED00080710160032000F063F8002000F006F844
:100EE00000F024F8002010BD003C024070B50D4D0C
:100EF00004464FF47A712878B1FBF0F00A4909688A
:100F0000B1FBF0F000F0F6FA48B9102C07D200223D
:100F10002146501E00F024F800206C6070BD0120B6
:100F200070BD000004000020100000200B4882B0BB
:100F3000016841F480410160006800F48040009045
:100F40000648001F016841F080510160006800F010
:100F500080500090072002B000F022B844380240D0
:100F6000F0B40E4B1B680C46C3F30223C3F1070514
:100F7000042D00D90425191D072901D2002300E002
:100F8000DB1E012606FA05F1491E214099409E40CC
:100F9000761E16403143F0BC00F038BD0CED00E089
:100FA000064900F0070208684FF6FF03184040EAC0
:100FB0000220034A10430860704700000CED00E077
:100FC0000000FA052DE9F0470E46050065D0DFF870
:100FD0001481D8F80000F7B200F00F00B04207D239
:100FE00088F80070D8F8000000F00F00B04254D12B
:100FF00028683D4C810712D5400703D5206840F48E
:10100000E05020602878000703D5206840F4604055
:1010100020602068A96820F0F0000843206028784C
:10102000C0072DD0304968680839012812D002283D
:1010300013D0032811D00968890700292DDA216807
:1010400021F0030101432160FFF728FF814641F2AF
:10105000883A0EE009688903EFE709688901ECE73F
:10106000FFF71CFFA0EB0901514502D90320BDE8A1
:10107000F0872068696800F00C00B0EB810FEFD1B9
:10108000D8F80010404601F00F01B14207D90770AF
:10109000006800F00F00B04201D00120E7E7287897
:1010A000400705D52068E96820F4E0500843206037
:1010B0002878000706D52068296920F4604040EAB6
:1010C000C100206000F038F82168084AC1F303111C
:1010D000515CC8400649086006480068FFF706FFF3
:1010E0000020C4E7003C024008380240C424000845
:1010F0001000002008000020044805490068096825
:10110000044AC1F38221515CC8407047100000209E
:1011100008380240D42400080448054900680968DA
:10112000044AC1F34231515CC840704710000020AE
:1011300008380240D4240008154810B5006810F0A3
:101140000C02144813D04110042A0FD0082A0ED1E3
:101150000F4C241F2268236802F03F025B0207D570
:101160002068C0F38810A0FB010106E0084610BD0E
:101170002168C1F38811A1FB00010023FFF728F8C3
:101180002168C1F30141491C4900B0FBF1F010BDD9
:10119000083802400024F4002DE9F84F040076D00E
:1011A0002078DFF838A3CE4DC00749D0DAF8001018
:1011B0005046C1F38101012908D00068C0F38100C5
:1011C00002280AD1281D0068400206D5286880033D
:1011D00036D560680028E2D032E06068B0F5803F24
:1011E00010D0B0F5A02F286810D020F480302860EF
:1011F000286820F4802028606068A0B1FFF74EFEC8
:1012000006460CE0286840F48030F4E740F4802083
:101210002860F7E7FFF742FE801B642873D8286830
:101220008003F7D50CE0FFF739FE064605E000BF66
:10123000FFF734FE801B6428F0D828688003F7D4B9
:101240002078DFF8A08280074FF000093ED5DAF859
:101250000010504611F00C0F09D00068C0F3810057
:1012600002280BD19D48001F0068400206D4286860
:10127000800715D5E068012809D111E0E068B8B110
:101280000120C8F80000FFF709FE064605E020E14E
:10129000FFF704FE801B0228C0D828688007F7D516
:1012A0002868216920F0F80040EAC10028600DE0BC
:1012B000C8F80090FFF7F2FD064604E0FFF7EEFDE8
:1012C000801B02281FD828688007F7D420780007E1
:1012D00022D5824E844861696C3671B1012101606A
:1012E000FFF7DCFD074604E0FFF7D8FDC01B02282E
:1012F00009D830688007F7D50EE0C0F80090FFF7F6
:10130000CDFD074605E082E0FFF7C8FDC01B0228BF
:101310007DD830688007F7D42078400768D5DFF89B
:10132000BCB100270BF1380BDBF80000C0000BD478
:10133000DBF8001041F08051CBF80010DBF8000022
:10134000012700F080500090684E3068C00510D42E
:10135000306840F480703060FFF7A0FD009005E039
:10136000FFF79CFD0099401A022850D83068C0054C
:10137000F6D55A4EA068683601280FD00528306887
:1013800010D020F001003060306820F004003060A0
:10139000A068B8B1FFF782FD00900FE0306840F020
:1013A0000100F4E740F004003060F7E7FFF776FD56
:1013B0000099411A41F28830814266D8306880072E
:1013C000F4D50EE0FFF76AFD009007E0FFF766FD39
:1013D0000099411A41F28830814256D8306880071E
:1013E000F4D42FB1DBF8001021F08051CBF80010BD
:1013F000A069D0B3DAF800205146C2F38102022A74
:101400004AD00228484607D0C8F8600000E03CE017
:10141000FFF744FD04463BE04746C8F86000FFF78D
:101420003DFD064605E000BFFFF738FD801B0228A2
:101430002BD828688001F7D4D4E907010843A16AB2
:101440002B4A490802EB0141626A41EA82110843D2
:1014500094F82C1040EA01612048001F016001202F
:101460003866FFF71BFD044605E034E0FFF716FD84
:10147000001B022809D828688001F7D52BE000BF9F
:10148000FFF70CFD001B022802D90320BDE8F88FEE
:1014900028688001F4D41EE00128F7D00868E269CA
:1014A00000F48001914214D1226A00F03F01914280
:1014B0000FD147F6C071626A0140914209D1A26A18
:1014C00000F44031914204D1E16A00F0706088423A
:1014D00001D00120DAE70020D8E7000008380240F8
:1014E0000038024000004742800E47420070004032
:1014F0000000FFFF10B5401EB0F1807F01D3012036
:1015000010BD4FF0E02460610F21601700F07EFAFB
:101510000020A06107202061002010BD70B50400EC
:1015200004D094F83900002510B106E0012070BD08
:1015300084F83850204600F023F8242084F839003D
:101540002068C16821F40051C160204600F082F992
:101550002068016921F4904101612068416921F00E
:101560002A0141612068C16841F40051C160E5630E
:10157000202084F8390084F83A00002070BD000073
:1015800010B586B0044614216846FEF759FE13498B
:101590002068884220D112480021026842F40032BB
:1015A0000260006800F4003005900D4810380268B1
:1015B00042F001020260006800F0010005900C207A
:1015C00000900220CDE90101032003900720049040
:1015D00069460448FFF792FB06B010BD0044004086
:1015E00040380240000002402DE9F843044690F8DC
:1015F00039001F4616460D46202850D1B5B1AEB170
:1016000094F8380001284AD0012084F838004FF0BF
:101610000008C4F83C80212084F83900FFF73EFC24
:10162000A6848146E68484F8388026E00120BDE85F
:10163000F883E08C401EE084A0684B46B0F5805FE4
:101640004FF000024FF080012046009703D000F0D9
:1016500095F9E8B90DE000F091F9C8B9288821683A
:10166000C0F308004860206908B16D1C05E0AD1C9E
:1016700003E0216815F8010B4860E08C0028D8D100
:101680004B46002240212046009700F077F908B130
:101690000320CCE7202084F839000020C7E702208F
:1016A000C5E7FEE77FB50024154800940194029435
:1016B0001249039401604FF48031C0E901140125FF
:1016C0000461057680F820400E49C0E90A14C5611E
:1016D000C46080F830404461FFF7F3F908B1FFF7C8
:1016E00039F90820CDE90005694602940448FFF75E
:1016F00033F9002801D0FFF72DF97FBD002001400C
:10170000280000200100000F30B587B01421684682
:10171000FEF796FD15480024016841F004010160C0
:10172000016801F004010591016841F001010160C7
:10173000016801F001010591016841F002010160B9
:1017400000680B4D00F00200059000220F21284692
:10175000FFF79EFB0F2000900120CDE901046946B0
:1017600028460394FFF7CAFA07B030BD303802406C
:10177000000802400C4810B50A4901604FF4E131FD
:101780004160002181600C22C160C0E904128161C6
:10179000C161FFF7C3FE002803D0BDE81040FFF78A
:1017A000D9B810BD0044004070000020FEE770472B
:1017B00070477047FFF778BB30B593B0302168466B
:1017C000FEF73EFD14210CA8FEF73AFD184800254F
:1017D000016841F080510160006800F08050119074
:1017E0001448016841F4404101600068022400F49B
:1017F0004040119001200390102004900094069422
:101800000820CDE907506420CDE9090404200B909D
:101810006846FFF7C1FC0CA90F2081E83100E00207
:10182000CDE90F0503210CA8FFF7CCFB13B030BDA9
:1018300040380240007000400548016841F47001E2
:10184000016003494FF00060803908607047000074
:1018500088ED00E02DE9F041044600680169E26886
:1018600021F44051114301612169A068E2690843F4
:101870006169114308432168CA6849F20C639A43BD
:101880000243CA6020684169A26921F44071114392
:101890004161E069192764253226B0F5004F354AC9
:1018A000354920684FF0000806D0884201D09042A8
:1018B00036D1FFF731FC35E0884201D0904202D1A9
:1018C000FFF72AFC01E0FFF717FC61684A18A0FB4C
:1018D000070148EB0803FEF77BFC0146B0FBF5F07F
:1018E0000201B1FBF5F06FF01803584301EB8000E3
:1018F00006EBC000B0FBF5F000F0F80002EB400290
:10190000B1FBF5F0584301EB800006EBC000B0FBE3
:10191000F5F000F00700216810448860BDE8F08110
:10192000FFF7EAFB61688B0F8A00A0FB0701FEF757
:101930004FFC0146B0FBF5F06FF01802504301EB8D
:10194000800006EB0010B0FBF5F000F0F002B1FBF8
:10195000F5F002EB0012B1FBF5F06FF018035843FD
:1019600001EB800006EB0010B0FBF5F000F00F007B
:10197000D1E7000000140140001001402DE9F041C2
:10198000984617460E460446069D1DE0681C1BD06F
:101990002DB1FFF783FAA0EB0800A84214D9206804
:1019A000C16821F4D071C1602068416921F0010152
:1019B0004161202084F8390084F83A00002084F83E
:1019C00038000320BDE8F0812068006836EA000096
:1019D00004D00020B842D9D00020F3E70120F9E775
:1019E000FEE700000FB4084B10B504A902AA039843
:1019F00000F0EEF8044602A9002000F080FC20462A
:101A000010BC5DF814FB0000FF2200080907090E56
:101A1000002804DB00F1E02080F80014704700F09B
:101A20000F0000F1E02080F8141D704702E008C8A4
:101A3000121F08C1002AFAD170477047002001E048
:101A400001C1121F002AFBD1704700002DE9FF5F82
:101A500082B00021DDE90430020DDDF840B003431F
:101A600018D044F61050A2F2FF32424315141198D8
:101A700001281FD0A5EB0B00401C5FEA000A4FF0C5
:101A800000064E4FDFF83891B046504615D5CAF1E2
:101A9000000413E0119801244AA3012801D16FEA40
:101AA0000B010298119AC0E90031C0E9024206B068
:101AB000BDE8F09FCBF10000DFE704460021404A7B
:101AC000491842EB0450CDE9001012E0E00707D0BE
:101AD00032463B4640464946FEF7C4FB80468946AF
:101AE00032463B4610461946FEF7BCFB06460F46FB
:101AF0006410002CEAD1DDE90401DDE90023BAF12C
:101B0000000F06DAFEF7AEFB42464B46FEF7AAFB95
:101B100005E0FEF7C5FD42464B46FEF7C1FD044613
:101B20000E460022284BFEF743FE03D84FF0FF304D
:101B3000014607E00022254B20463146FEF709FD0D
:101B4000FEF71DFE102409E0002C0ADB0A22002308
:101B5000FEF73EFB039B30321A55641E50EA010229
:101B6000F2D1641C039AC4F111031444119A012A9E
:101B700003D0012208430DD10AE0084304D000201D
:101B80004FF0110B119072E7A3EB0B056D1E0DE0EA
:101B90005B4504DD4FF0000205F1010504E003DAC6
:101BA0004FF00002A5F10105002AECD0029811992E
:101BB000C0E90231C0E9004579E7000000001440A7
:101BC0000000F03F300000000000F0430000E03F64
:101BD0002DE9FF4F95B09B468946064600250FE24A
:101BE000252877D100242746F84A0121059400E0F2
:101BF000044316F8013F203B01FA03F01042F7D1ED
:101C000030782A2811D06FF02F033078A0F13002FD
:101C1000092A16D8059A44F0020402EB820203EB6B
:101C200042021044761C0590EFE759F8042B059208
:101C3000002A03DA504244F40054059044F00204B0
:101C4000761C30782E2816D116F8010F44F00404C3
:101C50002A280DD06FF02F023078A0F13003092B25
:101C600009D807EB870302EB4303C718761CF3E799
:101C700059F8047B761C30786C280FD006DC4C2891
:101C800017D068280DD06A2814D104E0742810D029
:101C90007A280FD10DE044F400140AE044F48014D3
:101CA00001E044F440147278824202D104F58014B9
:101CB000761C761C307866280BD013DC582877D039
:101CC00009DC002875D04528F6D04628F4D04728EE
:101CD0001AD19DE118E0632835D0642879D06528B1
:101CE00012D195E1702873D008DC6728F1D06928FB
:101CF0006FD06E280DD06F2806D1B5E073282CD098
:101D0000752875D0782874D05A46179990476D1C5D
:101D100075E1C4F30250022809D003280DD0D9F888
:101D2000001004280DD00D6009F1040967E1D9F80D
:101D30000010EA17C1E90052F6E7D9F800100D804B
:101D4000F2E70D70F0E719F8041B8DF80010002081
:101D50008DF80100EA46012003E059F804AB4FF08A
:101D6000FF3061074FF0000102D40DE008F10101DE
:101D70008846B9420FDA8045F8DB1AF808100029C6
:101D8000F4D108E008F1010188468142FADB1AF833
:101D900008100029F6D105985B46A0EB08072146FC
:101DA0003846179A00F094FA284400EB080507E03B
:101DB0004DE029E10DE01AF8010B5A4617999047BA
:101DC000B8F10108F7D25B4621463846179A13E16D
:101DD00042E00A220092C4F302524FF0000A022AA3
:101DE00008D059F804CB032A4FEAEC710AD00DE071
:101DF00029E02AE009F1070121F00702F2E802C117
:101E0000914609E00FFA8CFC4FEAEC71042A03D1E9
:101E10004FFA8CFC4FEAEC71002907DA0A460021E0
:101E2000DCF1000C61EB02012D2202E0220504D559
:101E30002B228DF80420012203E0E20701D02022AA
:101E4000F7E7904659E00A2102E010220DE0102148
:101E50004FF0000A00910BE010224FF0000A44F00E
:101E600004040827009203E008224FF0000A0092C1
:101E7000C4F30252022A05D059F804CB0021032AE8
:101E800008D009E009F1070121F00702F2E802C1D8
:101E9000914605E01FFA8CFC042A01D10CF0FF0CDE
:101EA0004FF00008220728D5702806D0009B83F049
:101EB000100353EA0A0305D00EE040228DF80420F7
:101EC000012208E05CEA010206D030228DF80420ED
:101ED0008DF8050002229046009B83F0080353EA28
:101EE0000A030AD15CEA010201D1620705D530225A
:101EF0008DF804204FF001087F1E582804D034A02C
:101F000003900EA802900DE036A0F9E75346604614
:101F1000009AFEF75DF984460398825C0298401EA1
:101F2000029002705CEA0100F0D1029806A9081A3A
:101F300000F1200A600702D524F4803400E0012774
:101F4000574502DDA7EB0A0000E0002000EB0A0184
:101F5000009005984144401A0590E00306D45B4682
:101F60002146179A059800F0B3F90544002706E0CA
:101F700001A85A46C05D179990476D1C7F1C4745C4
:101F8000F6DBE0030CD55B462146179A059800F076
:101F90009FF9054404E030205A46179990476D1C7C
:101FA0000099481E00900029F5DC08E0029802998B
:101FB0005A460078491C0291179990476D1CBAF156
:101FC0000001AAF1010AF1DC65E100000928010025
:101FD000303132333435363738396162636465669F
:101FE0000000000030313233343536373839414261
:101FF000434445460000000000F058F90544761CB3
:10200000307800287FF4ECAD19B02846BDE8F08F99
:10201000620700D4062709F1070222F0070CFCE84A
:102020000223E14603F000485FEA080C02D00FF2F9
:10203000702C0DE05FEA045C02D50FF2682C07E01B
:102040005FEAC47C02D00FF2602C01E0AFF2700CAA
:102050004FF0FF3823F00043CDF850C065280CD076
:1020600006DC452809D046281DD047283DD13DE053
:10207000662818D067287ED138E00021112F01DBB7
:10208000112000E0781CCDE9000106A90EA8FFF799
:10209000DDFCDDE90F010E9A03910021009207F1AA
:1020A000010A04914DE04FF000400097CDE9011086
:1020B00006A90EA8FFF7CAFCDDE90F0203920E9BEA
:1020C00011990022DDF80CA00093049211B9791C3B
:1020D00000EB010AB7EB0A0004D4C0F1FF3007F1AE
:1020E000010A0490AAEB0700019044E0012F00DAF6
:1020F00001270021112F01DD112000E03846CDE934
:10210000000106A90EA8FFF7A1FCDDE90F010E9A58
:102110000391002104910092BA4621070CD403993F
:10212000514500DA8A46BAF1010F05DD009AAAF19D
:102130000101515C302908D0B84202DA10F1040FD5
:1021400006DA0121CDE9011015E0AAF10101E9E764
:10215000002805DC049901440491AAEB000102E087
:10216000411C514500DD8A460499401A401C0190EB
:102170004FF000400290200704D40198504501DB45
:10218000CDF8048000208DF84F0002980DF14F0724
:10219000B0F1004F25D02B200E9002984FF002088E
:1021A00000280CDA404202902D200E9007E00A2110
:1021B0000298FEF705F93031029007F8011DB8F1D9
:1021C0000001A8F10108F2DC02980028EFD1791E85
:1021D0000E980870307800F0200040F0450007F8B5
:1021E000020D12A8C01B00F107081498007800B176
:1021F000012000EB0A01019801EBE07105984144D0
:10220000401A401E0590E00306D45B462146179A0B
:10221000059800F05DF805441498007818B15A4606
:10222000179990476D1CE00324D55B462146179A09
:10223000059800F04DF805441CE00498002807DBE1
:10224000DDE90301884203DD0098405C179901E055
:10225000179930205A469047049805F10105401C13
:1022600004900198401E019004D12E205A461799DF
:1022700090476D1CBAF10001AAF1010ADDDC05E00E
:1022800017F8010B5A46179990476D1CB8F10001D9
:10229000A8F10108F4DC5B462146179A0598ABE6E5
:1022A0002D0000002B000000200000002DE9F0416F
:1022B000044600251E461746880404D405E0394626
:1022C0002020B0476D1C641EF9D52846BDE8F0817A
:1022D0002DE9F041044600251E469046C80301D56D
:1022E000302700E02027880404D505E04146384621
:1022F000B0476D1C641EF9D52846BDE8F0810A6818
:10230000531C0B601070704710B52DED028B82B01E
:102310000446FEF719F89FED1E1B53EC112BFDF739
:10232000A1FF9FED1D1B53EC112BFDF79BFFFEF74B
:102330002BF808EE100A224619A11B48FFF752FBA2
:1023400018EE100AFEF70DF841EC100B17A153EC34
:10235000102B6846FFF746FBB0EE480A00F038F84D
:1023600014A000F095F8104800F092F814A000F0C6
:102370008FF8684600F08CF813A000F089F84FF44D
:10238000C870FEF7A9FC02B0BDEC028B10BD0000C6
:102390006666666666660A40000000000000303F20
:1023A000307825303130580014000020252E326658
:1023B00000000000414443315F43483130200000B9
:1023C0002056696E203D200020760A0D0000000096
:1023D00010EE101A194A10B51948914205DA012277
:1023E0000F21BDE81040FEF753BD10EE101A154A3C
:1023F000914207DA002201210446FEF749FD01223D
:102400000E210BE010EE101A0F4A914208DA00225A
:1024100003210446FEF73CFD01220C212046E0E7A3
:1024200010EE101A094A91424FF00002D8DA072143
:102430000446FEF72DFD01220821EFE7C3F5283FF2
:1024400000080240C3F5A83FA470FD3FC3F5284033
:10245000FEF732FDFFF7B0F9FFF756F9FFF722F963
:10246000FFF788F90848FEF7D9FB084C64210648B5
:10247000FEF782FB0028F9D10348FEF71FFB20601E
:10248000FFF742FFF2E700002800002000000020D4
:1024900010B504460A4800680168C9434906FBD4E0
:1024A0002046FDF7D8FE82B24FF47A7321460448E5
:1024B000FFF79AF8BDE810406420FEF70DBC00005D
:1024C0007000002000000000000000000102030472
:1024D000060708090000000001020304FC240008AC
:1024E00000000020140000002C1A0008102500082D
:1024F000140000209C0400003C1A000800000000AA
:102500000100000010000000000000000024F400A2
:040000050800019955
:00000001FF
