:020000040800F2
:1000000098040020AD01000835140008051300080D
:1000100031140008B9020008B51B000800000000F8
:10002000000000000000000000000000391400087B
:10003000BD02000800000000371400083B1400084F
:10004000C7010008C7010008C7010008C701000870
:10005000C7010008C7010008C7010008C701000860
:10006000C7010008C7010008C7010008C701000850
:10007000C7010008C7010008C7010008C701000840
:10008000C7010008C7010008C70100080000000000
:10009000000000000000000000000000C701000890
:1000A000C7010008C7010008C7010008C701000810
:1000B000C7010008C7010008C7010008C701000800
:1000C000C7010008C7010008C7010008C7010008F0
:1000D000C7010008C7010008C701000800000000B0
:1000E000C7010008C7010008C701000800000000A0
:1000F000000000000000000000000000C701000830
:1001000000000000C7010008C7010008C70100087F
:1001100000000000000000000000000000000000DF
:10012000C7010008C7010008C7010008C70100088F
:10013000C7010008000000000000000000000000EF
:10014000000000000000000000000000C7010008DF
:10015000C7010008C7010008C7010008C70100085F
:10016000C7010008C70100080000000000000000EF
:10017000000000000000000000000000000000007F
:1001800000000000C701000800000000000000009F
:10019000C7010008C7010008DFF80CD000F07AF8AA
:1001A00000480047111C00089804002006488047BA
:1001B00006480047FEE7FEE7FEE7FEE7FEE7FEE74C
:1001C000FEE7FEE7FEE7FEE7F914000899010008E4
:1001D0002DE9F05F0546002092469B46884606467C
:1001E000814640241BE0284641464746224600F00F
:1001F00041F853465A46C01A914110D31146184649
:10020000224600F028F82D1A67EB01084F462246D7
:100210000120002100F01FF817EB00094E41201EBD
:10022000A4F10104DFDC484631462A464346BDE8D6
:10023000F09FD2B201E000F8012B491EFBD27047BB
:100240000022F6E710B513460A4604461946FFF7A2
:10025000F0FF204610BD202A04DB203A00FA02F10C
:10026000002070479140C2F1200320FA03F31943A4
:1002700090407047202A04DB203A21FA02F0002146
:10028000704721FA02F3D040C2F1200291400843A6
:1002900019467047064C074D06E0E06840F0010340
:1002A00094E8070098471034AC42F6D3FFF778FF84
:1002B000941C0008B41C000800BFFEE7704770479C
:1002C00070B5044600F0FAF806462546681C10B1E1
:1002D00004480078054400BF00F0F0F8801BA842F5
:1002E000FAD370BD10000020F8B503460A46002579
:1002F000002400200021CDE0012606FA01F5166851
:1003000006EA0504AC4273D15668012E08D056683F
:10031000022E05D05668112E02D05668122E13D127
:1003200098684F000326BE40B0434F00D668BE40D9
:1003300030439860586801268E40B0431679C6F362
:1003400000168E4030435860D8684F000326BE40E8
:10035000B0434F009668BE403043D8605668022EC6
:1003600002D05668122E13D1CF0803F1200656F89A
:1003700027004E07F70E0F26BE40B0434F07FF0E73
:100380001669BE403043CF0803F1200646F8270027
:1003900018684F000326BE40B043167906F00306E6
:1003A0004F00BE4030431860566806F08056B6F1E4
:1003B000805F6ED100BF00260096384E366846F446
:1003C0008046364F3E603E46366806F480460096CC
:1003D00000BF00BF324E8F0856F827008E07370F38
:1003E0000F26BE40B0432F4EB34202D1002615E087
:1003F0004FE02D4EB34201D101260FE02B4EB34208
:1004000001D102260AE02A4EB34201D1032605E0BB
:10041000284EB34201D1042600E007268F073F0F84
:10042000BE4030431E4E8F0846F82700224E3068EB
:10043000A043566806F48036B6F5803F00D12043CD
:100440001D4E3060361D3068A043566806F40036F5
:10045000B6F5003F00D12043174E361D3060361DE3
:100460003068A043566806F48016B6F5801F00D1A8
:100470002043114E08363060361D3068A043566860
:1004800006F40016B6F5001F00D120430A4E0C36C4
:100490003060491C1029FFF42FAFF8BD44380240EA
:1004A00008380140000002400004024000080240F9
:1004B000000C024000100240003C0140014800686E
:1004C00070470000080000200348006803490978CD
:1004D000084401490860704708000020100000200F
:1004E00010B50D48006840F400700B4908600846DC
:1004F000006840F4806008600846006840F480703E
:100500000860032000F096F8002000F007F800F0E3
:100510002BF8002010BD0000003C024070B50446DE
:100520000E4800784FF47A71B1FBF0F00C4909687D
:10053000B1FBF0F5284600F015FC08B1012070BDB4
:10054000102C07D200222146501E00F035F8054835
:10055000046001E00120F2E70020F0E71000002035
:10056000140000200C00002008B500BF00200090FF
:100570001048006840F480400E4908600846006852
:1005800000F48040009000BF00BF00BF002000903A
:10059000081F006840F08050091F08600846006886
:1005A00000F08050009000BF00BF072000F042F82C
:1005B00008BD0000443802402DE9F05F80460D463A
:1005C0001646002701F0F8FA074639462A46334610
:1005D00001F00700C0F1070ABAF1040F02D94FF089
:1005E000040A01E0C0F1070AD14600F1040ABAF199
:1005F000070F02D24FF0000A01E0A0F1030AD4462F
:100600004FF0010A0AFA09FAAAF1010A0AEA020AF3
:100610000AFA0CFA4FF0010B0BFA0CFBABF1010BD1
:100620000BEA030B4AEA0B042146404601F0CCFAE0
:10063000BDE8F09F00BF00F00702064B19684FF6B7
:10064000FF031940044B0B4343EA0221014B19609D
:1006500000BF70470CED00E00000FA0570B50446DD
:100660000D460CB9012070BD5848006800F00F001D
:10067000A84209D255490D700846006800F00F00E5
:10068000A84201D00120EEE7207800F00200022805
:100690001DD1207800F00400042805D14C480068E2
:1006A00040F4E0504A490860207800F0080008282B
:1006B00005D14748006840F4604045490860444817
:1006C000006820F0F000A1680843414908602078E4
:1006D00000F00100A8B36068012807D13C48083841
:1006E0000068C0F34040B8B90120BCE76068022848
:1006F00002D06068032807D1354808380068C0F385
:10070000406048B90120AEE7314808380068C0F3BE
:10071000400008B90120A6E72D48006820F003003A
:10072000616808432A490860FFF7C8FE064609E0E9
:10073000FFF7C4FE801B41F28831884202D90320B2
:1007400091E707E02248006800F00C006168B0EB18
:10075000810FEDD11D48006800F00F00A84209D9B3
:100760001A490D700846006800F00F00A84201D039
:10077000012078E7207800F00400042807D114480D
:10078000006820F4E050E1680843114908602078CF
:1007900000F00800082808D10D48006820F46040E7
:1007A000216940EAC1000A49086000F03FF80849A1
:1007B0000968C1F30311074A515CC8400649086043
:1007C00006480068FFF7AAFE00204CE7003C024004
:1007D000083802407C1C0008140000200C00002097
:1007E00001480068704700001400002000B5FFF7C2
:1007F000F7FF04490968C1F38221034A515CC840EC
:1008000000BD0000083802408C1C000800B5FFF74E
:10081000E7FF04490968C1F34231034A515CC8400B
:1008200000BD0000083802408C1C00082DE9F0478C
:10083000002400250026A1462548006800F00C0091
:1008400020B1042805D008283AD105E0DFF88490CB
:1008500039E0DFF8849036E01D48001F006800F0A2
:100860003F041B48001F006800F4800078B11A485C
:100870001749091F0968C1F38811A0FB01700146DF
:10088000224600233846FFF7A3FC05460EE0114838
:100890000F49091F0968C1F38811A0FB01700146C7
:1008A000224600233846FFF793FC05460848001F00
:1008B0000068C0F30140401C4600B5FBF6F902E0B9
:1008C000DFF8109000BF00BF4846BDE8F087000089
:1008D000083802400024F40000127A00F8B50446FB
:1008E0000CB90120F8BD207800F00100002874D078
:1008F000F948006800F00C0004280DD0F6480068A4
:1009000000F00C00082813D1F348001F006800F421
:100910008000B0F5800F0BD1EF4808380068C0F3B5
:100920004040002859D06068002856D10120D9E7FE
:1009300000BF6068B0F5803F08D1E748083800681C
:1009400040F48030E449083908601EE06068B0F582
:10095000A02F0DD1E0480838006840F48020DE491F
:10096000083908600846006840F4803008600CE0F0
:10097000D9480838006820F48030D7490839086021
:100980000846006820F48020086000BF606890B1CD
:10099000FFF794FD054606E0FFF790FD401B642835
:1009A00001D903209EE7CC4808380068C0F34040D6
:1009B0000028F1D011E0FFF781FD054606E0FFF7C2
:1009C0007DFD401B642801D903208BE7C24808380D
:1009D0000068C0F340400028F1D1207800F0020008
:1009E00002285FD1BC48006800F00C0058B1BA483A
:1009F000006800F00C0008281CD1B748001F0068F0
:100A000000F48000B0B9B44808380068C0F3400072
:100A100020B1E068012801D0012063E7AE48083822
:100A2000006820F0F800216940EAC100AA490839AD
:100A3000086037E0E06800B30120A8490860FFF7CC
:100A40003DFD054606E0FFF739FD401B022801D9B0
:100A5000032047E7A04808380068C0F3400000289A
:100A6000F1D09D480838006820F0F800216940EA7C
:100A7000C10099490839086014E0002097490860CE
:100A8000FFF71CFD054606E0FFF718FD401B022896
:100A900001D9032026E7904808380068C0F34000D9
:100AA0000028F1D1207800F0080008282CD16069D6
:100AB000A8B101208A490860FFF700FD054606E05D
:100AC000FFF7FCFC401B022801D903200AE78248FB
:100AD0006C300068C0F340000028F1D014E0002022
:100AE0007F490860FFF7EAFC054606E0FFF7E6FCF1
:100AF000401B022801D90320F4E677486C300068D7
:100B0000C0F340000028F1D1207800F00400042850
:100B100070D1002770483830006800F0805090B9DC
:100B200000BF002000906C483830006840F08050D2
:100B30006949383108600846006800F0805000902C
:100B400000BF00BF01276748006800F48070B0B99B
:100B50006448006840F4807062490860FFF7AEFCAA
:100B6000054606E0FFF7AAFC401B022801D9032036
:100B7000B8E65C48006800F480700028F2D000BF3E
:100B8000A068012808D154486830006840F001008E
:100B90005149683108601DE0A06805280DD14E4814
:100BA0006830006840F004004B496831086008462E
:100BB000006840F0010008600CE0474868300068B9
:100BC00020F001004449683108600846006820F0C0
:100BD0000400086000BFA068A8B1FFF76FFC0546DD
:100BE00009E0FFF76BFC401B41F28831884202D9D3
:100BF000032077E626E0384868300068C0F34000FC
:100C00000028EED013E0FFF759FC054608E0FFF797
:100C100055FC401B41F28831884201D9032061E62E
:100C20002D4868300068C0F340000028EFD1012F44
:100C300007D129483830006820F0805026493831E3
:100C4000086000BFA069002845D02348006800F074
:100C50000C0008285DD0A069022845D100201F495A
:100C60000866FFF72BFC054606E0FFF727FC401B54
:100C7000022801D9032035E6174808380068C0F378
:100C800040600028F1D1D4E907010843616A40EAD5
:100C900081110122A06AC2EB500041EA00412C20E0
:100CA000005D41EA00600C49091F086001200B4902
:100CB0000866FFF703FC054606E0FFF7FFFB401B55
:100CC000022801D903200DE6034808380068C0F364
:100CD00040600028F1D03FE0083802400000474261
:100CE000800E47420070004000201C490866FFF754
:100CF000E5FB054606E0FFF7E1FB401B022801D9B2
:100D00000320EFE516480068C0F340600028F2D1E8
:100D100022E0A069012800D1E4E511480830066806
:100D200006F48001E069814214D106F03F01206A97
:100D300081420FD147F6C0703040616A884209D1C4
:100D400006F44031A06A814204D106F07061E06A85
:100D5000814201D00120C5E50020C3E500004742E3
:100D60000038024070B504462546681EB0F1807F09
:100D700001D301200FE0681E4FF0E02148610F21F0
:100D80004FF0FF3000F020FF00204FF0E02188619D
:100D900007200861002070BD30B502460B4600BF39
:100DA00092F83C00012801D1022030BD012082F8D8
:100DB0003C0000BF022082F83D00106844681068C3
:100DC000816824F070041868044310684460144D6E
:100DD0001068A84213D01068B0F1804F0FD0114DA9
:100DE0001068A8420BD0104D1068A84207D00F4DD4
:100DF0001068A84203D00E4D1068A84205D121F01A
:100E000080015868014310688160012082F83D002C
:100E100000BF002082F83C0000BF00BFC5E7000013
:100E2000000001400004004000080040000C0040A9
:100E30000040014010B504460CB9012010BD94F8E3
:100E40003D0028B9002084F83C00204600F00CF852
:100E5000022084F83D00211D206800F05BFB01208A
:100E600084F83D000020E9E708B50168B1F1804F42
:100E70000FD100BF002100910649096841F001012E
:100E8000044A11601146096801F00101009100BF98
:100E900000BF08BD403802402DE9F04104460D4630
:100EA00000BF94F83C00012802D10220BDE8F08187
:100EB000012084F83C0000BF022084F83D00206837
:100EC000866826F0770626F47F46206886602868C4
:100ED000502833D00CDC202850D004DC00284BD024
:100EE000102851D149E0302849D040284CD139E070
:100EF00060282DD0702807D0B0F5805F03D0B0F502
:100F0000005F41D10DE040E0D5E902136A68206836
:100F100000F063FB2068866846F0770620688660EC
:100F200033E0D5E902136A68206800F056FB2068B8
:100F3000806840F480402168886026E0EA6869683B
:100F4000206800F01BFC5021206800F051FB1CE0E1
:100F5000EA686968206800F024FC6021206800F0DD
:100F600047FB12E0EA686968206800F007FC40214E
:100F7000206800F03DFB08E000BF00BF00BF29680B
:100F8000206800F035FB00E000BF00BF012084F8BE
:100F90003D0000BF002084F83C0000BF00BF85E793
:100FA00010B586B00446142101A8FFF749F920685E
:100FB000B0F1804F1DD100BF002000900E480068A6
:100FC00040F002000C4908600846006800F002008A
:100FD000009000BF00BF0815019002200290002081
:100FE0000390032004900120059001A90348FFF716
:100FF0007BF906B010BD000030380240000402400A
:1010000070B504460D46164600BF94F83C00012812
:1010100001D1022070BD012084F83C0000BF0220F5
:1010200084F83D0036B1042E1BD0082E31D00C2E92
:101030005ED145E02946206800F0E4FA2068806926
:1010400040F00800216888612068806920F0040071
:10105000216888612068806929690843216888615E
:1010600047E02946206800F0FDFA2068806940F4D6
:101070000060216888612068806920F480602168B0
:10108000886120688069296940EA012021688861B7
:101090002FE02946206800F019FB2068C06940F065
:1010A00008002168C8612068C06920F00400216838
:1010B000C8612068C069296908432168C86118E0CF
:1010C0002946206800F036FB2068C06940F40060C3
:1010D0002168C8612068C06920F480602168C86107
:1010E0002068C069296940EA01202168C86100E0E0
:1010F00000BF00BF012084F83D0000BF002084F83D
:101100003C0000BF00BF85E710B504460CB90120C4
:1011100010BD94F83D0028B9002084F83C0020461A
:1011200000F00CF8022084F83D00211D206800F03A
:10113000F1F9012084F83D000020E9E77047000044
:1011400070B504460E4601223146206800F034FA9C
:101150000D492068884201D1012000E0002028B11B
:101160002068406C40F40040216848642068806832
:1011700000F00705062D05D02068006840F001004A
:1011800021680860002070BD0000014030B50446B1
:101190000D4600222946206800F00EFA1949206801
:1011A000884201D1012000E0002090B100BF2068FA
:1011B000006A41F21111084050B92068006A891094
:1011C000084028B92068406C20F400402168486439
:1011D00000BF00BF2068006A41F21111084050B9F9
:1011E0002068006A8910084028B92068006820F04B
:1011F00001002168086000BF012084F83D00002044
:1012000030BD00000000014010B504460CB90120BB
:1012100010BDA06900B100E000BF94F8390028B902
:10122000002084F83800204600F028F8242084F8B4
:1012300039002068C06820F400502168C86020464A
:1012400000F0C4FA2068006920F490402168086129
:101250002068406920F02A00216848612068C06841
:1012600040F400502168C8600020E063202084F82A
:10127000390084F83A000020CAE7000010B586B0B3
:101280000446142101A8FEF7DBFF1B4920688842B1
:101290002FD100BF002000901848006840F40030B3
:1012A000164908600846006800F40030009000BF4E
:1012B00000BF00BF0020009010481038006840F0C8
:1012C00001000E49103908600846006800F001006E
:1012D000009000BF00BF0C2001900220029000206F
:1012E0000390032004900720059001A90448FEF70D
:1012F000FBFF06B010BD0000004400404038024033
:101300000000024000BFFEE708B500BF00200090CB
:101310000E48006840F001000C490860084600686B
:1013200000F00100009000BF00BF00BF002000904F
:101330000846006840F0020008600846006800F0B7
:101340000200009000BF00BF08BD0000303802401E
:1013500000B58DB0002009900A900B900C9007907A
:1013600008901C216846FEF76BFF4FF08040214932
:10137000086042F20F70486000211E48816042F20E
:101380000F71C160002101618161FFF753FD08B158
:10139000FEF795FF4FF48050099009A91548FFF713
:1013A0007BFD08B1FEF78BFF1248FFF7ADFE08B1D9
:1013B000FEF785FF00200790089007A90D48FFF76A
:1013C000EBFC08B1FEF77BFF7020009040F6C310E5
:1013D0000190002002900490082269460548FFF71A
:1013E0000FFE08B1FEF76BFF0248FFF7D9FD0DB005
:1013F00000BD00001800002010B50B480B49086024
:101400004FF4E1304860002108488160C16001610B
:101410000C21416100218161C161FFF7F5FE08B136
:10142000FEF74DFF10BD00000044004058000020B2
:1014300000BFFEE770477047704710B5FFF744F8EC
:1014400010BD000000B593B0302107A8FEF7F8FEEC
:10145000142102A8FEF7F4FE00BF002001902448EA
:10146000006840F08050224908600846006800F09B
:101470008050019000BF00BF00BF002001901D48B8
:10148000006840F440401B4908600846006800F4CA
:101490004040019000BF00BF0220079001200A9049
:1014A00010200B9002200D9000210E9108210F9129
:1014B00064211091022111910421129107A8FFF7D4
:1014C0000DFA08B1FEF7FBFE0F20029002200390F8
:1014D000002004904FF480500590002006900321D6
:1014E00002A8FFF7BBF808B1FEF7E9FE13B000BD94
:1014F00040380240007000400548006840F4700029
:10150000034908604FF00060014980390860704766
:1015100088ED00E010B50268204B98420BD0B0F186
:10152000804F08D01E4B984205D01E4B984202D0E7
:101530001D4B984203D122F070024B681A43174B9F
:10154000984214D0B0F1804F11D0154B98420ED074
:10155000144B98420BD0144B984208D0134B98422E
:1015600005D0134B984202D0124B984203D122F47B
:101570004072CB681A4322F080034C6943EA0402AC
:1015800002608B68C3620B688362044B984201D18E
:101590000B6903630123436110BD0000000001409B
:1015A0000004004000080040000C004000400140E2
:1015B000004401400048014030B501F01F050124FE
:1015C00004FA05F3046A9C430462046A01F01F05EF
:1015D00002FA05F52C43046230BD30B50C46816833
:1015E00021F47F4142EA032525432943816030BD30
:1015F0000A46816821F0700142F0070319438160B7
:101600007047000030B5056A25F001050562026AE1
:101610004368846924F0700424F003040D682C43AB
:1016200022F002028D682A430D4DA84206D100BF68
:1016300022F00802CD682A4322F00402084DA84295
:1016400007D123F4807323F400734D692B438D6914
:101650002B43436084614D684563026230BD0000E6
:101660000000014030B5056A25F010050562026AE8
:101670004368846924F4E04424F440740D6844EA27
:10168000052422F020028D6842EA05120E4DA84280
:1016900007D100BF22F08002CD6842EA051222F095
:1016A0004002094DA84209D123F4806323F400636A
:1016B0004D6943EA85038D6943EA8503436084618C
:1016C0004D688563026230BD0000014030B5056A97
:1016D00025F480750562026A4368C46924F07004C9
:1016E00024F003040D682C4322F400728D6842EA52
:1016F00005220F4DA84207D100BF22F40062CD6839
:1017000042EA052222F48062094DA84209D123F45D
:10171000805323F400534D6943EA05138D6943EA6E
:1017200005134360C4614D68C563026230BD0000AB
:101730000000014030B5056A25F480550562036A52
:101740004468C26922F4E04222F440720D6842EA21
:10175000052223F400538D6843EA0533064DA84261
:1017600004D124F480444D6944EA85144460C26184
:101770004D680564036230BD0000014030B50B4682
:101780001446026A056A25F001050562816921F0A7
:10179000F00141EA041122F00A021A438161026257
:1017A00030BD30B50B461446056A25F010050562BC
:1017B0008169026A21F4704141EA043122F0A002F9
:1017C00042EA03128161026230BD00002DE9F84F48
:1017D00004462068006920F44050E168084321680D
:1017E00008612169A068084361690843E169084309
:1017F00000902068C06849F20C6188430099084352
:101800002168C8602068406920F44070A1690843DD
:1018100021684861E069B0F5004F75D1E34920685F
:10182000884203D0E249206888426FD1FEF7EEFF7C
:10183000814602206168A0FB01510B461920A9FBDB
:1018400000712A463846FEF7C3FC6421B0FBF1F074
:101850004FEA001A02206168A0FB01510B461920D3
:10186000A9FB00712A463846FEF7B2FC0746022063
:101870006168A0FB01510B461920A9FB00B12A4663
:101880005846FEF7A5FC6421B0FBF1F000EBC00167
:1018900001EB0010A7EB8000322101EBC0006421B6
:1018A000B0FBF1F000F0F8000AEB400A022061689A
:1018B000A0FB01510B461920A9FB00712A463846AE
:1018C000FEF786FC074602206168A0FB01510B462B
:1018D0001920A9FB00B12A465846FEF779FC64217D
:1018E000B0FBF1F000EBC00101EB0010A7EB8000B2
:1018F000322101EBC0006421B0FBF1F000F00700E1
:101900005044216888604FE16EE0FFE7FEF76EFF0C
:10191000814602206168A0FB01510B461920A9FBFA
:1019200000712A463846FEF753FC6421B0FBF1F003
:101930004FEA001A02206168A0FB01510B461920F2
:10194000A9FB00712A463846FEF742FC07460220F2
:101950006168A0FB01510B461920A9FB00B12A4682
:101960005846FEF735FC6421B0FBF1F000EBC001F6
:1019700001EB0010A7EB8000322101EBC0006421D5
:10198000B0FBF1F000F0F8000AEB400A02206168B9
:10199000A0FB01510B461920A9FB00712A463846CD
:1019A000FEF716FC074602206168A0FB01500346C3
:1019B0001920A9FB00B12A465846FEF709FC64210C
:1019C000B0FBF1F000EBC00101EB0010A7EB8000D1
:1019D000322101EBC0006421B0FBF1F000F0070000
:1019E000504421688860DFE070492068884203D055
:1019F0006F49206888426BD1FEF708FF81460420BA
:101A00006168A0FB01510B461920A9FB00712A4611
:101A10003846FEF7DDFB824604206168A0FB0151D9
:101A20000B461920A9FB00712A463846FEF7D0FB69
:101A30006421B0FBF1F000EBC00101EB0010AAEB58
:101A40008000322101EB00106421B0FBF1F000F0C6
:101A5000F00A04206168A0FB015003461920A9FB8D
:101A600000712A463846FEF7B3FB6421B0FBF1F063
:101A70000AEB001A04206168A0FB01510B461920F3
:101A8000A9FB00712A463846FEF7A2FB0746042050
:101A90006168A0FB015003461920A9FB00B12A464A
:101AA0005846FEF795FB6421B0FBF1F000EBC00156
:101AB00001EB0010A7EB8000322101EB0010642144
:101AC000B0FBF1F000F00F005044216888606BE03B
:101AD000FEF78CFE814604206168A0FB015003469E
:101AE0001920A9FB00712A463846FEF771FB824691
:101AF00004206168A0FB015003461920A9FB007176
:101B00002A463846FEF764FB6421B0FBF1F000EB97
:101B1000C00101EB0010AAEB8000322101EB0010A4
:101B20006421B0FBF1F000F0F00A04206168A0FB32
:101B3000015003461920A9FB00712A463846FEF7DA
:101B400047FB6421B0FBF1F00AEB001A0420616846
:101B5000A0FB017003461920A9FB005001463A463C
:101B60002846FEF735FB074604206168A0FB0150BC
:101B700003461920A9FB00B12A465846FEF728FB68
:101B80006421B0FBF1F000EBC00101EB0010A7EB0A
:101B90008000322101EB00106421B0FBF1F000F075
:101BA0000F00504421688860BDE8F88F00100140A4
:101BB0000014014000BFFEE702480068C0F30220A5
:101BC000704700000CED00E010B5002804DB0A07A8
:101BD000130E054A135406E00A07140E034A00F0D8
:101BE0000F031B1FD45410BD00E400E018ED00E00B
:101BF00002E008C8121F08C1002AFAD170477047D6
:101C0000002001E001C1121F002AFBD17047000033
:101C1000FEF766FCFFF716FCFFF776FBFFF7ECFB21
:101C2000FFF796FB1FE0104890ED000ADFED0F0A6A
:101C300020EE200ABCEEC00A10EE100A0C4909681A
:101C4000C86308210A48FFF77BFA4FF47A70FEF761
:101C500037FB08210648FFF799FA06480068C0F3E9
:101C6000802005490870DEE704000020003C1C4687
:101C700018000020100402400000002000000000B6
:101C8000000000000102030406070809000000002C
:101C900001020304B41C000800000020180000002A
:101CA000F01B0008CC1C0008180000208004000075
:101CB000001C000800000000CDCC4C3F00000000DC
:0C1CC00010000000010000000024F400EF
:040000050800019955
:00000001FF
