:020000040800F2
:1000000028040020AD010008090E0008610D000859
:10001000050E0008B9020008E90E00080000000003
:100020000000000000000000000000000D0E0008AD
:10003000BD020008000000000B0E00080F0E0008B3
:10004000C7010008C7010008C7010008C701000870
:10005000C7010008C7010008C7010008C701000860
:10006000C7010008C7010008C7010008C701000850
:10007000C7010008C7010008C7010008C701000840
:10008000C7010008C7010008C70100080000000000
:10009000000000000000000000000000C701000890
:1000A000C7010008C7010008C7010008C701000810
:1000B000C7010008C7010008C7010008C701000800
:1000C000C7010008C7010008C7010008C7010008F0
:1000D000C7010008C7010008C701000800000000B0
:1000E000C7010008C7010008C701000800000000A0
:1000F000000000000000000000000000C701000830
:1001000000000000C7010008C7010008C70100087F
:1001100000000000000000000000000000000000DF
:10012000C7010008C7010008C7010008C70100088F
:10013000C7010008000000000000000000000000EF
:10014000000000000000000000000000C7010008DF
:10015000C7010008C7010008C7010008C70100085F
:10016000C7010008C70100080000000000000000EF
:10017000000000000000000000000000000000007F
:1001800000000000C701000800000000000000009F
:10019000C7010008C7010008DFF80CD000F07AF8AA
:1001A000004800470D10000828040020064880473A
:1001B00006480047FEE7FEE7FEE7FEE7FEE7FEE74C
:1001C000FEE7FEE7FEE7FEE7CD0E00089901000816
:1001D0002DE9F05F0546002092469B46884606467C
:1001E000814640241BE0284641464746224600F00F
:1001F00041F853465A46C01A914110D31146184649
:10020000224600F028F82D1A67EB01084F462246D7
:100210000120002100F01FF817EB00094E41201EBD
:10022000A4F10104DFDC484631462A464346BDE8D6
:10023000F09FD2B201E000F8012B491EFBD27047BB
:100240000022F6E710B513460A4604461946FFF7A2
:10025000F0FF204610BD202A04DB203A00FA02F10C
:10026000002070479140C2F1200320FA03F31943A4
:1002700090407047202A04DB203A21FA02F0002146
:10028000704721FA02F3D040C2F1200291400843A6
:1002900019467047064C074D06E0E06840F0010340
:1002A00094E8070098471034AC42F6D3FFF778FF84
:1002B000BC110008DC11000800BFFEE77047704762
:1002C00070B5044600F008F906462546681C10B1D2
:1002D00004480078054400BF00F0FEF8801BA842E7
:1002E000FAD370BD20000020F8B503460A46002569
:1002F000002400200021CDE0012606FA01F5166851
:1003000006EA0504AC4273D15668012E08D056683F
:10031000022E05D05668112E02D05668122E13D127
:1003200098684F000326BE40B0434F00D668BE40D9
:1003300030439860586801268E40B0431679C6F362
:1003400000168E4030435860D8684F000326BE40E8
:10035000B0434F009668BE403043D8605668022EC6
:1003600002D05668122E13D1CF0803F1200656F89A
:1003700027004E07F70E0F26BE40B0434F07FF0E73
:100380001669BE403043CF0803F1200646F8270027
:1003900018684F000326BE40B043167906F00306E6
:1003A0004F00BE4030431860566806F08056B6F1E4
:1003B000805F6ED100BF00260096384E366846F446
:1003C0008046364F3E603E46366806F480460096CC
:1003D00000BF00BF324E8F0856F827008E07370F38
:1003E0000F26BE40B0432F4EB34202D1002615E087
:1003F0004FE02D4EB34201D101260FE02B4EB34208
:1004000001D102260AE02A4EB34201D1032605E0BB
:10041000284EB34201D1042600E007268F073F0F84
:10042000BE4030431E4E8F0846F82700224E3068EB
:10043000A043566806F48036B6F5803F00D12043CD
:100440001D4E3060361D3068A043566806F40036F5
:10045000B6F5003F00D12043174E361D3060361DE3
:100460003068A043566806F48016B6F5801F00D1A8
:100470002043114E08363060361D3068A043566860
:1004800006F40016B6F5001F00D120430A4E0C36C4
:100490003060491C1029FFF42FAFF8BD44380240EA
:1004A00008380140000002400004024000080240F9
:1004B000000C024000100240003C0140024613695B
:1004C0000B400BB1012000E0002070470AB18161B0
:1004D00001E00B0483617047014800687047000029
:1004E00018000020034800680349097808440149BE
:1004F00008607047180000202000002010B50D484B
:10050000006840F400700B4908600846006840F439
:10051000806008600846006840F48070086003202E
:1005200000F092F8002000F007F800F02BF800200F
:1005300010BD0000003C024070B504460E48007833
:100540004FF47A71B1FBF0F00C490968B1FBF0F59A
:10055000284600F0EBFB08B1012070BD102C07D23B
:1005600000222146501E00F031F80548046001E0E9
:100570000120F2E70020F0E7200000202400002006
:100580001C00002008B500BF002000900E48006845
:1005900040F480400C4908600846006800F4804040
:1005A000009000BF00BF00BF00200090081F00683F
:1005B00040F08050091F08600846006800F0805035
:1005C000009000BF00BF08BD443802402DE9F05F35
:1005D00080460D461646002700F088FC074639463F
:1005E0002A46334601F00700C0F1070ABAF1040FAA
:1005F00002D94FF0040A01E0C0F1070AD14600F128
:10060000040ABAF1070F02D24FF0000A01E0A0F18C
:10061000030AD4464FF0010A0AFA09FAAAF1010ABC
:100620000AEA020A0AFA0CFA4FF0010B0BFA0CFB69
:10063000ABF1010B0BEA030B4AEA0B0421464046DF
:1006400000F05CFCBDE8F09F00BF00F00702064B25
:1006500019684FF6FF031940044B0B4343EA02218C
:10066000014B196000BF70470CED00E00000FA0577
:1006700070B504460D460CB9012070BD584800689D
:1006800000F00F00A84209D255490D7008460068D5
:1006900000F00F00A84201D00120EEE7207800F022
:1006A000020002281DD1207800F00400042805D1A2
:1006B0004C48006840F4E0504A490860207800F057
:1006C0000800082805D14748006840F460404549C3
:1006D00008604448006820F0F000A16808434149E0
:1006E0000860207800F00100A8B36068012807D1F5
:1006F0003C4808380068C0F34040B8B90120BCE766
:100700006068022802D06068032807D1354808389D
:100710000068C0F3406048B90120AEE731480838AE
:100720000068C0F3400008B90120A6E72D48006822
:1007300020F00300616808432A490860FFF7CCFEF7
:10074000064609E0FFF7C8FE801B41F28831884267
:1007500002D9032091E707E02248006800F00C006E
:100760006168B0EB810FEDD11D48006800F00F000B
:10077000A84209D91A490D700846006800F00F0018
:10078000A84201D0012078E7207800F00400042876
:1007900007D11448006820F4E050E168084311498B
:1007A0000860207800F00800082808D10D4800688B
:1007B00020F46040216940EAC1000A49086000F065
:1007C00019F808490968C1F30311074A515CC84088
:1007D0000649086006480068FFF7AEFE00204CE7B7
:1007E000003C024008380240A41100082400002008
:1007F0001C0000202DE9F047002400250026A1461A
:100800002548006800F00C0020B1042805D0082815
:100810003AD105E0DFF8849039E0DFF8849036E0E3
:100820001D48001F006800F03F041B48001F0068BF
:1008300000F4800078B11A481749091F0968C1F30C
:100840008811A0FB01700146224600233846FFF7BD
:10085000BFFC05460EE011480F49091F0968C1F3A6
:100860008811A0FB01700146224600233846FFF79D
:10087000AFFC05460848001F0068C0F30140401C5B
:100880004600B5FBF6F902E0DFF8109000BF00BFAC
:100890004846BDE8F0870000083802400024F40014
:1008A00000127A00F8B504460CB90120F8BD207892
:1008B00000F00100002874D0F948006800F00C0036
:1008C00004280DD0F648006800F00C00082813D169
:1008D000F348001F006800F48000B0F5800F0BD1D2
:1008E000EF4808380068C0F34040002859D06068DD
:1008F000002856D10120D9E700BF6068B0F5803FDD
:1009000008D1E7480838006840F48030E4490839E5
:1009100008601EE06068B0F5A02F0DD1E0480838EF
:10092000006840F48020DE49083908600846006805
:1009300040F4803008600CE0D9480838006820F4A2
:100940008030D749083908600846006820F48020C4
:10095000086000BF606890B1FFF7BEFD054606E085
:10096000FFF7BAFD401B642801D903209EE7CC485D
:1009700008380068C0F340400028F1D011E0FFF7CC
:10098000ABFD054606E0FFF7A7FD401B642801D933
:1009900003208BE7C24808380068C0F340400028B5
:1009A000F1D1207800F0020002285FD1BC48006835
:1009B00000F00C0058B1BA48006800F00C0008289C
:1009C0001CD1B748001F006800F48000B0B9B448DB
:1009D00008380068C0F3400020B1E068012801D069
:1009E000012063E7AE480838006820F0F80021696C
:1009F00040EAC100AA490839086037E0E06800B35E
:100A00000120A8490860FFF767FD054606E0FFF7EB
:100A100063FD401B022801D9032047E7A04808389E
:100A20000068C0F340000028F1D09D4808380068F5
:100A300020F0F800216940EAC100994908390860AE
:100A400014E0002097490860FFF746FD054606E0E0
:100A5000FFF742FD401B022801D9032026E79048FA
:100A600008380068C0F340000028F1D1207800F079
:100A7000080008282CD16069A8B101208A490860C3
:100A8000FFF72AFD054606E0FFF726FD401B02287A
:100A900001D903200AE782486C300068C0F34000A7
:100AA0000028F1D014E000207F490860FFF714FD12
:100AB000054606E0FFF710FD401B022801D9032080
:100AC000F4E677486C300068C0F340000028F1D1AC
:100AD000207800F00400042870D1002770483830D6
:100AE000006800F0805090B900BF002000906C4872
:100AF0003830006840F08050694938310860084655
:100B0000006800F08050009000BF00BF01276748D8
:100B1000006800F48070B0B96448006840F48070E8
:100B200062490860FFF7D8FC054606E0FFF7D4FCF1
:100B3000401B022801D90320B8E65C48006800F495
:100B400080700028F2D000BFA068012808D1544866
:100B50006830006840F001005149683108601DE0CC
:100B6000A06805280DD14E486830006840F00400A8
:100B70004B49683108600846006840F00100086091
:100B80000CE047486830006820F0010044496831B3
:100B900008600846006820F00400086000BFA068F4
:100BA000A8B1FFF799FC054609E0FFF795FC401B4B
:100BB00041F28831884202D9032077E626E038489E
:100BC00068300068C0F340000028EED013E0FFF763
:100BD00083FC054608E0FFF77FFC401B41F28831AB
:100BE000884201D9032061E62D4868300068C0F3CF
:100BF00040000028EFD1012F07D129483830006884
:100C000020F0805026493831086000BFA0690028D4
:100C100045D02348006800F00C0008285DD0A0698A
:100C2000022845D100201F490866FFF755FC0546FC
:100C300006E0FFF751FC401B022801D9032035E6EE
:100C4000174808380068C0F340600028F1D1D4E9A3
:100C500007010843616A40EA81110122A06AC2EBE0
:100C6000500041EA00412C20005D41EA00600C493F
:100C7000091F086001200B490866FFF72DFC054697
:100C800006E0FFF729FC401B022801D903200DE6EE
:100C9000034808380068C0F340600028F1D03FE006
:100CA0000838024000004742800E47420070004072
:100CB00000201C490866FFF70FFC054606E0FFF719
:100CC0000BFC401B022801D90320EFE51648006801
:100CD000C0F340600028F2D122E0A069012800D1D1
:100CE000E4E511480830066806F48001E0698142B5
:100CF00014D106F03F01206A81420FD147F6C0703F
:100D00003040616A884209D106F44031A06A8142CC
:100D100004D106F07061E06A814201D00120C5E58E
:100D20000020C3E5000047420038024070B5044689
:100D30002546681EB0F1807F01D301200FE0681EB8
:100D40004FF0E02148610F214FF0FF3000F0D6F85E
:100D500000204FF0E021886107200861002070BD6D
:100D600000BFFEE700B587B0142102A8FFF768FABC
:100D700000BF002001902048006840F004001E4998
:100D800008600846006800F00400019000BF00BF42
:100D900000BF002001900846006840F00100086094
:100DA0000846006800F00100019000BF00BF00226B
:100DB000FF211248FFF78AFB4FF4005002900020F9
:100DC0000390049002A90D48FFF78EFAFF200290CD
:100DD0000120039000200490059002A90748FFF726
:100DE00083FA0120029000200390049002A9044895
:100DF000FFF77AFA07B000BD303802400008024021
:100E00000000024000BFFEE770477047704710B512
:100E1000FFF768FB10BD000000B593B0302107A8B4
:100E2000FFF70EFA142102A8FFF70AFA00BF00200C
:100E300001902448006840F080502249086008462C
:100E4000006800F08050019000BF00BF00BF00208C
:100E500001901D48006840F440401B490860084666
:100E6000006800F44040019000BF00BF02200790DE
:100E700001200A9010200B9002200D9000210E916D
:100E800008210F91642110910221119104211291E6
:100E900007A8FFF707FD08B1FFF711FA0F2002902E
:100EA00002200390002004904FF480500590002011
:100EB0000690032102A8FFF7DBFB08B1FFF7FFF95B
:100EC00013B000BD40380240007000400548006883
:100ED00040F47000034908604FF000600149803918
:100EE0000860704788ED00E000BFFEE70248006838
:100EF000C0F30220704700000CED00E010B50028A0
:100F000004DB0A07130E054A135406E00A07140E01
:100F1000034A00F00F031B1FD45410BD00E400E08F
:100F200018ED00E002E008C8121F08C1002AFAD13B
:100F300070477047002001E001C1121F002AFBD159
:100F40007047000010B501212748FFF7B7FA08B134
:100F5000012000E000202549087002212248FFF707
:100F6000ADFA08B1012000E00020214908700421F9
:100F70001D48FFF7A3FA08B1012000E000201D4939
:100F8000087008211848FFF799FA08B1012000E01D
:100F900000201949087010211348FFF78FFA08B193
:100FA000012000E000201549087020210E48FFF7BD
:100FB00085FA08B1012000E00020114908704021A5
:100FC0000948FFF77BFA08B1012000E000200D4935
:100FD000087080210448FFF771FA08B1012000E091
:100FE00000200949087010BD000802400D000020D3
:100FF0000E0000200F000020100000201100002033
:10100000120000201300002014000020FFF776FAE1
:10101000FFF702FFFFF7A6FE00251EE0072406E00B
:101020005848015D00225848FFF750FA641E002C12
:10103000F6DA4FF49670FFF743F9072406E05148BB
:10104000015D01225048FFF741FA641E002CF6DAD8
:101050004FF49670FFF734F96D1C032DDEDB8FE043
:101060004FF400514848FFF729FA08B1012000E089
:101070000020464908700846007801282ED14448CF
:10108000007858B343480078401C4249087008462D
:10109000007808280BD108460078401E394A115CB8
:1010A00001223948FFF712FAFF203A4908703948FF
:1010B0000078401E334A115C01223348FFF706FADC
:1010C0003048344A1278815C00222F48FFF7FEF93D
:1010D00000202F490870FFF735FF05E02B48007806
:1010E00010B901202A49087001212B48FFF7E6F9C1
:1010F00008B1012000E00020284908700846007867
:10110000012837D12648007898B3072408E01D4805
:10111000015D01221C48FFF7D9F9FFF713FF641E98
:10112000002CF4DA072416E01648015D0022164868
:10113000FFF7CCF9FFF706FFFA20FFF7C1F81148D7
:10114000015D01221048FFF7C1F9FFF7FBFEFA200D
:10115000FFF7B6F8641E002CE6DA0020104908708C
:1011600008480C4A1278815C00220748FFF7AEF964
:1011700006E0FFE70948007810B901200849087027
:101180006EE700000500002000080240000000207B
:1011900002000020040000200000024001000020A6
:1011A0000300002000000000000000000102030412
:1011B000060708090000000001020304DC11000812
:1011C0000000002028000000240F0008041200087E
:1011D0002800002000040000340F00080000010176
:1011E000FF01020408102040800000000000000001
:1011F00000000000000000001000000001000000DE
:041200000024F400D2
:040000050800019955
:00000001FF
